{
	"contracts/Lock.sol": {
		"Lock": {
			"abi": [
				{
					"anonymous": false,
					"inputs": [
						{
							"indexed": false,
							"internalType": "string",
							"name": "electionName",
							"type": "string"
						},
						{
							"indexed": false,
							"internalType": "string",
							"name": "candidateName",
							"type": "string"
						}
					],
					"name": "VoteCast",
					"type": "event"
				},
				{
					"inputs": [
						{
							"internalType": "string",
							"name": "_electionName",
							"type": "string"
						},
						{
							"internalType": "string[]",
							"name": "_candidates",
							"type": "string[]"
						}
					],
					"name": "addElectionWithCandidates",
					"outputs": [],
					"stateMutability": "nonpayable",
					"type": "function"
				},
				{
					"inputs": [
						{
							"internalType": "string",
							"name": "_electionName",
							"type": "string"
						}
					],
					"name": "getCandidateNames",
					"outputs": [
						{
							"internalType": "string[]",
							"name": "",
							"type": "string[]"
						}
					],
					"stateMutability": "view",
					"type": "function"
				},
				{
					"inputs": [
						{
							"internalType": "string",
							"name": "_electionName",
							"type": "string"
						},
						{
							"internalType": "string",
							"name": "_candidateName",
							"type": "string"
						}
					],
					"name": "getCandidateVotes",
					"outputs": [
						{
							"internalType": "uint256",
							"name": "",
							"type": "uint256"
						}
					],
					"stateMutability": "view",
					"type": "function"
				},
				{
					"inputs": [
						{
							"internalType": "string",
							"name": "_electionName",
							"type": "string"
						}
					],
					"name": "getElectionResult",
					"outputs": [
						{
							"internalType": "string",
							"name": "",
							"type": "string"
						},
						{
							"internalType": "string[]",
							"name": "",
							"type": "string[]"
						},
						{
							"internalType": "uint256[]",
							"name": "",
							"type": "uint256[]"
						}
					],
					"stateMutability": "view",
					"type": "function"
				},
				{
					"inputs": [
						{
							"internalType": "string",
							"name": "_electionName",
							"type": "string"
						},
						{
							"internalType": "string",
							"name": "_candidateName",
							"type": "string"
						}
					],
					"name": "vote",
					"outputs": [],
					"stateMutability": "nonpayable",
					"type": "function"
				}
			],
			"devdoc": {
				"kind": "dev",
				"methods": {},
				"version": 1
			},
			"evm": {
				"assembly": "    /* \"contracts/Lock.sol\":64:2980  contract Lock {... */\n  mstore(0x40, 0x80)\n  callvalue\n  dup1\n  iszero\n  tag_1\n  jumpi\n  0x00\n  dup1\n  revert\ntag_1:\n  pop\n  dataSize(sub_0)\n  dup1\n  dataOffset(sub_0)\n  0x00\n  codecopy\n  0x00\n  return\nstop\n\nsub_0: assembly {\n        /* \"contracts/Lock.sol\":64:2980  contract Lock {... */\n      mstore(0x40, 0x80)\n      callvalue\n      dup1\n      iszero\n      tag_1\n      jumpi\n      0x00\n      dup1\n      revert\n    tag_1:\n      pop\n      jumpi(tag_2, lt(calldatasize, 0x04))\n      shr(0xe0, calldataload(0x00))\n      dup1\n      0x30117d24\n      eq\n      tag_3\n      jumpi\n      dup1\n      0x897de252\n      eq\n      tag_4\n      jumpi\n      dup1\n      0x9d3adf5b\n      eq\n      tag_5\n      jumpi\n      dup1\n      0xb7ff50fc\n      eq\n      tag_6\n      jumpi\n      dup1\n      0xe8d5940d\n      eq\n      tag_7\n      jumpi\n    tag_2:\n      0x00\n      dup1\n      revert\n        /* \"contracts/Lock.sol\":390:985  function addElectionWithCandidates(string memory _electionName, string[] memory _candidates) public {... */\n    tag_3:\n      tag_8\n      0x04\n      dup1\n      calldatasize\n      sub\n      dup2\n      add\n      swap1\n      tag_9\n      swap2\n      swap1\n      tag_10\n      jump\t// in\n    tag_9:\n      tag_11\n      jump\t// in\n    tag_8:\n      stop\n        /* \"contracts/Lock.sol\":2270:2978  function getElectionResult(string memory _electionName) public view returns (string memory, string[] memory, uint256[] memory) {... */\n    tag_4:\n      tag_12\n      0x04\n      dup1\n      calldatasize\n      sub\n      dup2\n      add\n      swap1\n      tag_13\n      swap2\n      swap1\n      tag_14\n      jump\t// in\n    tag_13:\n      tag_15\n      jump\t// in\n    tag_12:\n      mload(0x40)\n      tag_16\n      swap4\n      swap3\n      swap2\n      swap1\n      tag_17\n      jump\t// in\n    tag_16:\n      mload(0x40)\n      dup1\n      swap2\n      sub\n      swap1\n      return\n        /* \"contracts/Lock.sol\":1922:2264  function getCandidateNames(string memory _electionName) public view returns (string[] memory) {... */\n    tag_5:\n      tag_18\n      0x04\n      dup1\n      calldatasize\n      sub\n      dup2\n      add\n      swap1\n      tag_19\n      swap2\n      swap1\n      tag_14\n      jump\t// in\n    tag_19:\n      tag_20\n      jump\t// in\n    tag_18:\n      mload(0x40)\n      tag_21\n      swap2\n      swap1\n      tag_22\n      jump\t// in\n    tag_21:\n      mload(0x40)\n      dup1\n      swap2\n      sub\n      swap1\n      return\n        /* \"contracts/Lock.sol\":1536:1916  function getCandidateVotes(string memory _electionName, string memory _candidateName) public view returns (uint256) {... */\n    tag_6:\n      tag_23\n      0x04\n      dup1\n      calldatasize\n      sub\n      dup2\n      add\n      swap1\n      tag_24\n      swap2\n      swap1\n      tag_25\n      jump\t// in\n    tag_24:\n      tag_26\n      jump\t// in\n    tag_23:\n      mload(0x40)\n      tag_27\n      swap2\n      swap1\n      tag_28\n      jump\t// in\n    tag_27:\n      mload(0x40)\n      dup1\n      swap2\n      sub\n      swap1\n      return\n        /* \"contracts/Lock.sol\":991:1530  function vote(string memory _electionName, string memory _candidateName) public {... */\n    tag_7:\n      tag_29\n      0x04\n      dup1\n      calldatasize\n      sub\n      dup2\n      add\n      swap1\n      tag_30\n      swap2\n      swap1\n      tag_25\n      jump\t// in\n    tag_30:\n      tag_31\n      jump\t// in\n    tag_29:\n      stop\n        /* \"contracts/Lock.sol\":390:985  function addElectionWithCandidates(string memory _electionName, string[] memory _candidates) public {... */\n    tag_11:\n        /* \"contracts/Lock.sol\":538:539  0 */\n      0x00\n        /* \"contracts/Lock.sol\":514:527  _electionName */\n      dup3\n        /* \"contracts/Lock.sol\":508:535  bytes(_electionName).length */\n      mload\n        /* \"contracts/Lock.sol\":508:539  bytes(_electionName).length > 0 */\n      gt\n        /* \"contracts/Lock.sol\":500:573  require(bytes(_electionName).length > 0, \"Election name cannot be empty\") */\n      tag_33\n      jumpi\n      mload(0x40)\n      0x08c379a000000000000000000000000000000000000000000000000000000000\n      dup2\n      mstore\n      0x04\n      add\n      tag_34\n      swap1\n      tag_35\n      jump\t// in\n    tag_34:\n      mload(0x40)\n      dup1\n      swap2\n      sub\n      swap1\n      revert\n    tag_33:\n        /* \"contracts/Lock.sol\":646:647  0 */\n      0x00\n        /* \"contracts/Lock.sol\":597:606  elections */\n      dup1\n        /* \"contracts/Lock.sol\":607:620  _electionName */\n      dup4\n        /* \"contracts/Lock.sol\":597:621  elections[_electionName] */\n      mload(0x40)\n      tag_36\n      swap2\n      swap1\n      tag_37\n      jump\t// in\n    tag_36:\n      swap1\n      dup2\n      mstore\n      0x20\n      add\n      mload(0x40)\n      dup1\n      swap2\n      sub\n      swap1\n      keccak256\n        /* \"contracts/Lock.sol\":597:634  elections[_electionName].electionName */\n      0x00\n      add\n        /* \"contracts/Lock.sol\":591:642  bytes(elections[_electionName].electionName).length */\n      dup1\n      sload\n      tag_38\n      swap1\n      tag_39\n      jump\t// in\n    tag_38:\n      swap1\n      pop\n        /* \"contracts/Lock.sol\":591:647  bytes(elections[_electionName].electionName).length == 0 */\n      eq\n        /* \"contracts/Lock.sol\":583:675  require(bytes(elections[_electionName].electionName).length == 0, \"Election already exists\") */\n      tag_40\n      jumpi\n      mload(0x40)\n      0x08c379a000000000000000000000000000000000000000000000000000000000\n      dup2\n      mstore\n      0x04\n      add\n      tag_41\n      swap1\n      tag_42\n      jump\t// in\n    tag_41:\n      mload(0x40)\n      dup1\n      swap2\n      sub\n      swap1\n      revert\n    tag_40:\n        /* \"contracts/Lock.sol\":726:739  _electionName */\n      dup2\n        /* \"contracts/Lock.sol\":686:695  elections */\n      0x00\n        /* \"contracts/Lock.sol\":696:709  _electionName */\n      dup4\n        /* \"contracts/Lock.sol\":686:710  elections[_electionName] */\n      mload(0x40)\n      tag_43\n      swap2\n      swap1\n      tag_37\n      jump\t// in\n    tag_43:\n      swap1\n      dup2\n      mstore\n      0x20\n      add\n      mload(0x40)\n      dup1\n      swap2\n      sub\n      swap1\n      keccak256\n        /* \"contracts/Lock.sol\":686:723  elections[_electionName].electionName */\n      0x00\n      add\n        /* \"contracts/Lock.sol\":686:739  elections[_electionName].electionName = _electionName */\n      swap1\n      dup2\n      tag_44\n      swap2\n      swap1\n      tag_45\n      jump\t// in\n    tag_44:\n      pop\n        /* \"contracts/Lock.sol\":755:764  uint256 i */\n      0x00\n        /* \"contracts/Lock.sol\":750:979  for (uint256 i = 0; i < _candidates.length; i++) {... */\n    tag_46:\n        /* \"contracts/Lock.sol\":774:785  _candidates */\n      dup2\n        /* \"contracts/Lock.sol\":774:792  _candidates.length */\n      mload\n        /* \"contracts/Lock.sol\":770:771  i */\n      dup2\n        /* \"contracts/Lock.sol\":770:792  i < _candidates.length */\n      lt\n        /* \"contracts/Lock.sol\":750:979  for (uint256 i = 0; i < _candidates.length; i++) {... */\n      iszero\n      tag_47\n      jumpi\n        /* \"contracts/Lock.sol\":871:872  0 */\n      0x00\n        /* \"contracts/Lock.sol\":813:822  elections */\n      dup1\n        /* \"contracts/Lock.sol\":823:836  _electionName */\n      dup5\n        /* \"contracts/Lock.sol\":813:837  elections[_electionName] */\n      mload(0x40)\n      tag_49\n      swap2\n      swap1\n      tag_37\n      jump\t// in\n    tag_49:\n      swap1\n      dup2\n      mstore\n      0x20\n      add\n      mload(0x40)\n      dup1\n      swap2\n      sub\n      swap1\n      keccak256\n        /* \"contracts/Lock.sol\":813:852  elections[_electionName].candidateVotes */\n      0x02\n      add\n        /* \"contracts/Lock.sol\":853:864  _candidates */\n      dup4\n        /* \"contracts/Lock.sol\":865:866  i */\n      dup4\n        /* \"contracts/Lock.sol\":853:867  _candidates[i] */\n      dup2\n      mload\n      dup2\n      lt\n      tag_50\n      jumpi\n      tag_51\n      tag_52\n      jump\t// in\n    tag_51:\n    tag_50:\n      0x20\n      mul\n      0x20\n      add\n      add\n      mload\n        /* \"contracts/Lock.sol\":813:868  elections[_electionName].candidateVotes[_candidates[i]] */\n      mload(0x40)\n      tag_53\n      swap2\n      swap1\n      tag_37\n      jump\t// in\n    tag_53:\n      swap1\n      dup2\n      mstore\n      0x20\n      add\n      mload(0x40)\n      dup1\n      swap2\n      sub\n      swap1\n      keccak256\n        /* \"contracts/Lock.sol\":813:872  elections[_electionName].candidateVotes[_candidates[i]] = 0 */\n      dup2\n      swap1\n      sstore\n      pop\n        /* \"contracts/Lock.sol\":886:895  elections */\n      0x00\n        /* \"contracts/Lock.sol\":896:909  _electionName */\n      dup4\n        /* \"contracts/Lock.sol\":886:910  elections[_electionName] */\n      mload(0x40)\n      tag_54\n      swap2\n      swap1\n      tag_37\n      jump\t// in\n    tag_54:\n      swap1\n      dup2\n      mstore\n      0x20\n      add\n      mload(0x40)\n      dup1\n      swap2\n      sub\n      swap1\n      keccak256\n        /* \"contracts/Lock.sol\":886:925  elections[_electionName].candidateNames */\n      0x01\n      add\n        /* \"contracts/Lock.sol\":931:942  _candidates */\n      dup3\n        /* \"contracts/Lock.sol\":943:944  i */\n      dup3\n        /* \"contracts/Lock.sol\":931:945  _candidates[i] */\n      dup2\n      mload\n      dup2\n      lt\n      tag_55\n      jumpi\n      tag_56\n      tag_52\n      jump\t// in\n    tag_56:\n    tag_55:\n      0x20\n      mul\n      0x20\n      add\n      add\n      mload\n        /* \"contracts/Lock.sol\":886:946  elections[_electionName].candidateNames.push(_candidates[i]) */\n      swap1\n      dup1\n      0x01\n      dup2\n      sload\n      add\n      dup1\n      dup3\n      sstore\n      dup1\n      swap2\n      pop\n      pop\n      0x01\n      swap1\n      sub\n      swap1\n      0x00\n      mstore\n      keccak256(0x00, 0x20)\n      add\n      0x00\n      swap1\n      swap2\n      swap1\n      swap2\n      swap1\n      swap2\n      pop\n      swap1\n      dup2\n      tag_58\n      swap2\n      swap1\n      tag_45\n      jump\t// in\n    tag_58:\n      pop\n        /* \"contracts/Lock.sol\":794:797  i++ */\n      dup1\n      dup1\n      0x01\n      add\n      swap2\n      pop\n      pop\n        /* \"contracts/Lock.sol\":750:979  for (uint256 i = 0; i < _candidates.length; i++) {... */\n      jump(tag_46)\n    tag_47:\n      pop\n        /* \"contracts/Lock.sol\":390:985  function addElectionWithCandidates(string memory _electionName, string[] memory _candidates) public {... */\n      pop\n      pop\n      jump\t// out\n        /* \"contracts/Lock.sol\":2270:2978  function getElectionResult(string memory _electionName) public view returns (string memory, string[] memory, uint256[] memory) {... */\n    tag_15:\n        /* \"contracts/Lock.sol\":2347:2360  string memory */\n      0x60\n        /* \"contracts/Lock.sol\":2362:2377  string[] memory */\n      dup1\n        /* \"contracts/Lock.sol\":2379:2395  uint256[] memory */\n      0x60\n        /* \"contracts/Lock.sol\":2445:2446  0 */\n      0x00\n        /* \"contracts/Lock.sol\":2421:2434  _electionName */\n      dup5\n        /* \"contracts/Lock.sol\":2415:2442  bytes(_electionName).length */\n      mload\n        /* \"contracts/Lock.sol\":2415:2446  bytes(_electionName).length > 0 */\n      gt\n        /* \"contracts/Lock.sol\":2407:2480  require(bytes(_electionName).length > 0, \"Election name cannot be empty\") */\n      tag_60\n      jumpi\n      mload(0x40)\n      0x08c379a000000000000000000000000000000000000000000000000000000000\n      dup2\n      mstore\n      0x04\n      add\n      tag_61\n      swap1\n      tag_35\n      jump\t// in\n    tag_61:\n      mload(0x40)\n      dup1\n      swap2\n      sub\n      swap1\n      revert\n    tag_60:\n        /* \"contracts/Lock.sol\":2552:2553  0 */\n      0x00\n        /* \"contracts/Lock.sol\":2504:2513  elections */\n      dup1\n        /* \"contracts/Lock.sol\":2514:2527  _electionName */\n      dup6\n        /* \"contracts/Lock.sol\":2504:2528  elections[_electionName] */\n      mload(0x40)\n      tag_62\n      swap2\n      swap1\n      tag_37\n      jump\t// in\n    tag_62:\n      swap1\n      dup2\n      mstore\n      0x20\n      add\n      mload(0x40)\n      dup1\n      swap2\n      sub\n      swap1\n      keccak256\n        /* \"contracts/Lock.sol\":2504:2541  elections[_electionName].electionName */\n      0x00\n      add\n        /* \"contracts/Lock.sol\":2498:2549  bytes(elections[_electionName].electionName).length */\n      dup1\n      sload\n      tag_63\n      swap1\n      tag_39\n      jump\t// in\n    tag_63:\n      swap1\n      pop\n        /* \"contracts/Lock.sol\":2498:2553  bytes(elections[_electionName].electionName).length > 0 */\n      gt\n        /* \"contracts/Lock.sol\":2490:2581  require(bytes(elections[_electionName].electionName).length > 0, \"Election does not exist\") */\n      tag_64\n      jumpi\n      mload(0x40)\n      0x08c379a000000000000000000000000000000000000000000000000000000000\n      dup2\n      mstore\n      0x04\n      add\n      tag_65\n      swap1\n      tag_66\n      jump\t// in\n    tag_65:\n      mload(0x40)\n      dup1\n      swap2\n      sub\n      swap1\n      revert\n    tag_64:\n        /* \"contracts/Lock.sol\":2592:2624  ElectionDetails storage election */\n      0x00\n        /* \"contracts/Lock.sol\":2627:2636  elections */\n      dup1\n        /* \"contracts/Lock.sol\":2637:2650  _electionName */\n      dup6\n        /* \"contracts/Lock.sol\":2627:2651  elections[_electionName] */\n      mload(0x40)\n      tag_67\n      swap2\n      swap1\n      tag_37\n      jump\t// in\n    tag_67:\n      swap1\n      dup2\n      mstore\n      0x20\n      add\n      mload(0x40)\n      dup1\n      swap2\n      sub\n      swap1\n      keccak256\n        /* \"contracts/Lock.sol\":2592:2651  ElectionDetails storage election = elections[_electionName] */\n      swap1\n      pop\n        /* \"contracts/Lock.sol\":2661:2675  uint256 length */\n      0x00\n        /* \"contracts/Lock.sol\":2678:2686  election */\n      dup2\n        /* \"contracts/Lock.sol\":2678:2701  election.candidateNames */\n      0x01\n      add\n        /* \"contracts/Lock.sol\":2678:2708  election.candidateNames.length */\n      dup1\n      sload\n      swap1\n      pop\n        /* \"contracts/Lock.sol\":2661:2708  uint256 length = election.candidateNames.length */\n      swap1\n      pop\n        /* \"contracts/Lock.sol\":2718:2740  uint256[] memory votes */\n      0x00\n        /* \"contracts/Lock.sol\":2757:2763  length */\n      dup2\n        /* \"contracts/Lock.sol\":2743:2764  new uint256[](length) */\n      0xffffffffffffffff\n      dup2\n      gt\n      iszero\n      tag_68\n      jumpi\n      tag_69\n      tag_70\n      jump\t// in\n    tag_69:\n    tag_68:\n      mload(0x40)\n      swap1\n      dup1\n      dup3\n      mstore\n      dup1\n      0x20\n      mul\n      0x20\n      add\n      dup3\n      add\n      0x40\n      mstore\n      dup1\n      iszero\n      tag_71\n      jumpi\n      dup2\n      0x20\n      add\n      0x20\n      dup3\n      mul\n      dup1\n      calldatasize\n      dup4\n      calldatacopy\n      dup1\n      dup3\n      add\n      swap2\n      pop\n      pop\n      swap1\n      pop\n    tag_71:\n      pop\n        /* \"contracts/Lock.sol\":2718:2764  uint256[] memory votes = new uint256[](length) */\n      swap1\n      pop\n        /* \"contracts/Lock.sol\":2780:2789  uint256 i */\n      0x00\n        /* \"contracts/Lock.sol\":2775:2899  for (uint256 i = 0; i < length; i++) {... */\n    tag_72:\n        /* \"contracts/Lock.sol\":2799:2805  length */\n      dup3\n        /* \"contracts/Lock.sol\":2795:2796  i */\n      dup2\n        /* \"contracts/Lock.sol\":2795:2805  i < length */\n      lt\n        /* \"contracts/Lock.sol\":2775:2899  for (uint256 i = 0; i < length; i++) {... */\n      iszero\n      tag_73\n      jumpi\n        /* \"contracts/Lock.sol\":2837:2845  election */\n      dup4\n        /* \"contracts/Lock.sol\":2837:2860  election.candidateVotes */\n      0x02\n      add\n        /* \"contracts/Lock.sol\":2861:2869  election */\n      dup5\n        /* \"contracts/Lock.sol\":2861:2884  election.candidateNames */\n      0x01\n      add\n        /* \"contracts/Lock.sol\":2885:2886  i */\n      dup3\n        /* \"contracts/Lock.sol\":2861:2887  election.candidateNames[i] */\n      dup2\n      sload\n      dup2\n      lt\n      tag_75\n      jumpi\n      tag_76\n      tag_52\n      jump\t// in\n    tag_76:\n    tag_75:\n      swap1\n      0x00\n      mstore\n      keccak256(0x00, 0x20)\n      add\n        /* \"contracts/Lock.sol\":2837:2888  election.candidateVotes[election.candidateNames[i]] */\n      mload(0x40)\n      tag_78\n      swap2\n      swap1\n      tag_79\n      jump\t// in\n    tag_78:\n      swap1\n      dup2\n      mstore\n      0x20\n      add\n      mload(0x40)\n      dup1\n      swap2\n      sub\n      swap1\n      keccak256\n      sload\n        /* \"contracts/Lock.sol\":2826:2831  votes */\n      dup3\n        /* \"contracts/Lock.sol\":2832:2833  i */\n      dup3\n        /* \"contracts/Lock.sol\":2826:2834  votes[i] */\n      dup2\n      mload\n      dup2\n      lt\n      tag_80\n      jumpi\n      tag_81\n      tag_52\n      jump\t// in\n    tag_81:\n    tag_80:\n      0x20\n      mul\n      0x20\n      add\n      add\n        /* \"contracts/Lock.sol\":2826:2888  votes[i] = election.candidateVotes[election.candidateNames[i]] */\n      dup2\n      dup2\n      mstore\n      pop\n      pop\n        /* \"contracts/Lock.sol\":2807:2810  i++ */\n      dup1\n      dup1\n      0x01\n      add\n      swap2\n      pop\n      pop\n        /* \"contracts/Lock.sol\":2775:2899  for (uint256 i = 0; i < length; i++) {... */\n      jump(tag_72)\n    tag_73:\n      pop\n        /* \"contracts/Lock.sol\":2917:2925  election */\n      dup3\n        /* \"contracts/Lock.sol\":2917:2938  election.electionName */\n      0x00\n      add\n        /* \"contracts/Lock.sol\":2940:2948  election */\n      dup4\n        /* \"contracts/Lock.sol\":2940:2963  election.candidateNames */\n      0x01\n      add\n        /* \"contracts/Lock.sol\":2965:2970  votes */\n      dup3\n        /* \"contracts/Lock.sol\":2909:2971  return (election.electionName, election.candidateNames, votes) */\n      dup3\n      dup1\n      sload\n      tag_82\n      swap1\n      tag_39\n      jump\t// in\n    tag_82:\n      dup1\n      0x1f\n      add\n      0x20\n      dup1\n      swap2\n      div\n      mul\n      0x20\n      add\n      mload(0x40)\n      swap1\n      dup2\n      add\n      0x40\n      mstore\n      dup1\n      swap3\n      swap2\n      swap1\n      dup2\n      dup2\n      mstore\n      0x20\n      add\n      dup3\n      dup1\n      sload\n      tag_83\n      swap1\n      tag_39\n      jump\t// in\n    tag_83:\n      dup1\n      iszero\n      tag_84\n      jumpi\n      dup1\n      0x1f\n      lt\n      tag_85\n      jumpi\n      0x0100\n      dup1\n      dup4\n      sload\n      div\n      mul\n      dup4\n      mstore\n      swap2\n      0x20\n      add\n      swap2\n      jump(tag_84)\n    tag_85:\n      dup3\n      add\n      swap2\n      swap1\n      0x00\n      mstore\n      keccak256(0x00, 0x20)\n      swap1\n    tag_86:\n      dup2\n      sload\n      dup2\n      mstore\n      swap1\n      0x01\n      add\n      swap1\n      0x20\n      add\n      dup1\n      dup4\n      gt\n      tag_86\n      jumpi\n      dup3\n      swap1\n      sub\n      0x1f\n      and\n      dup3\n      add\n      swap2\n    tag_84:\n      pop\n      pop\n      pop\n      pop\n      pop\n      swap3\n      pop\n      dup2\n      dup1\n      sload\n      dup1\n      0x20\n      mul\n      0x20\n      add\n      mload(0x40)\n      swap1\n      dup2\n      add\n      0x40\n      mstore\n      dup1\n      swap3\n      swap2\n      swap1\n      dup2\n      dup2\n      mstore\n      0x20\n      add\n      0x00\n      swap1\n    tag_87:\n      dup3\n      dup3\n      lt\n      iszero\n      tag_88\n      jumpi\n      dup4\n      dup3\n      swap1\n      0x00\n      mstore\n      keccak256(0x00, 0x20)\n      add\n      dup1\n      sload\n      tag_90\n      swap1\n      tag_39\n      jump\t// in\n    tag_90:\n      dup1\n      0x1f\n      add\n      0x20\n      dup1\n      swap2\n      div\n      mul\n      0x20\n      add\n      mload(0x40)\n      swap1\n      dup2\n      add\n      0x40\n      mstore\n      dup1\n      swap3\n      swap2\n      swap1\n      dup2\n      dup2\n      mstore\n      0x20\n      add\n      dup3\n      dup1\n      sload\n      tag_91\n      swap1\n      tag_39\n      jump\t// in\n    tag_91:\n      dup1\n      iszero\n      tag_92\n      jumpi\n      dup1\n      0x1f\n      lt\n      tag_93\n      jumpi\n      0x0100\n      dup1\n      dup4\n      sload\n      div\n      mul\n      dup4\n      mstore\n      swap2\n      0x20\n      add\n      swap2\n      jump(tag_92)\n    tag_93:\n      dup3\n      add\n      swap2\n      swap1\n      0x00\n      mstore\n      keccak256(0x00, 0x20)\n      swap1\n    tag_94:\n      dup2\n      sload\n      dup2\n      mstore\n      swap1\n      0x01\n      add\n      swap1\n      0x20\n      add\n      dup1\n      dup4\n      gt\n      tag_94\n      jumpi\n      dup3\n      swap1\n      sub\n      0x1f\n      and\n      dup3\n      add\n      swap2\n    tag_92:\n      pop\n      pop\n      pop\n      pop\n      pop\n      dup2\n      mstore\n      0x20\n      add\n      swap1\n      0x01\n      add\n      swap1\n      jump(tag_87)\n    tag_88:\n      pop\n      pop\n      pop\n      pop\n      swap2\n      pop\n      swap6\n      pop\n      swap6\n      pop\n      swap6\n      pop\n      pop\n      pop\n      pop\n        /* \"contracts/Lock.sol\":2270:2978  function getElectionResult(string memory _electionName) public view returns (string memory, string[] memory, uint256[] memory) {... */\n      swap2\n      swap4\n      swap1\n      swap3\n      pop\n      jump\t// out\n        /* \"contracts/Lock.sol\":1922:2264  function getCandidateNames(string memory _electionName) public view returns (string[] memory) {... */\n    tag_20:\n        /* \"contracts/Lock.sol\":1999:2014  string[] memory */\n      0x60\n        /* \"contracts/Lock.sol\":2064:2065  0 */\n      0x00\n        /* \"contracts/Lock.sol\":2040:2053  _electionName */\n      dup3\n        /* \"contracts/Lock.sol\":2034:2061  bytes(_electionName).length */\n      mload\n        /* \"contracts/Lock.sol\":2034:2065  bytes(_electionName).length > 0 */\n      gt\n        /* \"contracts/Lock.sol\":2026:2099  require(bytes(_electionName).length > 0, \"Election name cannot be empty\") */\n      tag_96\n      jumpi\n      mload(0x40)\n      0x08c379a000000000000000000000000000000000000000000000000000000000\n      dup2\n      mstore\n      0x04\n      add\n      tag_97\n      swap1\n      tag_35\n      jump\t// in\n    tag_97:\n      mload(0x40)\n      dup1\n      swap2\n      sub\n      swap1\n      revert\n    tag_96:\n        /* \"contracts/Lock.sol\":2171:2172  0 */\n      0x00\n        /* \"contracts/Lock.sol\":2123:2132  elections */\n      dup1\n        /* \"contracts/Lock.sol\":2133:2146  _electionName */\n      dup4\n        /* \"contracts/Lock.sol\":2123:2147  elections[_electionName] */\n      mload(0x40)\n      tag_98\n      swap2\n      swap1\n      tag_37\n      jump\t// in\n    tag_98:\n      swap1\n      dup2\n      mstore\n      0x20\n      add\n      mload(0x40)\n      dup1\n      swap2\n      sub\n      swap1\n      keccak256\n        /* \"contracts/Lock.sol\":2123:2160  elections[_electionName].electionName */\n      0x00\n      add\n        /* \"contracts/Lock.sol\":2117:2168  bytes(elections[_electionName].electionName).length */\n      dup1\n      sload\n      tag_99\n      swap1\n      tag_39\n      jump\t// in\n    tag_99:\n      swap1\n      pop\n        /* \"contracts/Lock.sol\":2117:2172  bytes(elections[_electionName].electionName).length > 0 */\n      gt\n        /* \"contracts/Lock.sol\":2109:2200  require(bytes(elections[_electionName].electionName).length > 0, \"Election does not exist\") */\n      tag_100\n      jumpi\n      mload(0x40)\n      0x08c379a000000000000000000000000000000000000000000000000000000000\n      dup2\n      mstore\n      0x04\n      add\n      tag_101\n      swap1\n      tag_66\n      jump\t// in\n    tag_101:\n      mload(0x40)\n      dup1\n      swap2\n      sub\n      swap1\n      revert\n    tag_100:\n        /* \"contracts/Lock.sol\":2218:2227  elections */\n      0x00\n        /* \"contracts/Lock.sol\":2228:2241  _electionName */\n      dup3\n        /* \"contracts/Lock.sol\":2218:2242  elections[_electionName] */\n      mload(0x40)\n      tag_102\n      swap2\n      swap1\n      tag_37\n      jump\t// in\n    tag_102:\n      swap1\n      dup2\n      mstore\n      0x20\n      add\n      mload(0x40)\n      dup1\n      swap2\n      sub\n      swap1\n      keccak256\n        /* \"contracts/Lock.sol\":2218:2257  elections[_electionName].candidateNames */\n      0x01\n      add\n        /* \"contracts/Lock.sol\":2211:2257  return elections[_electionName].candidateNames */\n      dup1\n      sload\n      dup1\n      0x20\n      mul\n      0x20\n      add\n      mload(0x40)\n      swap1\n      dup2\n      add\n      0x40\n      mstore\n      dup1\n      swap3\n      swap2\n      swap1\n      dup2\n      dup2\n      mstore\n      0x20\n      add\n      0x00\n      swap1\n    tag_103:\n      dup3\n      dup3\n      lt\n      iszero\n      tag_104\n      jumpi\n      dup4\n      dup3\n      swap1\n      0x00\n      mstore\n      keccak256(0x00, 0x20)\n      add\n      dup1\n      sload\n      tag_106\n      swap1\n      tag_39\n      jump\t// in\n    tag_106:\n      dup1\n      0x1f\n      add\n      0x20\n      dup1\n      swap2\n      div\n      mul\n      0x20\n      add\n      mload(0x40)\n      swap1\n      dup2\n      add\n      0x40\n      mstore\n      dup1\n      swap3\n      swap2\n      swap1\n      dup2\n      dup2\n      mstore\n      0x20\n      add\n      dup3\n      dup1\n      sload\n      tag_107\n      swap1\n      tag_39\n      jump\t// in\n    tag_107:\n      dup1\n      iszero\n      tag_108\n      jumpi\n      dup1\n      0x1f\n      lt\n      tag_109\n      jumpi\n      0x0100\n      dup1\n      dup4\n      sload\n      div\n      mul\n      dup4\n      mstore\n      swap2\n      0x20\n      add\n      swap2\n      jump(tag_108)\n    tag_109:\n      dup3\n      add\n      swap2\n      swap1\n      0x00\n      mstore\n      keccak256(0x00, 0x20)\n      swap1\n    tag_110:\n      dup2\n      sload\n      dup2\n      mstore\n      swap1\n      0x01\n      add\n      swap1\n      0x20\n      add\n      dup1\n      dup4\n      gt\n      tag_110\n      jumpi\n      dup3\n      swap1\n      sub\n      0x1f\n      and\n      dup3\n      add\n      swap2\n    tag_108:\n      pop\n      pop\n      pop\n      pop\n      pop\n      dup2\n      mstore\n      0x20\n      add\n      swap1\n      0x01\n      add\n      swap1\n      jump(tag_103)\n    tag_104:\n      pop\n      pop\n      pop\n      pop\n      swap1\n      pop\n        /* \"contracts/Lock.sol\":1922:2264  function getCandidateNames(string memory _electionName) public view returns (string[] memory) {... */\n      swap2\n      swap1\n      pop\n      jump\t// out\n        /* \"contracts/Lock.sol\":1536:1916  function getCandidateVotes(string memory _electionName, string memory _candidateName) public view returns (uint256) {... */\n    tag_26:\n        /* \"contracts/Lock.sol\":1643:1650  uint256 */\n      0x00\n        /* \"contracts/Lock.sol\":1700:1701  0 */\n      dup1\n        /* \"contracts/Lock.sol\":1676:1689  _electionName */\n      dup4\n        /* \"contracts/Lock.sol\":1670:1697  bytes(_electionName).length */\n      mload\n        /* \"contracts/Lock.sol\":1670:1701  bytes(_electionName).length > 0 */\n      gt\n        /* \"contracts/Lock.sol\":1662:1735  require(bytes(_electionName).length > 0, \"Election name cannot be empty\") */\n      tag_112\n      jumpi\n      mload(0x40)\n      0x08c379a000000000000000000000000000000000000000000000000000000000\n      dup2\n      mstore\n      0x04\n      add\n      tag_113\n      swap1\n      tag_35\n      jump\t// in\n    tag_113:\n      mload(0x40)\n      dup1\n      swap2\n      sub\n      swap1\n      revert\n    tag_112:\n        /* \"contracts/Lock.sol\":1807:1808  0 */\n      0x00\n        /* \"contracts/Lock.sol\":1759:1768  elections */\n      dup1\n        /* \"contracts/Lock.sol\":1769:1782  _electionName */\n      dup5\n        /* \"contracts/Lock.sol\":1759:1783  elections[_electionName] */\n      mload(0x40)\n      tag_114\n      swap2\n      swap1\n      tag_37\n      jump\t// in\n    tag_114:\n      swap1\n      dup2\n      mstore\n      0x20\n      add\n      mload(0x40)\n      dup1\n      swap2\n      sub\n      swap1\n      keccak256\n        /* \"contracts/Lock.sol\":1759:1796  elections[_electionName].electionName */\n      0x00\n      add\n        /* \"contracts/Lock.sol\":1753:1804  bytes(elections[_electionName].electionName).length */\n      dup1\n      sload\n      tag_115\n      swap1\n      tag_39\n      jump\t// in\n    tag_115:\n      swap1\n      pop\n        /* \"contracts/Lock.sol\":1753:1808  bytes(elections[_electionName].electionName).length > 0 */\n      gt\n        /* \"contracts/Lock.sol\":1745:1836  require(bytes(elections[_electionName].electionName).length > 0, \"Election does not exist\") */\n      tag_116\n      jumpi\n      mload(0x40)\n      0x08c379a000000000000000000000000000000000000000000000000000000000\n      dup2\n      mstore\n      0x04\n      add\n      tag_117\n      swap1\n      tag_66\n      jump\t// in\n    tag_117:\n      mload(0x40)\n      dup1\n      swap2\n      sub\n      swap1\n      revert\n    tag_116:\n        /* \"contracts/Lock.sol\":1854:1863  elections */\n      0x00\n        /* \"contracts/Lock.sol\":1864:1877  _electionName */\n      dup4\n        /* \"contracts/Lock.sol\":1854:1878  elections[_electionName] */\n      mload(0x40)\n      tag_118\n      swap2\n      swap1\n      tag_37\n      jump\t// in\n    tag_118:\n      swap1\n      dup2\n      mstore\n      0x20\n      add\n      mload(0x40)\n      dup1\n      swap2\n      sub\n      swap1\n      keccak256\n        /* \"contracts/Lock.sol\":1854:1893  elections[_electionName].candidateVotes */\n      0x02\n      add\n        /* \"contracts/Lock.sol\":1894:1908  _candidateName */\n      dup3\n        /* \"contracts/Lock.sol\":1854:1909  elections[_electionName].candidateVotes[_candidateName] */\n      mload(0x40)\n      tag_119\n      swap2\n      swap1\n      tag_37\n      jump\t// in\n    tag_119:\n      swap1\n      dup2\n      mstore\n      0x20\n      add\n      mload(0x40)\n      dup1\n      swap2\n      sub\n      swap1\n      keccak256\n      sload\n        /* \"contracts/Lock.sol\":1847:1909  return elections[_electionName].candidateVotes[_candidateName] */\n      swap1\n      pop\n        /* \"contracts/Lock.sol\":1536:1916  function getCandidateVotes(string memory _electionName, string memory _candidateName) public view returns (uint256) {... */\n      swap3\n      swap2\n      pop\n      pop\n      jump\t// out\n        /* \"contracts/Lock.sol\":991:1530  function vote(string memory _electionName, string memory _candidateName) public {... */\n    tag_31:\n        /* \"contracts/Lock.sol\":1119:1120  0 */\n      0x00\n        /* \"contracts/Lock.sol\":1095:1108  _electionName */\n      dup3\n        /* \"contracts/Lock.sol\":1089:1116  bytes(_electionName).length */\n      mload\n        /* \"contracts/Lock.sol\":1089:1120  bytes(_electionName).length > 0 */\n      gt\n        /* \"contracts/Lock.sol\":1081:1154  require(bytes(_electionName).length > 0, \"Election name cannot be empty\") */\n      tag_121\n      jumpi\n      mload(0x40)\n      0x08c379a000000000000000000000000000000000000000000000000000000000\n      dup2\n      mstore\n      0x04\n      add\n      tag_122\n      swap1\n      tag_35\n      jump\t// in\n    tag_122:\n      mload(0x40)\n      dup1\n      swap2\n      sub\n      swap1\n      revert\n    tag_121:\n        /* \"contracts/Lock.sol\":1226:1227  0 */\n      0x00\n        /* \"contracts/Lock.sol\":1178:1187  elections */\n      dup1\n        /* \"contracts/Lock.sol\":1188:1201  _electionName */\n      dup4\n        /* \"contracts/Lock.sol\":1178:1202  elections[_electionName] */\n      mload(0x40)\n      tag_123\n      swap2\n      swap1\n      tag_37\n      jump\t// in\n    tag_123:\n      swap1\n      dup2\n      mstore\n      0x20\n      add\n      mload(0x40)\n      dup1\n      swap2\n      sub\n      swap1\n      keccak256\n        /* \"contracts/Lock.sol\":1178:1215  elections[_electionName].electionName */\n      0x00\n      add\n        /* \"contracts/Lock.sol\":1172:1223  bytes(elections[_electionName].electionName).length */\n      dup1\n      sload\n      tag_124\n      swap1\n      tag_39\n      jump\t// in\n    tag_124:\n      swap1\n      pop\n        /* \"contracts/Lock.sol\":1172:1227  bytes(elections[_electionName].electionName).length > 0 */\n      gt\n        /* \"contracts/Lock.sol\":1164:1255  require(bytes(elections[_electionName].electionName).length > 0, \"Election does not exist\") */\n      tag_125\n      jumpi\n      mload(0x40)\n      0x08c379a000000000000000000000000000000000000000000000000000000000\n      dup2\n      mstore\n      0x04\n      add\n      tag_126\n      swap1\n      tag_66\n      jump\t// in\n    tag_126:\n      mload(0x40)\n      dup1\n      swap2\n      sub\n      swap1\n      revert\n    tag_125:\n        /* \"contracts/Lock.sol\":1411:1420  elections */\n      0x00\n        /* \"contracts/Lock.sol\":1421:1434  _electionName */\n      dup3\n        /* \"contracts/Lock.sol\":1411:1435  elections[_electionName] */\n      mload(0x40)\n      tag_127\n      swap2\n      swap1\n      tag_37\n      jump\t// in\n    tag_127:\n      swap1\n      dup2\n      mstore\n      0x20\n      add\n      mload(0x40)\n      dup1\n      swap2\n      sub\n      swap1\n      keccak256\n        /* \"contracts/Lock.sol\":1411:1450  elections[_electionName].candidateVotes */\n      0x02\n      add\n        /* \"contracts/Lock.sol\":1451:1465  _candidateName */\n      dup2\n        /* \"contracts/Lock.sol\":1411:1466  elections[_electionName].candidateVotes[_candidateName] */\n      mload(0x40)\n      tag_128\n      swap2\n      swap1\n      tag_37\n      jump\t// in\n    tag_128:\n      swap1\n      dup2\n      mstore\n      0x20\n      add\n      mload(0x40)\n      dup1\n      swap2\n      sub\n      swap1\n      keccak256\n      0x00\n        /* \"contracts/Lock.sol\":1411:1468  elections[_electionName].candidateVotes[_candidateName]++ */\n      dup2\n      sload\n      dup1\n      swap3\n      swap2\n      swap1\n      tag_129\n      swap1\n      tag_130\n      jump\t// in\n    tag_129:\n      swap2\n      swap1\n      pop\n      sstore\n      pop\n        /* \"contracts/Lock.sol\":1484:1523  VoteCast(_electionName, _candidateName) */\n      0x137ad23732468494166ec34d1367743690ffa17f6ceac8429cba8fc35d088b6e\n        /* \"contracts/Lock.sol\":1493:1506  _electionName */\n      dup3\n        /* \"contracts/Lock.sol\":1508:1522  _candidateName */\n      dup3\n        /* \"contracts/Lock.sol\":1484:1523  VoteCast(_electionName, _candidateName) */\n      mload(0x40)\n      tag_131\n      swap3\n      swap2\n      swap1\n      tag_132\n      jump\t// in\n    tag_131:\n      mload(0x40)\n      dup1\n      swap2\n      sub\n      swap1\n      log1\n        /* \"contracts/Lock.sol\":991:1530  function vote(string memory _electionName, string memory _candidateName) public {... */\n      pop\n      pop\n      jump\t// out\n        /* \"#utility.yul\":7:82   */\n    tag_133:\n        /* \"#utility.yul\":40:46   */\n      0x00\n        /* \"#utility.yul\":73:75   */\n      0x40\n        /* \"#utility.yul\":67:76   */\n      mload\n        /* \"#utility.yul\":57:76   */\n      swap1\n      pop\n        /* \"#utility.yul\":7:82   */\n      swap1\n      jump\t// out\n        /* \"#utility.yul\":88:205   */\n    tag_134:\n        /* \"#utility.yul\":197:198   */\n      0x00\n        /* \"#utility.yul\":194:195   */\n      dup1\n        /* \"#utility.yul\":187:199   */\n      revert\n        /* \"#utility.yul\":211:328   */\n    tag_135:\n        /* \"#utility.yul\":320:321   */\n      0x00\n        /* \"#utility.yul\":317:318   */\n      dup1\n        /* \"#utility.yul\":310:322   */\n      revert\n        /* \"#utility.yul\":334:451   */\n    tag_136:\n        /* \"#utility.yul\":443:444   */\n      0x00\n        /* \"#utility.yul\":440:441   */\n      dup1\n        /* \"#utility.yul\":433:445   */\n      revert\n        /* \"#utility.yul\":457:574   */\n    tag_137:\n        /* \"#utility.yul\":566:567   */\n      0x00\n        /* \"#utility.yul\":563:564   */\n      dup1\n        /* \"#utility.yul\":556:568   */\n      revert\n        /* \"#utility.yul\":580:682   */\n    tag_138:\n        /* \"#utility.yul\":621:627   */\n      0x00\n        /* \"#utility.yul\":672:674   */\n      0x1f\n        /* \"#utility.yul\":668:675   */\n      not\n        /* \"#utility.yul\":663:665   */\n      0x1f\n        /* \"#utility.yul\":656:661   */\n      dup4\n        /* \"#utility.yul\":652:666   */\n      add\n        /* \"#utility.yul\":648:676   */\n      and\n        /* \"#utility.yul\":638:676   */\n      swap1\n      pop\n        /* \"#utility.yul\":580:682   */\n      swap2\n      swap1\n      pop\n      jump\t// out\n        /* \"#utility.yul\":688:868   */\n    tag_70:\n        /* \"#utility.yul\":736:813   */\n      0x4e487b7100000000000000000000000000000000000000000000000000000000\n        /* \"#utility.yul\":733:734   */\n      0x00\n        /* \"#utility.yul\":726:814   */\n      mstore\n        /* \"#utility.yul\":833:837   */\n      0x41\n        /* \"#utility.yul\":830:831   */\n      0x04\n        /* \"#utility.yul\":823:838   */\n      mstore\n        /* \"#utility.yul\":857:861   */\n      0x24\n        /* \"#utility.yul\":854:855   */\n      0x00\n        /* \"#utility.yul\":847:862   */\n      revert\n        /* \"#utility.yul\":874:1155   */\n    tag_139:\n        /* \"#utility.yul\":957:984   */\n      tag_205\n        /* \"#utility.yul\":979:983   */\n      dup3\n        /* \"#utility.yul\":957:984   */\n      tag_138\n      jump\t// in\n    tag_205:\n        /* \"#utility.yul\":949:955   */\n      dup2\n        /* \"#utility.yul\":945:985   */\n      add\n        /* \"#utility.yul\":1087:1093   */\n      dup2\n        /* \"#utility.yul\":1075:1085   */\n      dup2\n        /* \"#utility.yul\":1072:1094   */\n      lt\n        /* \"#utility.yul\":1051:1069   */\n      0xffffffffffffffff\n        /* \"#utility.yul\":1039:1049   */\n      dup3\n        /* \"#utility.yul\":1036:1070   */\n      gt\n        /* \"#utility.yul\":1033:1095   */\n      or\n        /* \"#utility.yul\":1030:1118   */\n      iszero\n      tag_206\n      jumpi\n        /* \"#utility.yul\":1098:1116   */\n      tag_207\n      tag_70\n      jump\t// in\n    tag_207:\n        /* \"#utility.yul\":1030:1118   */\n    tag_206:\n        /* \"#utility.yul\":1138:1148   */\n      dup1\n        /* \"#utility.yul\":1134:1136   */\n      0x40\n        /* \"#utility.yul\":1127:1149   */\n      mstore\n        /* \"#utility.yul\":917:1155   */\n      pop\n        /* \"#utility.yul\":874:1155   */\n      pop\n      pop\n      jump\t// out\n        /* \"#utility.yul\":1161:1290   */\n    tag_140:\n        /* \"#utility.yul\":1195:1201   */\n      0x00\n        /* \"#utility.yul\":1222:1242   */\n      tag_209\n      tag_133\n      jump\t// in\n    tag_209:\n        /* \"#utility.yul\":1212:1242   */\n      swap1\n      pop\n        /* \"#utility.yul\":1251:1284   */\n      tag_210\n        /* \"#utility.yul\":1279:1283   */\n      dup3\n        /* \"#utility.yul\":1271:1277   */\n      dup3\n        /* \"#utility.yul\":1251:1284   */\n      tag_139\n      jump\t// in\n    tag_210:\n        /* \"#utility.yul\":1161:1290   */\n      swap2\n      swap1\n      pop\n      jump\t// out\n        /* \"#utility.yul\":1296:1604   */\n    tag_141:\n        /* \"#utility.yul\":1358:1362   */\n      0x00\n        /* \"#utility.yul\":1448:1466   */\n      0xffffffffffffffff\n        /* \"#utility.yul\":1440:1446   */\n      dup3\n        /* \"#utility.yul\":1437:1467   */\n      gt\n        /* \"#utility.yul\":1434:1490   */\n      iszero\n      tag_212\n      jumpi\n        /* \"#utility.yul\":1470:1488   */\n      tag_213\n      tag_70\n      jump\t// in\n    tag_213:\n        /* \"#utility.yul\":1434:1490   */\n    tag_212:\n        /* \"#utility.yul\":1508:1537   */\n      tag_214\n        /* \"#utility.yul\":1530:1536   */\n      dup3\n        /* \"#utility.yul\":1508:1537   */\n      tag_138\n      jump\t// in\n    tag_214:\n        /* \"#utility.yul\":1500:1537   */\n      swap1\n      pop\n        /* \"#utility.yul\":1592:1596   */\n      0x20\n        /* \"#utility.yul\":1586:1590   */\n      dup2\n        /* \"#utility.yul\":1582:1597   */\n      add\n        /* \"#utility.yul\":1574:1597   */\n      swap1\n      pop\n        /* \"#utility.yul\":1296:1604   */\n      swap2\n      swap1\n      pop\n      jump\t// out\n        /* \"#utility.yul\":1610:1756   */\n    tag_142:\n        /* \"#utility.yul\":1707:1713   */\n      dup3\n        /* \"#utility.yul\":1702:1705   */\n      dup2\n        /* \"#utility.yul\":1697:1700   */\n      dup4\n        /* \"#utility.yul\":1684:1714   */\n      calldatacopy\n        /* \"#utility.yul\":1748:1749   */\n      0x00\n        /* \"#utility.yul\":1739:1745   */\n      dup4\n        /* \"#utility.yul\":1734:1737   */\n      dup4\n        /* \"#utility.yul\":1730:1746   */\n      add\n        /* \"#utility.yul\":1723:1750   */\n      mstore\n        /* \"#utility.yul\":1610:1756   */\n      pop\n      pop\n      pop\n      jump\t// out\n        /* \"#utility.yul\":1762:2187   */\n    tag_143:\n        /* \"#utility.yul\":1840:1845   */\n      0x00\n        /* \"#utility.yul\":1865:1931   */\n      tag_217\n        /* \"#utility.yul\":1881:1930   */\n      tag_218\n        /* \"#utility.yul\":1923:1929   */\n      dup5\n        /* \"#utility.yul\":1881:1930   */\n      tag_141\n      jump\t// in\n    tag_218:\n        /* \"#utility.yul\":1865:1931   */\n      tag_140\n      jump\t// in\n    tag_217:\n        /* \"#utility.yul\":1856:1931   */\n      swap1\n      pop\n        /* \"#utility.yul\":1954:1960   */\n      dup3\n        /* \"#utility.yul\":1947:1952   */\n      dup2\n        /* \"#utility.yul\":1940:1961   */\n      mstore\n        /* \"#utility.yul\":1992:1996   */\n      0x20\n        /* \"#utility.yul\":1985:1990   */\n      dup2\n        /* \"#utility.yul\":1981:1997   */\n      add\n        /* \"#utility.yul\":2030:2033   */\n      dup5\n        /* \"#utility.yul\":2021:2027   */\n      dup5\n        /* \"#utility.yul\":2016:2019   */\n      dup5\n        /* \"#utility.yul\":2012:2028   */\n      add\n        /* \"#utility.yul\":2009:2034   */\n      gt\n        /* \"#utility.yul\":2006:2118   */\n      iszero\n      tag_219\n      jumpi\n        /* \"#utility.yul\":2037:2116   */\n      tag_220\n      tag_137\n      jump\t// in\n    tag_220:\n        /* \"#utility.yul\":2006:2118   */\n    tag_219:\n        /* \"#utility.yul\":2127:2181   */\n      tag_221\n        /* \"#utility.yul\":2174:2180   */\n      dup5\n        /* \"#utility.yul\":2169:2172   */\n      dup3\n        /* \"#utility.yul\":2164:2167   */\n      dup6\n        /* \"#utility.yul\":2127:2181   */\n      tag_142\n      jump\t// in\n    tag_221:\n        /* \"#utility.yul\":1846:2187   */\n      pop\n        /* \"#utility.yul\":1762:2187   */\n      swap4\n      swap3\n      pop\n      pop\n      pop\n      jump\t// out\n        /* \"#utility.yul\":2207:2547   */\n    tag_144:\n        /* \"#utility.yul\":2263:2268   */\n      0x00\n        /* \"#utility.yul\":2312:2315   */\n      dup3\n        /* \"#utility.yul\":2305:2309   */\n      0x1f\n        /* \"#utility.yul\":2297:2303   */\n      dup4\n        /* \"#utility.yul\":2293:2310   */\n      add\n        /* \"#utility.yul\":2289:2316   */\n      slt\n        /* \"#utility.yul\":2279:2401   */\n      tag_223\n      jumpi\n        /* \"#utility.yul\":2320:2399   */\n      tag_224\n      tag_136\n      jump\t// in\n    tag_224:\n        /* \"#utility.yul\":2279:2401   */\n    tag_223:\n        /* \"#utility.yul\":2437:2443   */\n      dup2\n        /* \"#utility.yul\":2424:2444   */\n      calldataload\n        /* \"#utility.yul\":2462:2541   */\n      tag_225\n        /* \"#utility.yul\":2537:2540   */\n      dup5\n        /* \"#utility.yul\":2529:2535   */\n      dup3\n        /* \"#utility.yul\":2522:2526   */\n      0x20\n        /* \"#utility.yul\":2514:2520   */\n      dup7\n        /* \"#utility.yul\":2510:2527   */\n      add\n        /* \"#utility.yul\":2462:2541   */\n      tag_143\n      jump\t// in\n    tag_225:\n        /* \"#utility.yul\":2453:2541   */\n      swap2\n      pop\n        /* \"#utility.yul\":2269:2547   */\n      pop\n        /* \"#utility.yul\":2207:2547   */\n      swap3\n      swap2\n      pop\n      pop\n      jump\t// out\n        /* \"#utility.yul\":2553:2874   */\n    tag_145:\n        /* \"#utility.yul\":2640:2644   */\n      0x00\n        /* \"#utility.yul\":2730:2748   */\n      0xffffffffffffffff\n        /* \"#utility.yul\":2722:2728   */\n      dup3\n        /* \"#utility.yul\":2719:2749   */\n      gt\n        /* \"#utility.yul\":2716:2772   */\n      iszero\n      tag_227\n      jumpi\n        /* \"#utility.yul\":2752:2770   */\n      tag_228\n      tag_70\n      jump\t// in\n    tag_228:\n        /* \"#utility.yul\":2716:2772   */\n    tag_227:\n        /* \"#utility.yul\":2802:2806   */\n      0x20\n        /* \"#utility.yul\":2794:2800   */\n      dup3\n        /* \"#utility.yul\":2790:2807   */\n      mul\n        /* \"#utility.yul\":2782:2807   */\n      swap1\n      pop\n        /* \"#utility.yul\":2862:2866   */\n      0x20\n        /* \"#utility.yul\":2856:2860   */\n      dup2\n        /* \"#utility.yul\":2852:2867   */\n      add\n        /* \"#utility.yul\":2844:2867   */\n      swap1\n      pop\n        /* \"#utility.yul\":2553:2874   */\n      swap2\n      swap1\n      pop\n      jump\t// out\n        /* \"#utility.yul\":2880:2997   */\n    tag_146:\n        /* \"#utility.yul\":2989:2990   */\n      0x00\n        /* \"#utility.yul\":2986:2987   */\n      dup1\n        /* \"#utility.yul\":2979:2991   */\n      revert\n        /* \"#utility.yul\":3019:3964   */\n    tag_147:\n        /* \"#utility.yul\":3125:3130   */\n      0x00\n        /* \"#utility.yul\":3150:3241   */\n      tag_231\n        /* \"#utility.yul\":3166:3240   */\n      tag_232\n        /* \"#utility.yul\":3233:3239   */\n      dup5\n        /* \"#utility.yul\":3166:3240   */\n      tag_145\n      jump\t// in\n    tag_232:\n        /* \"#utility.yul\":3150:3241   */\n      tag_140\n      jump\t// in\n    tag_231:\n        /* \"#utility.yul\":3141:3241   */\n      swap1\n      pop\n        /* \"#utility.yul\":3261:3266   */\n      dup1\n        /* \"#utility.yul\":3290:3296   */\n      dup4\n        /* \"#utility.yul\":3283:3288   */\n      dup3\n        /* \"#utility.yul\":3276:3297   */\n      mstore\n        /* \"#utility.yul\":3324:3328   */\n      0x20\n        /* \"#utility.yul\":3317:3322   */\n      dup3\n        /* \"#utility.yul\":3313:3329   */\n      add\n        /* \"#utility.yul\":3306:3329   */\n      swap1\n      pop\n        /* \"#utility.yul\":3377:3381   */\n      0x20\n        /* \"#utility.yul\":3369:3375   */\n      dup5\n        /* \"#utility.yul\":3365:3382   */\n      mul\n        /* \"#utility.yul\":3357:3363   */\n      dup4\n        /* \"#utility.yul\":3353:3383   */\n      add\n        /* \"#utility.yul\":3406:3409   */\n      dup6\n        /* \"#utility.yul\":3398:3404   */\n      dup2\n        /* \"#utility.yul\":3395:3410   */\n      gt\n        /* \"#utility.yul\":3392:3514   */\n      iszero\n      tag_233\n      jumpi\n        /* \"#utility.yul\":3425:3504   */\n      tag_234\n      tag_146\n      jump\t// in\n    tag_234:\n        /* \"#utility.yul\":3392:3514   */\n    tag_233:\n        /* \"#utility.yul\":3540:3546   */\n      dup4\n        /* \"#utility.yul\":3523:3958   */\n    tag_235:\n        /* \"#utility.yul\":3557:3563   */\n      dup2\n        /* \"#utility.yul\":3552:3555   */\n      dup2\n        /* \"#utility.yul\":3549:3564   */\n      lt\n        /* \"#utility.yul\":3523:3958   */\n      iszero\n      tag_237\n      jumpi\n        /* \"#utility.yul\":3646:3649   */\n      dup1\n        /* \"#utility.yul\":3633:3650   */\n      calldataload\n        /* \"#utility.yul\":3682:3700   */\n      0xffffffffffffffff\n        /* \"#utility.yul\":3669:3680   */\n      dup2\n        /* \"#utility.yul\":3666:3701   */\n      gt\n        /* \"#utility.yul\":3663:3785   */\n      iszero\n      tag_238\n      jumpi\n        /* \"#utility.yul\":3704:3783   */\n      tag_239\n      tag_136\n      jump\t// in\n    tag_239:\n        /* \"#utility.yul\":3663:3785   */\n    tag_238:\n        /* \"#utility.yul\":3828:3839   */\n      dup1\n        /* \"#utility.yul\":3820:3826   */\n      dup7\n        /* \"#utility.yul\":3816:3840   */\n      add\n        /* \"#utility.yul\":3866:3913   */\n      tag_240\n        /* \"#utility.yul\":3909:3912   */\n      dup10\n        /* \"#utility.yul\":3897:3907   */\n      dup3\n        /* \"#utility.yul\":3866:3913   */\n      tag_144\n      jump\t// in\n    tag_240:\n        /* \"#utility.yul\":3861:3864   */\n      dup6\n        /* \"#utility.yul\":3854:3914   */\n      mstore\n        /* \"#utility.yul\":3943:3947   */\n      0x20\n        /* \"#utility.yul\":3938:3941   */\n      dup6\n        /* \"#utility.yul\":3934:3948   */\n      add\n        /* \"#utility.yul\":3927:3948   */\n      swap5\n      pop\n        /* \"#utility.yul\":3599:3958   */\n      pop\n      pop\n        /* \"#utility.yul\":3583:3587   */\n      0x20\n        /* \"#utility.yul\":3578:3581   */\n      dup2\n        /* \"#utility.yul\":3574:3588   */\n      add\n        /* \"#utility.yul\":3567:3588   */\n      swap1\n      pop\n        /* \"#utility.yul\":3523:3958   */\n      jump(tag_235)\n    tag_237:\n        /* \"#utility.yul\":3527:3548   */\n      pop\n        /* \"#utility.yul\":3131:3964   */\n      pop\n      pop\n        /* \"#utility.yul\":3019:3964   */\n      swap4\n      swap3\n      pop\n      pop\n      pop\n      jump\t// out\n        /* \"#utility.yul\":3986:4376   */\n    tag_148:\n        /* \"#utility.yul\":4067:4072   */\n      0x00\n        /* \"#utility.yul\":4116:4119   */\n      dup3\n        /* \"#utility.yul\":4109:4113   */\n      0x1f\n        /* \"#utility.yul\":4101:4107   */\n      dup4\n        /* \"#utility.yul\":4097:4114   */\n      add\n        /* \"#utility.yul\":4093:4120   */\n      slt\n        /* \"#utility.yul\":4083:4205   */\n      tag_242\n      jumpi\n        /* \"#utility.yul\":4124:4203   */\n      tag_243\n      tag_136\n      jump\t// in\n    tag_243:\n        /* \"#utility.yul\":4083:4205   */\n    tag_242:\n        /* \"#utility.yul\":4241:4247   */\n      dup2\n        /* \"#utility.yul\":4228:4248   */\n      calldataload\n        /* \"#utility.yul\":4266:4370   */\n      tag_244\n        /* \"#utility.yul\":4366:4369   */\n      dup5\n        /* \"#utility.yul\":4358:4364   */\n      dup3\n        /* \"#utility.yul\":4351:4355   */\n      0x20\n        /* \"#utility.yul\":4343:4349   */\n      dup7\n        /* \"#utility.yul\":4339:4356   */\n      add\n        /* \"#utility.yul\":4266:4370   */\n      tag_147\n      jump\t// in\n    tag_244:\n        /* \"#utility.yul\":4257:4370   */\n      swap2\n      pop\n        /* \"#utility.yul\":4073:4376   */\n      pop\n        /* \"#utility.yul\":3986:4376   */\n      swap3\n      swap2\n      pop\n      pop\n      jump\t// out\n        /* \"#utility.yul\":4382:5266   */\n    tag_10:\n        /* \"#utility.yul\":4495:4501   */\n      0x00\n        /* \"#utility.yul\":4503:4509   */\n      dup1\n        /* \"#utility.yul\":4552:4554   */\n      0x40\n        /* \"#utility.yul\":4540:4549   */\n      dup4\n        /* \"#utility.yul\":4531:4538   */\n      dup6\n        /* \"#utility.yul\":4527:4550   */\n      sub\n        /* \"#utility.yul\":4523:4555   */\n      slt\n        /* \"#utility.yul\":4520:4639   */\n      iszero\n      tag_246\n      jumpi\n        /* \"#utility.yul\":4558:4637   */\n      tag_247\n      tag_134\n      jump\t// in\n    tag_247:\n        /* \"#utility.yul\":4520:4639   */\n    tag_246:\n        /* \"#utility.yul\":4706:4707   */\n      0x00\n        /* \"#utility.yul\":4695:4704   */\n      dup4\n        /* \"#utility.yul\":4691:4708   */\n      add\n        /* \"#utility.yul\":4678:4709   */\n      calldataload\n        /* \"#utility.yul\":4736:4754   */\n      0xffffffffffffffff\n        /* \"#utility.yul\":4728:4734   */\n      dup2\n        /* \"#utility.yul\":4725:4755   */\n      gt\n        /* \"#utility.yul\":4722:4839   */\n      iszero\n      tag_248\n      jumpi\n        /* \"#utility.yul\":4758:4837   */\n      tag_249\n      tag_135\n      jump\t// in\n    tag_249:\n        /* \"#utility.yul\":4722:4839   */\n    tag_248:\n        /* \"#utility.yul\":4863:4926   */\n      tag_250\n        /* \"#utility.yul\":4918:4925   */\n      dup6\n        /* \"#utility.yul\":4909:4915   */\n      dup3\n        /* \"#utility.yul\":4898:4907   */\n      dup7\n        /* \"#utility.yul\":4894:4916   */\n      add\n        /* \"#utility.yul\":4863:4926   */\n      tag_144\n      jump\t// in\n    tag_250:\n        /* \"#utility.yul\":4853:4926   */\n      swap3\n      pop\n        /* \"#utility.yul\":4649:4936   */\n      pop\n        /* \"#utility.yul\":5003:5005   */\n      0x20\n        /* \"#utility.yul\":4992:5001   */\n      dup4\n        /* \"#utility.yul\":4988:5006   */\n      add\n        /* \"#utility.yul\":4975:5007   */\n      calldataload\n        /* \"#utility.yul\":5034:5052   */\n      0xffffffffffffffff\n        /* \"#utility.yul\":5026:5032   */\n      dup2\n        /* \"#utility.yul\":5023:5053   */\n      gt\n        /* \"#utility.yul\":5020:5137   */\n      iszero\n      tag_251\n      jumpi\n        /* \"#utility.yul\":5056:5135   */\n      tag_252\n      tag_135\n      jump\t// in\n    tag_252:\n        /* \"#utility.yul\":5020:5137   */\n    tag_251:\n        /* \"#utility.yul\":5161:5249   */\n      tag_253\n        /* \"#utility.yul\":5241:5248   */\n      dup6\n        /* \"#utility.yul\":5232:5238   */\n      dup3\n        /* \"#utility.yul\":5221:5230   */\n      dup7\n        /* \"#utility.yul\":5217:5239   */\n      add\n        /* \"#utility.yul\":5161:5249   */\n      tag_148\n      jump\t// in\n    tag_253:\n        /* \"#utility.yul\":5151:5249   */\n      swap2\n      pop\n        /* \"#utility.yul\":4946:5259   */\n      pop\n        /* \"#utility.yul\":4382:5266   */\n      swap3\n      pop\n      swap3\n      swap1\n      pop\n      jump\t// out\n        /* \"#utility.yul\":5272:5781   */\n    tag_14:\n        /* \"#utility.yul\":5341:5347   */\n      0x00\n        /* \"#utility.yul\":5390:5392   */\n      0x20\n        /* \"#utility.yul\":5378:5387   */\n      dup3\n        /* \"#utility.yul\":5369:5376   */\n      dup5\n        /* \"#utility.yul\":5365:5388   */\n      sub\n        /* \"#utility.yul\":5361:5393   */\n      slt\n        /* \"#utility.yul\":5358:5477   */\n      iszero\n      tag_255\n      jumpi\n        /* \"#utility.yul\":5396:5475   */\n      tag_256\n      tag_134\n      jump\t// in\n    tag_256:\n        /* \"#utility.yul\":5358:5477   */\n    tag_255:\n        /* \"#utility.yul\":5544:5545   */\n      0x00\n        /* \"#utility.yul\":5533:5542   */\n      dup3\n        /* \"#utility.yul\":5529:5546   */\n      add\n        /* \"#utility.yul\":5516:5547   */\n      calldataload\n        /* \"#utility.yul\":5574:5592   */\n      0xffffffffffffffff\n        /* \"#utility.yul\":5566:5572   */\n      dup2\n        /* \"#utility.yul\":5563:5593   */\n      gt\n        /* \"#utility.yul\":5560:5677   */\n      iszero\n      tag_257\n      jumpi\n        /* \"#utility.yul\":5596:5675   */\n      tag_258\n      tag_135\n      jump\t// in\n    tag_258:\n        /* \"#utility.yul\":5560:5677   */\n    tag_257:\n        /* \"#utility.yul\":5701:5764   */\n      tag_259\n        /* \"#utility.yul\":5756:5763   */\n      dup5\n        /* \"#utility.yul\":5747:5753   */\n      dup3\n        /* \"#utility.yul\":5736:5745   */\n      dup6\n        /* \"#utility.yul\":5732:5754   */\n      add\n        /* \"#utility.yul\":5701:5764   */\n      tag_144\n      jump\t// in\n    tag_259:\n        /* \"#utility.yul\":5691:5764   */\n      swap2\n      pop\n        /* \"#utility.yul\":5487:5774   */\n      pop\n        /* \"#utility.yul\":5272:5781   */\n      swap3\n      swap2\n      pop\n      pop\n      jump\t// out\n        /* \"#utility.yul\":5787:5886   */\n    tag_149:\n        /* \"#utility.yul\":5839:5845   */\n      0x00\n        /* \"#utility.yul\":5873:5878   */\n      dup2\n        /* \"#utility.yul\":5867:5879   */\n      mload\n        /* \"#utility.yul\":5857:5879   */\n      swap1\n      pop\n        /* \"#utility.yul\":5787:5886   */\n      swap2\n      swap1\n      pop\n      jump\t// out\n        /* \"#utility.yul\":5892:6061   */\n    tag_150:\n        /* \"#utility.yul\":5976:5987   */\n      0x00\n        /* \"#utility.yul\":6010:6016   */\n      dup3\n        /* \"#utility.yul\":6005:6008   */\n      dup3\n        /* \"#utility.yul\":5998:6017   */\n      mstore\n        /* \"#utility.yul\":6050:6054   */\n      0x20\n        /* \"#utility.yul\":6045:6048   */\n      dup3\n        /* \"#utility.yul\":6041:6055   */\n      add\n        /* \"#utility.yul\":6026:6055   */\n      swap1\n      pop\n        /* \"#utility.yul\":5892:6061   */\n      swap3\n      swap2\n      pop\n      pop\n      jump\t// out\n        /* \"#utility.yul\":6067:6313   */\n    tag_151:\n        /* \"#utility.yul\":6148:6149   */\n      0x00\n        /* \"#utility.yul\":6158:6271   */\n    tag_263:\n        /* \"#utility.yul\":6172:6178   */\n      dup4\n        /* \"#utility.yul\":6169:6170   */\n      dup2\n        /* \"#utility.yul\":6166:6179   */\n      lt\n        /* \"#utility.yul\":6158:6271   */\n      iszero\n      tag_265\n      jumpi\n        /* \"#utility.yul\":6257:6258   */\n      dup1\n        /* \"#utility.yul\":6252:6255   */\n      dup3\n        /* \"#utility.yul\":6248:6259   */\n      add\n        /* \"#utility.yul\":6242:6260   */\n      mload\n        /* \"#utility.yul\":6238:6239   */\n      dup2\n        /* \"#utility.yul\":6233:6236   */\n      dup5\n        /* \"#utility.yul\":6229:6240   */\n      add\n        /* \"#utility.yul\":6222:6261   */\n      mstore\n        /* \"#utility.yul\":6194:6196   */\n      0x20\n        /* \"#utility.yul\":6191:6192   */\n      dup2\n        /* \"#utility.yul\":6187:6197   */\n      add\n        /* \"#utility.yul\":6182:6197   */\n      swap1\n      pop\n        /* \"#utility.yul\":6158:6271   */\n      jump(tag_263)\n    tag_265:\n        /* \"#utility.yul\":6305:6306   */\n      0x00\n        /* \"#utility.yul\":6296:6302   */\n      dup5\n        /* \"#utility.yul\":6291:6294   */\n      dup5\n        /* \"#utility.yul\":6287:6303   */\n      add\n        /* \"#utility.yul\":6280:6307   */\n      mstore\n        /* \"#utility.yul\":6129:6313   */\n      pop\n        /* \"#utility.yul\":6067:6313   */\n      pop\n      pop\n      pop\n      jump\t// out\n        /* \"#utility.yul\":6319:6696   */\n    tag_152:\n        /* \"#utility.yul\":6407:6410   */\n      0x00\n        /* \"#utility.yul\":6435:6474   */\n      tag_267\n        /* \"#utility.yul\":6468:6473   */\n      dup3\n        /* \"#utility.yul\":6435:6474   */\n      tag_149\n      jump\t// in\n    tag_267:\n        /* \"#utility.yul\":6490:6561   */\n      tag_268\n        /* \"#utility.yul\":6554:6560   */\n      dup2\n        /* \"#utility.yul\":6549:6552   */\n      dup6\n        /* \"#utility.yul\":6490:6561   */\n      tag_150\n      jump\t// in\n    tag_268:\n        /* \"#utility.yul\":6483:6561   */\n      swap4\n      pop\n        /* \"#utility.yul\":6570:6635   */\n      tag_269\n        /* \"#utility.yul\":6628:6634   */\n      dup2\n        /* \"#utility.yul\":6623:6626   */\n      dup6\n        /* \"#utility.yul\":6616:6620   */\n      0x20\n        /* \"#utility.yul\":6609:6614   */\n      dup7\n        /* \"#utility.yul\":6605:6621   */\n      add\n        /* \"#utility.yul\":6570:6635   */\n      tag_151\n      jump\t// in\n    tag_269:\n        /* \"#utility.yul\":6660:6689   */\n      tag_270\n        /* \"#utility.yul\":6682:6688   */\n      dup2\n        /* \"#utility.yul\":6660:6689   */\n      tag_138\n      jump\t// in\n    tag_270:\n        /* \"#utility.yul\":6655:6658   */\n      dup5\n        /* \"#utility.yul\":6651:6690   */\n      add\n        /* \"#utility.yul\":6644:6690   */\n      swap2\n      pop\n        /* \"#utility.yul\":6411:6696   */\n      pop\n        /* \"#utility.yul\":6319:6696   */\n      swap3\n      swap2\n      pop\n      pop\n      jump\t// out\n        /* \"#utility.yul\":6702:6826   */\n    tag_153:\n        /* \"#utility.yul\":6779:6785   */\n      0x00\n        /* \"#utility.yul\":6813:6818   */\n      dup2\n        /* \"#utility.yul\":6807:6819   */\n      mload\n        /* \"#utility.yul\":6797:6819   */\n      swap1\n      pop\n        /* \"#utility.yul\":6702:6826   */\n      swap2\n      swap1\n      pop\n      jump\t// out\n        /* \"#utility.yul\":6832:7026   */\n    tag_154:\n        /* \"#utility.yul\":6941:6952   */\n      0x00\n        /* \"#utility.yul\":6975:6981   */\n      dup3\n        /* \"#utility.yul\":6970:6973   */\n      dup3\n        /* \"#utility.yul\":6963:6982   */\n      mstore\n        /* \"#utility.yul\":7015:7019   */\n      0x20\n        /* \"#utility.yul\":7010:7013   */\n      dup3\n        /* \"#utility.yul\":7006:7020   */\n      add\n        /* \"#utility.yul\":6991:7020   */\n      swap1\n      pop\n        /* \"#utility.yul\":6832:7026   */\n      swap3\n      swap2\n      pop\n      pop\n      jump\t// out\n        /* \"#utility.yul\":7032:7174   */\n    tag_155:\n        /* \"#utility.yul\":7109:7113   */\n      0x00\n        /* \"#utility.yul\":7132:7135   */\n      dup2\n        /* \"#utility.yul\":7124:7135   */\n      swap1\n      pop\n        /* \"#utility.yul\":7162:7166   */\n      0x20\n        /* \"#utility.yul\":7157:7160   */\n      dup3\n        /* \"#utility.yul\":7153:7167   */\n      add\n        /* \"#utility.yul\":7145:7167   */\n      swap1\n      pop\n        /* \"#utility.yul\":7032:7174   */\n      swap2\n      swap1\n      pop\n      jump\t// out\n        /* \"#utility.yul\":7180:7339   */\n    tag_156:\n        /* \"#utility.yul\":7254:7265   */\n      0x00\n        /* \"#utility.yul\":7288:7294   */\n      dup3\n        /* \"#utility.yul\":7283:7286   */\n      dup3\n        /* \"#utility.yul\":7276:7295   */\n      mstore\n        /* \"#utility.yul\":7328:7332   */\n      0x20\n        /* \"#utility.yul\":7323:7326   */\n      dup3\n        /* \"#utility.yul\":7319:7333   */\n      add\n        /* \"#utility.yul\":7304:7333   */\n      swap1\n      pop\n        /* \"#utility.yul\":7180:7339   */\n      swap3\n      swap2\n      pop\n      pop\n      jump\t// out\n        /* \"#utility.yul\":7345:7702   */\n    tag_157:\n        /* \"#utility.yul\":7423:7426   */\n      0x00\n        /* \"#utility.yul\":7451:7490   */\n      tag_276\n        /* \"#utility.yul\":7484:7489   */\n      dup3\n        /* \"#utility.yul\":7451:7490   */\n      tag_149\n      jump\t// in\n    tag_276:\n        /* \"#utility.yul\":7506:7567   */\n      tag_277\n        /* \"#utility.yul\":7560:7566   */\n      dup2\n        /* \"#utility.yul\":7555:7558   */\n      dup6\n        /* \"#utility.yul\":7506:7567   */\n      tag_156\n      jump\t// in\n    tag_277:\n        /* \"#utility.yul\":7499:7567   */\n      swap4\n      pop\n        /* \"#utility.yul\":7576:7641   */\n      tag_278\n        /* \"#utility.yul\":7634:7640   */\n      dup2\n        /* \"#utility.yul\":7629:7632   */\n      dup6\n        /* \"#utility.yul\":7622:7626   */\n      0x20\n        /* \"#utility.yul\":7615:7620   */\n      dup7\n        /* \"#utility.yul\":7611:7627   */\n      add\n        /* \"#utility.yul\":7576:7641   */\n      tag_151\n      jump\t// in\n    tag_278:\n        /* \"#utility.yul\":7666:7695   */\n      tag_279\n        /* \"#utility.yul\":7688:7694   */\n      dup2\n        /* \"#utility.yul\":7666:7695   */\n      tag_138\n      jump\t// in\n    tag_279:\n        /* \"#utility.yul\":7661:7664   */\n      dup5\n        /* \"#utility.yul\":7657:7696   */\n      add\n        /* \"#utility.yul\":7650:7696   */\n      swap2\n      pop\n        /* \"#utility.yul\":7427:7702   */\n      pop\n        /* \"#utility.yul\":7345:7702   */\n      swap3\n      swap2\n      pop\n      pop\n      jump\t// out\n        /* \"#utility.yul\":7708:7904   */\n    tag_158:\n        /* \"#utility.yul\":7797:7807   */\n      0x00\n        /* \"#utility.yul\":7832:7898   */\n      tag_281\n        /* \"#utility.yul\":7894:7897   */\n      dup4\n        /* \"#utility.yul\":7886:7892   */\n      dup4\n        /* \"#utility.yul\":7832:7898   */\n      tag_157\n      jump\t// in\n    tag_281:\n        /* \"#utility.yul\":7818:7898   */\n      swap1\n      pop\n        /* \"#utility.yul\":7708:7904   */\n      swap3\n      swap2\n      pop\n      pop\n      jump\t// out\n        /* \"#utility.yul\":7910:8033   */\n    tag_159:\n        /* \"#utility.yul\":7990:7994   */\n      0x00\n        /* \"#utility.yul\":8022:8026   */\n      0x20\n        /* \"#utility.yul\":8017:8020   */\n      dup3\n        /* \"#utility.yul\":8013:8027   */\n      add\n        /* \"#utility.yul\":8005:8027   */\n      swap1\n      pop\n        /* \"#utility.yul\":7910:8033   */\n      swap2\n      swap1\n      pop\n      jump\t// out\n        /* \"#utility.yul\":8067:9058   */\n    tag_160:\n        /* \"#utility.yul\":8206:8209   */\n      0x00\n        /* \"#utility.yul\":8235:8299   */\n      tag_284\n        /* \"#utility.yul\":8293:8298   */\n      dup3\n        /* \"#utility.yul\":8235:8299   */\n      tag_153\n      jump\t// in\n    tag_284:\n        /* \"#utility.yul\":8315:8411   */\n      tag_285\n        /* \"#utility.yul\":8404:8410   */\n      dup2\n        /* \"#utility.yul\":8399:8402   */\n      dup6\n        /* \"#utility.yul\":8315:8411   */\n      tag_154\n      jump\t// in\n    tag_285:\n        /* \"#utility.yul\":8308:8411   */\n      swap4\n      pop\n        /* \"#utility.yul\":8437:8440   */\n      dup4\n        /* \"#utility.yul\":8482:8486   */\n      0x20\n        /* \"#utility.yul\":8474:8480   */\n      dup3\n        /* \"#utility.yul\":8470:8487   */\n      mul\n        /* \"#utility.yul\":8465:8468   */\n      dup6\n        /* \"#utility.yul\":8461:8488   */\n      add\n        /* \"#utility.yul\":8512:8578   */\n      tag_286\n        /* \"#utility.yul\":8572:8577   */\n      dup6\n        /* \"#utility.yul\":8512:8578   */\n      tag_155\n      jump\t// in\n    tag_286:\n        /* \"#utility.yul\":8601:8608   */\n      dup1\n        /* \"#utility.yul\":8632:8633   */\n      0x00\n        /* \"#utility.yul\":8617:9013   */\n    tag_287:\n        /* \"#utility.yul\":8642:8648   */\n      dup6\n        /* \"#utility.yul\":8639:8640   */\n      dup2\n        /* \"#utility.yul\":8636:8649   */\n      lt\n        /* \"#utility.yul\":8617:9013   */\n      iszero\n      tag_289\n      jumpi\n        /* \"#utility.yul\":8713:8722   */\n      dup5\n        /* \"#utility.yul\":8707:8711   */\n      dup5\n        /* \"#utility.yul\":8703:8723   */\n      sub\n        /* \"#utility.yul\":8698:8701   */\n      dup10\n        /* \"#utility.yul\":8691:8724   */\n      mstore\n        /* \"#utility.yul\":8764:8770   */\n      dup2\n        /* \"#utility.yul\":8758:8771   */\n      mload\n        /* \"#utility.yul\":8792:8876   */\n      tag_290\n        /* \"#utility.yul\":8871:8875   */\n      dup6\n        /* \"#utility.yul\":8856:8869   */\n      dup3\n        /* \"#utility.yul\":8792:8876   */\n      tag_158\n      jump\t// in\n    tag_290:\n        /* \"#utility.yul\":8784:8876   */\n      swap5\n      pop\n        /* \"#utility.yul\":8899:8969   */\n      tag_291\n        /* \"#utility.yul\":8962:8968   */\n      dup4\n        /* \"#utility.yul\":8899:8969   */\n      tag_159\n      jump\t// in\n    tag_291:\n        /* \"#utility.yul\":8889:8969   */\n      swap3\n      pop\n        /* \"#utility.yul\":8998:9002   */\n      0x20\n        /* \"#utility.yul\":8993:8996   */\n      dup11\n        /* \"#utility.yul\":8989:9003   */\n      add\n        /* \"#utility.yul\":8982:9003   */\n      swap10\n      pop\n        /* \"#utility.yul\":8677:9013   */\n      pop\n        /* \"#utility.yul\":8664:8665   */\n      0x01\n        /* \"#utility.yul\":8661:8662   */\n      dup2\n        /* \"#utility.yul\":8657:8666   */\n      add\n        /* \"#utility.yul\":8652:8666   */\n      swap1\n      pop\n        /* \"#utility.yul\":8617:9013   */\n      jump(tag_287)\n    tag_289:\n        /* \"#utility.yul\":8621:8635   */\n      pop\n        /* \"#utility.yul\":9029:9033   */\n      dup3\n        /* \"#utility.yul\":9022:9033   */\n      swap8\n      pop\n        /* \"#utility.yul\":9049:9052   */\n      dup8\n        /* \"#utility.yul\":9042:9052   */\n      swap6\n      pop\n        /* \"#utility.yul\":8211:9058   */\n      pop\n      pop\n      pop\n      pop\n      pop\n        /* \"#utility.yul\":8067:9058   */\n      swap3\n      swap2\n      pop\n      pop\n      jump\t// out\n        /* \"#utility.yul\":9064:9178   */\n    tag_161:\n        /* \"#utility.yul\":9131:9137   */\n      0x00\n        /* \"#utility.yul\":9165:9170   */\n      dup2\n        /* \"#utility.yul\":9159:9171   */\n      mload\n        /* \"#utility.yul\":9149:9171   */\n      swap1\n      pop\n        /* \"#utility.yul\":9064:9178   */\n      swap2\n      swap1\n      pop\n      jump\t// out\n        /* \"#utility.yul\":9184:9368   */\n    tag_162:\n        /* \"#utility.yul\":9283:9294   */\n      0x00\n        /* \"#utility.yul\":9317:9323   */\n      dup3\n        /* \"#utility.yul\":9312:9315   */\n      dup3\n        /* \"#utility.yul\":9305:9324   */\n      mstore\n        /* \"#utility.yul\":9357:9361   */\n      0x20\n        /* \"#utility.yul\":9352:9355   */\n      dup3\n        /* \"#utility.yul\":9348:9362   */\n      add\n        /* \"#utility.yul\":9333:9362   */\n      swap1\n      pop\n        /* \"#utility.yul\":9184:9368   */\n      swap3\n      swap2\n      pop\n      pop\n      jump\t// out\n        /* \"#utility.yul\":9374:9506   */\n    tag_163:\n        /* \"#utility.yul\":9441:9445   */\n      0x00\n        /* \"#utility.yul\":9464:9467   */\n      dup2\n        /* \"#utility.yul\":9456:9467   */\n      swap1\n      pop\n        /* \"#utility.yul\":9494:9498   */\n      0x20\n        /* \"#utility.yul\":9489:9492   */\n      dup3\n        /* \"#utility.yul\":9485:9499   */\n      add\n        /* \"#utility.yul\":9477:9499   */\n      swap1\n      pop\n        /* \"#utility.yul\":9374:9506   */\n      swap2\n      swap1\n      pop\n      jump\t// out\n        /* \"#utility.yul\":9512:9589   */\n    tag_164:\n        /* \"#utility.yul\":9549:9556   */\n      0x00\n        /* \"#utility.yul\":9578:9583   */\n      dup2\n        /* \"#utility.yul\":9567:9583   */\n      swap1\n      pop\n        /* \"#utility.yul\":9512:9589   */\n      swap2\n      swap1\n      pop\n      jump\t// out\n        /* \"#utility.yul\":9595:9703   */\n    tag_165:\n        /* \"#utility.yul\":9672:9696   */\n      tag_297\n        /* \"#utility.yul\":9690:9695   */\n      dup2\n        /* \"#utility.yul\":9672:9696   */\n      tag_164\n      jump\t// in\n    tag_297:\n        /* \"#utility.yul\":9667:9670   */\n      dup3\n        /* \"#utility.yul\":9660:9697   */\n      mstore\n        /* \"#utility.yul\":9595:9703   */\n      pop\n      pop\n      jump\t// out\n        /* \"#utility.yul\":9709:9888   */\n    tag_166:\n        /* \"#utility.yul\":9778:9788   */\n      0x00\n        /* \"#utility.yul\":9799:9845   */\n      tag_299\n        /* \"#utility.yul\":9841:9844   */\n      dup4\n        /* \"#utility.yul\":9833:9839   */\n      dup4\n        /* \"#utility.yul\":9799:9845   */\n      tag_165\n      jump\t// in\n    tag_299:\n        /* \"#utility.yul\":9877:9881   */\n      0x20\n        /* \"#utility.yul\":9872:9875   */\n      dup4\n        /* \"#utility.yul\":9868:9882   */\n      add\n        /* \"#utility.yul\":9854:9882   */\n      swap1\n      pop\n        /* \"#utility.yul\":9709:9888   */\n      swap3\n      swap2\n      pop\n      pop\n      jump\t// out\n        /* \"#utility.yul\":9894:10007   */\n    tag_167:\n        /* \"#utility.yul\":9964:9968   */\n      0x00\n        /* \"#utility.yul\":9996:10000   */\n      0x20\n        /* \"#utility.yul\":9991:9994   */\n      dup3\n        /* \"#utility.yul\":9987:10001   */\n      add\n        /* \"#utility.yul\":9979:10001   */\n      swap1\n      pop\n        /* \"#utility.yul\":9894:10007   */\n      swap2\n      swap1\n      pop\n      jump\t// out\n        /* \"#utility.yul\":10043:10775   */\n    tag_168:\n        /* \"#utility.yul\":10162:10165   */\n      0x00\n        /* \"#utility.yul\":10191:10245   */\n      tag_302\n        /* \"#utility.yul\":10239:10244   */\n      dup3\n        /* \"#utility.yul\":10191:10245   */\n      tag_161\n      jump\t// in\n    tag_302:\n        /* \"#utility.yul\":10261:10347   */\n      tag_303\n        /* \"#utility.yul\":10340:10346   */\n      dup2\n        /* \"#utility.yul\":10335:10338   */\n      dup6\n        /* \"#utility.yul\":10261:10347   */\n      tag_162\n      jump\t// in\n    tag_303:\n        /* \"#utility.yul\":10254:10347   */\n      swap4\n      pop\n        /* \"#utility.yul\":10371:10427   */\n      tag_304\n        /* \"#utility.yul\":10421:10426   */\n      dup4\n        /* \"#utility.yul\":10371:10427   */\n      tag_163\n      jump\t// in\n    tag_304:\n        /* \"#utility.yul\":10450:10457   */\n      dup1\n        /* \"#utility.yul\":10481:10482   */\n      0x00\n        /* \"#utility.yul\":10466:10750   */\n    tag_305:\n        /* \"#utility.yul\":10491:10497   */\n      dup4\n        /* \"#utility.yul\":10488:10489   */\n      dup2\n        /* \"#utility.yul\":10485:10498   */\n      lt\n        /* \"#utility.yul\":10466:10750   */\n      iszero\n      tag_307\n      jumpi\n        /* \"#utility.yul\":10567:10573   */\n      dup2\n        /* \"#utility.yul\":10561:10574   */\n      mload\n        /* \"#utility.yul\":10594:10657   */\n      tag_308\n        /* \"#utility.yul\":10653:10656   */\n      dup9\n        /* \"#utility.yul\":10638:10651   */\n      dup3\n        /* \"#utility.yul\":10594:10657   */\n      tag_166\n      jump\t// in\n    tag_308:\n        /* \"#utility.yul\":10587:10657   */\n      swap8\n      pop\n        /* \"#utility.yul\":10680:10740   */\n      tag_309\n        /* \"#utility.yul\":10733:10739   */\n      dup4\n        /* \"#utility.yul\":10680:10740   */\n      tag_167\n      jump\t// in\n    tag_309:\n        /* \"#utility.yul\":10670:10740   */\n      swap3\n      pop\n        /* \"#utility.yul\":10526:10750   */\n      pop\n        /* \"#utility.yul\":10513:10514   */\n      0x01\n        /* \"#utility.yul\":10510:10511   */\n      dup2\n        /* \"#utility.yul\":10506:10515   */\n      add\n        /* \"#utility.yul\":10501:10515   */\n      swap1\n      pop\n        /* \"#utility.yul\":10466:10750   */\n      jump(tag_305)\n    tag_307:\n        /* \"#utility.yul\":10470:10484   */\n      pop\n        /* \"#utility.yul\":10766:10769   */\n      dup6\n        /* \"#utility.yul\":10759:10769   */\n      swap4\n      pop\n        /* \"#utility.yul\":10167:10775   */\n      pop\n      pop\n      pop\n        /* \"#utility.yul\":10043:10775   */\n      swap3\n      swap2\n      pop\n      pop\n      jump\t// out\n        /* \"#utility.yul\":10781:11656   */\n    tag_17:\n        /* \"#utility.yul\":11070:11074   */\n      0x00\n        /* \"#utility.yul\":11108:11110   */\n      0x60\n        /* \"#utility.yul\":11097:11106   */\n      dup3\n        /* \"#utility.yul\":11093:11111   */\n      add\n        /* \"#utility.yul\":11085:11111   */\n      swap1\n      pop\n        /* \"#utility.yul\":11157:11166   */\n      dup2\n        /* \"#utility.yul\":11151:11155   */\n      dup2\n        /* \"#utility.yul\":11147:11167   */\n      sub\n        /* \"#utility.yul\":11143:11144   */\n      0x00\n        /* \"#utility.yul\":11132:11141   */\n      dup4\n        /* \"#utility.yul\":11128:11145   */\n      add\n        /* \"#utility.yul\":11121:11168   */\n      mstore\n        /* \"#utility.yul\":11185:11263   */\n      tag_311\n        /* \"#utility.yul\":11258:11262   */\n      dup2\n        /* \"#utility.yul\":11249:11255   */\n      dup7\n        /* \"#utility.yul\":11185:11263   */\n      tag_152\n      jump\t// in\n    tag_311:\n        /* \"#utility.yul\":11177:11263   */\n      swap1\n      pop\n        /* \"#utility.yul\":11310:11319   */\n      dup2\n        /* \"#utility.yul\":11304:11308   */\n      dup2\n        /* \"#utility.yul\":11300:11320   */\n      sub\n        /* \"#utility.yul\":11295:11297   */\n      0x20\n        /* \"#utility.yul\":11284:11293   */\n      dup4\n        /* \"#utility.yul\":11280:11298   */\n      add\n        /* \"#utility.yul\":11273:11321   */\n      mstore\n        /* \"#utility.yul\":11338:11466   */\n      tag_312\n        /* \"#utility.yul\":11461:11465   */\n      dup2\n        /* \"#utility.yul\":11452:11458   */\n      dup6\n        /* \"#utility.yul\":11338:11466   */\n      tag_160\n      jump\t// in\n    tag_312:\n        /* \"#utility.yul\":11330:11466   */\n      swap1\n      pop\n        /* \"#utility.yul\":11513:11522   */\n      dup2\n        /* \"#utility.yul\":11507:11511   */\n      dup2\n        /* \"#utility.yul\":11503:11523   */\n      sub\n        /* \"#utility.yul\":11498:11500   */\n      0x40\n        /* \"#utility.yul\":11487:11496   */\n      dup4\n        /* \"#utility.yul\":11483:11501   */\n      add\n        /* \"#utility.yul\":11476:11524   */\n      mstore\n        /* \"#utility.yul\":11541:11649   */\n      tag_313\n        /* \"#utility.yul\":11644:11648   */\n      dup2\n        /* \"#utility.yul\":11635:11641   */\n      dup5\n        /* \"#utility.yul\":11541:11649   */\n      tag_168\n      jump\t// in\n    tag_313:\n        /* \"#utility.yul\":11533:11649   */\n      swap1\n      pop\n        /* \"#utility.yul\":10781:11656   */\n      swap5\n      swap4\n      pop\n      pop\n      pop\n      pop\n      jump\t// out\n        /* \"#utility.yul\":11662:12075   */\n    tag_22:\n        /* \"#utility.yul\":11825:11829   */\n      0x00\n        /* \"#utility.yul\":11863:11865   */\n      0x20\n        /* \"#utility.yul\":11852:11861   */\n      dup3\n        /* \"#utility.yul\":11848:11866   */\n      add\n        /* \"#utility.yul\":11840:11866   */\n      swap1\n      pop\n        /* \"#utility.yul\":11912:11921   */\n      dup2\n        /* \"#utility.yul\":11906:11910   */\n      dup2\n        /* \"#utility.yul\":11902:11922   */\n      sub\n        /* \"#utility.yul\":11898:11899   */\n      0x00\n        /* \"#utility.yul\":11887:11896   */\n      dup4\n        /* \"#utility.yul\":11883:11900   */\n      add\n        /* \"#utility.yul\":11876:11923   */\n      mstore\n        /* \"#utility.yul\":11940:12068   */\n      tag_315\n        /* \"#utility.yul\":12063:12067   */\n      dup2\n        /* \"#utility.yul\":12054:12060   */\n      dup5\n        /* \"#utility.yul\":11940:12068   */\n      tag_160\n      jump\t// in\n    tag_315:\n        /* \"#utility.yul\":11932:12068   */\n      swap1\n      pop\n        /* \"#utility.yul\":11662:12075   */\n      swap3\n      swap2\n      pop\n      pop\n      jump\t// out\n        /* \"#utility.yul\":12081:12915   */\n    tag_25:\n        /* \"#utility.yul\":12169:12175   */\n      0x00\n        /* \"#utility.yul\":12177:12183   */\n      dup1\n        /* \"#utility.yul\":12226:12228   */\n      0x40\n        /* \"#utility.yul\":12214:12223   */\n      dup4\n        /* \"#utility.yul\":12205:12212   */\n      dup6\n        /* \"#utility.yul\":12201:12224   */\n      sub\n        /* \"#utility.yul\":12197:12229   */\n      slt\n        /* \"#utility.yul\":12194:12313   */\n      iszero\n      tag_317\n      jumpi\n        /* \"#utility.yul\":12232:12311   */\n      tag_318\n      tag_134\n      jump\t// in\n    tag_318:\n        /* \"#utility.yul\":12194:12313   */\n    tag_317:\n        /* \"#utility.yul\":12380:12381   */\n      0x00\n        /* \"#utility.yul\":12369:12378   */\n      dup4\n        /* \"#utility.yul\":12365:12382   */\n      add\n        /* \"#utility.yul\":12352:12383   */\n      calldataload\n        /* \"#utility.yul\":12410:12428   */\n      0xffffffffffffffff\n        /* \"#utility.yul\":12402:12408   */\n      dup2\n        /* \"#utility.yul\":12399:12429   */\n      gt\n        /* \"#utility.yul\":12396:12513   */\n      iszero\n      tag_319\n      jumpi\n        /* \"#utility.yul\":12432:12511   */\n      tag_320\n      tag_135\n      jump\t// in\n    tag_320:\n        /* \"#utility.yul\":12396:12513   */\n    tag_319:\n        /* \"#utility.yul\":12537:12600   */\n      tag_321\n        /* \"#utility.yul\":12592:12599   */\n      dup6\n        /* \"#utility.yul\":12583:12589   */\n      dup3\n        /* \"#utility.yul\":12572:12581   */\n      dup7\n        /* \"#utility.yul\":12568:12590   */\n      add\n        /* \"#utility.yul\":12537:12600   */\n      tag_144\n      jump\t// in\n    tag_321:\n        /* \"#utility.yul\":12527:12600   */\n      swap3\n      pop\n        /* \"#utility.yul\":12323:12610   */\n      pop\n        /* \"#utility.yul\":12677:12679   */\n      0x20\n        /* \"#utility.yul\":12666:12675   */\n      dup4\n        /* \"#utility.yul\":12662:12680   */\n      add\n        /* \"#utility.yul\":12649:12681   */\n      calldataload\n        /* \"#utility.yul\":12708:12726   */\n      0xffffffffffffffff\n        /* \"#utility.yul\":12700:12706   */\n      dup2\n        /* \"#utility.yul\":12697:12727   */\n      gt\n        /* \"#utility.yul\":12694:12811   */\n      iszero\n      tag_322\n      jumpi\n        /* \"#utility.yul\":12730:12809   */\n      tag_323\n      tag_135\n      jump\t// in\n    tag_323:\n        /* \"#utility.yul\":12694:12811   */\n    tag_322:\n        /* \"#utility.yul\":12835:12898   */\n      tag_324\n        /* \"#utility.yul\":12890:12897   */\n      dup6\n        /* \"#utility.yul\":12881:12887   */\n      dup3\n        /* \"#utility.yul\":12870:12879   */\n      dup7\n        /* \"#utility.yul\":12866:12888   */\n      add\n        /* \"#utility.yul\":12835:12898   */\n      tag_144\n      jump\t// in\n    tag_324:\n        /* \"#utility.yul\":12825:12898   */\n      swap2\n      pop\n        /* \"#utility.yul\":12620:12908   */\n      pop\n        /* \"#utility.yul\":12081:12915   */\n      swap3\n      pop\n      swap3\n      swap1\n      pop\n      jump\t// out\n        /* \"#utility.yul\":12921:13039   */\n    tag_169:\n        /* \"#utility.yul\":13008:13032   */\n      tag_326\n        /* \"#utility.yul\":13026:13031   */\n      dup2\n        /* \"#utility.yul\":13008:13032   */\n      tag_164\n      jump\t// in\n    tag_326:\n        /* \"#utility.yul\":13003:13006   */\n      dup3\n        /* \"#utility.yul\":12996:13033   */\n      mstore\n        /* \"#utility.yul\":12921:13039   */\n      pop\n      pop\n      jump\t// out\n        /* \"#utility.yul\":13045:13267   */\n    tag_28:\n        /* \"#utility.yul\":13138:13142   */\n      0x00\n        /* \"#utility.yul\":13176:13178   */\n      0x20\n        /* \"#utility.yul\":13165:13174   */\n      dup3\n        /* \"#utility.yul\":13161:13179   */\n      add\n        /* \"#utility.yul\":13153:13179   */\n      swap1\n      pop\n        /* \"#utility.yul\":13189:13260   */\n      tag_328\n        /* \"#utility.yul\":13257:13258   */\n      0x00\n        /* \"#utility.yul\":13246:13255   */\n      dup4\n        /* \"#utility.yul\":13242:13259   */\n      add\n        /* \"#utility.yul\":13233:13239   */\n      dup5\n        /* \"#utility.yul\":13189:13260   */\n      tag_169\n      jump\t// in\n    tag_328:\n        /* \"#utility.yul\":13045:13267   */\n      swap3\n      swap2\n      pop\n      pop\n      jump\t// out\n        /* \"#utility.yul\":13273:13452   */\n    tag_170:\n        /* \"#utility.yul\":13413:13444   */\n      0x456c656374696f6e206e616d652063616e6e6f7420626520656d707479000000\n        /* \"#utility.yul\":13409:13410   */\n      0x00\n        /* \"#utility.yul\":13401:13407   */\n      dup3\n        /* \"#utility.yul\":13397:13411   */\n      add\n        /* \"#utility.yul\":13390:13445   */\n      mstore\n        /* \"#utility.yul\":13273:13452   */\n      pop\n      jump\t// out\n        /* \"#utility.yul\":13458:13824   */\n    tag_171:\n        /* \"#utility.yul\":13600:13603   */\n      0x00\n        /* \"#utility.yul\":13621:13688   */\n      tag_331\n        /* \"#utility.yul\":13685:13687   */\n      0x1d\n        /* \"#utility.yul\":13680:13683   */\n      dup4\n        /* \"#utility.yul\":13621:13688   */\n      tag_150\n      jump\t// in\n    tag_331:\n        /* \"#utility.yul\":13614:13688   */\n      swap2\n      pop\n        /* \"#utility.yul\":13697:13790   */\n      tag_332\n        /* \"#utility.yul\":13786:13789   */\n      dup3\n        /* \"#utility.yul\":13697:13790   */\n      tag_170\n      jump\t// in\n    tag_332:\n        /* \"#utility.yul\":13815:13817   */\n      0x20\n        /* \"#utility.yul\":13810:13813   */\n      dup3\n        /* \"#utility.yul\":13806:13818   */\n      add\n        /* \"#utility.yul\":13799:13818   */\n      swap1\n      pop\n        /* \"#utility.yul\":13458:13824   */\n      swap2\n      swap1\n      pop\n      jump\t// out\n        /* \"#utility.yul\":13830:14249   */\n    tag_35:\n        /* \"#utility.yul\":13996:14000   */\n      0x00\n        /* \"#utility.yul\":14034:14036   */\n      0x20\n        /* \"#utility.yul\":14023:14032   */\n      dup3\n        /* \"#utility.yul\":14019:14037   */\n      add\n        /* \"#utility.yul\":14011:14037   */\n      swap1\n      pop\n        /* \"#utility.yul\":14083:14092   */\n      dup2\n        /* \"#utility.yul\":14077:14081   */\n      dup2\n        /* \"#utility.yul\":14073:14093   */\n      sub\n        /* \"#utility.yul\":14069:14070   */\n      0x00\n        /* \"#utility.yul\":14058:14067   */\n      dup4\n        /* \"#utility.yul\":14054:14071   */\n      add\n        /* \"#utility.yul\":14047:14094   */\n      mstore\n        /* \"#utility.yul\":14111:14242   */\n      tag_334\n        /* \"#utility.yul\":14237:14241   */\n      dup2\n        /* \"#utility.yul\":14111:14242   */\n      tag_171\n      jump\t// in\n    tag_334:\n        /* \"#utility.yul\":14103:14242   */\n      swap1\n      pop\n        /* \"#utility.yul\":13830:14249   */\n      swap2\n      swap1\n      pop\n      jump\t// out\n        /* \"#utility.yul\":14255:14403   */\n    tag_172:\n        /* \"#utility.yul\":14357:14368   */\n      0x00\n        /* \"#utility.yul\":14394:14397   */\n      dup2\n        /* \"#utility.yul\":14379:14397   */\n      swap1\n      pop\n        /* \"#utility.yul\":14255:14403   */\n      swap3\n      swap2\n      pop\n      pop\n      jump\t// out\n        /* \"#utility.yul\":14409:14799   */\n    tag_173:\n        /* \"#utility.yul\":14515:14518   */\n      0x00\n        /* \"#utility.yul\":14543:14582   */\n      tag_337\n        /* \"#utility.yul\":14576:14581   */\n      dup3\n        /* \"#utility.yul\":14543:14582   */\n      tag_149\n      jump\t// in\n    tag_337:\n        /* \"#utility.yul\":14598:14687   */\n      tag_338\n        /* \"#utility.yul\":14680:14686   */\n      dup2\n        /* \"#utility.yul\":14675:14678   */\n      dup6\n        /* \"#utility.yul\":14598:14687   */\n      tag_172\n      jump\t// in\n    tag_338:\n        /* \"#utility.yul\":14591:14687   */\n      swap4\n      pop\n        /* \"#utility.yul\":14696:14761   */\n      tag_339\n        /* \"#utility.yul\":14754:14760   */\n      dup2\n        /* \"#utility.yul\":14749:14752   */\n      dup6\n        /* \"#utility.yul\":14742:14746   */\n      0x20\n        /* \"#utility.yul\":14735:14740   */\n      dup7\n        /* \"#utility.yul\":14731:14747   */\n      add\n        /* \"#utility.yul\":14696:14761   */\n      tag_151\n      jump\t// in\n    tag_339:\n        /* \"#utility.yul\":14786:14792   */\n      dup1\n        /* \"#utility.yul\":14781:14784   */\n      dup5\n        /* \"#utility.yul\":14777:14793   */\n      add\n        /* \"#utility.yul\":14770:14793   */\n      swap2\n      pop\n        /* \"#utility.yul\":14519:14799   */\n      pop\n        /* \"#utility.yul\":14409:14799   */\n      swap3\n      swap2\n      pop\n      pop\n      jump\t// out\n        /* \"#utility.yul\":14805:15080   */\n    tag_37:\n        /* \"#utility.yul\":14937:14940   */\n      0x00\n        /* \"#utility.yul\":14959:15054   */\n      tag_341\n        /* \"#utility.yul\":15050:15053   */\n      dup3\n        /* \"#utility.yul\":15041:15047   */\n      dup5\n        /* \"#utility.yul\":14959:15054   */\n      tag_173\n      jump\t// in\n    tag_341:\n        /* \"#utility.yul\":14952:15054   */\n      swap2\n      pop\n        /* \"#utility.yul\":15071:15074   */\n      dup2\n        /* \"#utility.yul\":15064:15074   */\n      swap1\n      pop\n        /* \"#utility.yul\":14805:15080   */\n      swap3\n      swap2\n      pop\n      pop\n      jump\t// out\n        /* \"#utility.yul\":15086:15266   */\n    tag_174:\n        /* \"#utility.yul\":15134:15211   */\n      0x4e487b7100000000000000000000000000000000000000000000000000000000\n        /* \"#utility.yul\":15131:15132   */\n      0x00\n        /* \"#utility.yul\":15124:15212   */\n      mstore\n        /* \"#utility.yul\":15231:15235   */\n      0x22\n        /* \"#utility.yul\":15228:15229   */\n      0x04\n        /* \"#utility.yul\":15221:15236   */\n      mstore\n        /* \"#utility.yul\":15255:15259   */\n      0x24\n        /* \"#utility.yul\":15252:15253   */\n      0x00\n        /* \"#utility.yul\":15245:15260   */\n      revert\n        /* \"#utility.yul\":15272:15592   */\n    tag_39:\n        /* \"#utility.yul\":15316:15322   */\n      0x00\n        /* \"#utility.yul\":15353:15354   */\n      0x02\n        /* \"#utility.yul\":15347:15351   */\n      dup3\n        /* \"#utility.yul\":15343:15355   */\n      div\n        /* \"#utility.yul\":15333:15355   */\n      swap1\n      pop\n        /* \"#utility.yul\":15400:15401   */\n      0x01\n        /* \"#utility.yul\":15394:15398   */\n      dup3\n        /* \"#utility.yul\":15390:15402   */\n      and\n        /* \"#utility.yul\":15421:15439   */\n      dup1\n        /* \"#utility.yul\":15411:15492   */\n      tag_344\n      jumpi\n        /* \"#utility.yul\":15477:15481   */\n      0x7f\n        /* \"#utility.yul\":15469:15475   */\n      dup3\n        /* \"#utility.yul\":15465:15482   */\n      and\n        /* \"#utility.yul\":15455:15482   */\n      swap2\n      pop\n        /* \"#utility.yul\":15411:15492   */\n    tag_344:\n        /* \"#utility.yul\":15539:15541   */\n      0x20\n        /* \"#utility.yul\":15531:15537   */\n      dup3\n        /* \"#utility.yul\":15528:15542   */\n      lt\n        /* \"#utility.yul\":15508:15526   */\n      dup2\n        /* \"#utility.yul\":15505:15543   */\n      sub\n        /* \"#utility.yul\":15502:15586   */\n      tag_345\n      jumpi\n        /* \"#utility.yul\":15558:15576   */\n      tag_346\n      tag_174\n      jump\t// in\n    tag_346:\n        /* \"#utility.yul\":15502:15586   */\n    tag_345:\n        /* \"#utility.yul\":15323:15592   */\n      pop\n        /* \"#utility.yul\":15272:15592   */\n      swap2\n      swap1\n      pop\n      jump\t// out\n        /* \"#utility.yul\":15598:15771   */\n    tag_175:\n        /* \"#utility.yul\":15738:15763   */\n      0x456c656374696f6e20616c726561647920657869737473000000000000000000\n        /* \"#utility.yul\":15734:15735   */\n      0x00\n        /* \"#utility.yul\":15726:15732   */\n      dup3\n        /* \"#utility.yul\":15722:15736   */\n      add\n        /* \"#utility.yul\":15715:15764   */\n      mstore\n        /* \"#utility.yul\":15598:15771   */\n      pop\n      jump\t// out\n        /* \"#utility.yul\":15777:16143   */\n    tag_176:\n        /* \"#utility.yul\":15919:15922   */\n      0x00\n        /* \"#utility.yul\":15940:16007   */\n      tag_349\n        /* \"#utility.yul\":16004:16006   */\n      0x17\n        /* \"#utility.yul\":15999:16002   */\n      dup4\n        /* \"#utility.yul\":15940:16007   */\n      tag_150\n      jump\t// in\n    tag_349:\n        /* \"#utility.yul\":15933:16007   */\n      swap2\n      pop\n        /* \"#utility.yul\":16016:16109   */\n      tag_350\n        /* \"#utility.yul\":16105:16108   */\n      dup3\n        /* \"#utility.yul\":16016:16109   */\n      tag_175\n      jump\t// in\n    tag_350:\n        /* \"#utility.yul\":16134:16136   */\n      0x20\n        /* \"#utility.yul\":16129:16132   */\n      dup3\n        /* \"#utility.yul\":16125:16137   */\n      add\n        /* \"#utility.yul\":16118:16137   */\n      swap1\n      pop\n        /* \"#utility.yul\":15777:16143   */\n      swap2\n      swap1\n      pop\n      jump\t// out\n        /* \"#utility.yul\":16149:16568   */\n    tag_42:\n        /* \"#utility.yul\":16315:16319   */\n      0x00\n        /* \"#utility.yul\":16353:16355   */\n      0x20\n        /* \"#utility.yul\":16342:16351   */\n      dup3\n        /* \"#utility.yul\":16338:16356   */\n      add\n        /* \"#utility.yul\":16330:16356   */\n      swap1\n      pop\n        /* \"#utility.yul\":16402:16411   */\n      dup2\n        /* \"#utility.yul\":16396:16400   */\n      dup2\n        /* \"#utility.yul\":16392:16412   */\n      sub\n        /* \"#utility.yul\":16388:16389   */\n      0x00\n        /* \"#utility.yul\":16377:16386   */\n      dup4\n        /* \"#utility.yul\":16373:16390   */\n      add\n        /* \"#utility.yul\":16366:16413   */\n      mstore\n        /* \"#utility.yul\":16430:16561   */\n      tag_352\n        /* \"#utility.yul\":16556:16560   */\n      dup2\n        /* \"#utility.yul\":16430:16561   */\n      tag_176\n      jump\t// in\n    tag_352:\n        /* \"#utility.yul\":16422:16561   */\n      swap1\n      pop\n        /* \"#utility.yul\":16149:16568   */\n      swap2\n      swap1\n      pop\n      jump\t// out\n        /* \"#utility.yul\":16574:16715   */\n    tag_177:\n        /* \"#utility.yul\":16623:16627   */\n      0x00\n        /* \"#utility.yul\":16646:16649   */\n      dup2\n        /* \"#utility.yul\":16638:16649   */\n      swap1\n      pop\n        /* \"#utility.yul\":16669:16672   */\n      dup2\n        /* \"#utility.yul\":16666:16667   */\n      0x00\n        /* \"#utility.yul\":16659:16673   */\n      mstore\n        /* \"#utility.yul\":16703:16707   */\n      0x20\n        /* \"#utility.yul\":16700:16701   */\n      0x00\n        /* \"#utility.yul\":16690:16708   */\n      keccak256\n        /* \"#utility.yul\":16682:16708   */\n      swap1\n      pop\n        /* \"#utility.yul\":16574:16715   */\n      swap2\n      swap1\n      pop\n      jump\t// out\n        /* \"#utility.yul\":16721:16814   */\n    tag_178:\n        /* \"#utility.yul\":16758:16764   */\n      0x00\n        /* \"#utility.yul\":16805:16807   */\n      0x20\n        /* \"#utility.yul\":16800:16802   */\n      0x1f\n        /* \"#utility.yul\":16793:16798   */\n      dup4\n        /* \"#utility.yul\":16789:16803   */\n      add\n        /* \"#utility.yul\":16785:16808   */\n      div\n        /* \"#utility.yul\":16775:16808   */\n      swap1\n      pop\n        /* \"#utility.yul\":16721:16814   */\n      swap2\n      swap1\n      pop\n      jump\t// out\n        /* \"#utility.yul\":16820:16927   */\n    tag_179:\n        /* \"#utility.yul\":16864:16872   */\n      0x00\n        /* \"#utility.yul\":16914:16919   */\n      dup3\n        /* \"#utility.yul\":16908:16912   */\n      dup3\n        /* \"#utility.yul\":16904:16920   */\n      shl\n        /* \"#utility.yul\":16883:16920   */\n      swap1\n      pop\n        /* \"#utility.yul\":16820:16927   */\n      swap3\n      swap2\n      pop\n      pop\n      jump\t// out\n        /* \"#utility.yul\":16933:17326   */\n    tag_180:\n        /* \"#utility.yul\":17002:17008   */\n      0x00\n        /* \"#utility.yul\":17052:17053   */\n      0x08\n        /* \"#utility.yul\":17040:17050   */\n      dup4\n        /* \"#utility.yul\":17036:17054   */\n      mul\n        /* \"#utility.yul\":17075:17172   */\n      tag_357\n        /* \"#utility.yul\":17105:17171   */\n      0xffffffffffffffffffffffffffffffffffffffffffffffffffffffffffffffff\n        /* \"#utility.yul\":17094:17103   */\n      dup3\n        /* \"#utility.yul\":17075:17172   */\n      tag_179\n      jump\t// in\n    tag_357:\n        /* \"#utility.yul\":17193:17232   */\n      tag_358\n        /* \"#utility.yul\":17223:17231   */\n      dup7\n        /* \"#utility.yul\":17212:17221   */\n      dup4\n        /* \"#utility.yul\":17193:17232   */\n      tag_179\n      jump\t// in\n    tag_358:\n        /* \"#utility.yul\":17181:17232   */\n      swap6\n      pop\n        /* \"#utility.yul\":17265:17269   */\n      dup1\n        /* \"#utility.yul\":17261:17270   */\n      not\n        /* \"#utility.yul\":17254:17259   */\n      dup5\n        /* \"#utility.yul\":17250:17271   */\n      and\n        /* \"#utility.yul\":17241:17271   */\n      swap4\n      pop\n        /* \"#utility.yul\":17314:17318   */\n      dup1\n        /* \"#utility.yul\":17304:17312   */\n      dup7\n        /* \"#utility.yul\":17300:17319   */\n      and\n        /* \"#utility.yul\":17293:17298   */\n      dup5\n        /* \"#utility.yul\":17290:17320   */\n      or\n        /* \"#utility.yul\":17280:17320   */\n      swap3\n      pop\n        /* \"#utility.yul\":17009:17326   */\n      pop\n      pop\n        /* \"#utility.yul\":16933:17326   */\n      swap4\n      swap3\n      pop\n      pop\n      pop\n      jump\t// out\n        /* \"#utility.yul\":17332:17392   */\n    tag_181:\n        /* \"#utility.yul\":17360:17363   */\n      0x00\n        /* \"#utility.yul\":17381:17386   */\n      dup2\n        /* \"#utility.yul\":17374:17386   */\n      swap1\n      pop\n        /* \"#utility.yul\":17332:17392   */\n      swap2\n      swap1\n      pop\n      jump\t// out\n        /* \"#utility.yul\":17398:17540   */\n    tag_182:\n        /* \"#utility.yul\":17448:17457   */\n      0x00\n        /* \"#utility.yul\":17481:17534   */\n      tag_361\n        /* \"#utility.yul\":17499:17533   */\n      tag_362\n        /* \"#utility.yul\":17508:17532   */\n      tag_363\n        /* \"#utility.yul\":17526:17531   */\n      dup5\n        /* \"#utility.yul\":17508:17532   */\n      tag_164\n      jump\t// in\n    tag_363:\n        /* \"#utility.yul\":17499:17533   */\n      tag_181\n      jump\t// in\n    tag_362:\n        /* \"#utility.yul\":17481:17534   */\n      tag_164\n      jump\t// in\n    tag_361:\n        /* \"#utility.yul\":17468:17534   */\n      swap1\n      pop\n        /* \"#utility.yul\":17398:17540   */\n      swap2\n      swap1\n      pop\n      jump\t// out\n        /* \"#utility.yul\":17546:17621   */\n    tag_183:\n        /* \"#utility.yul\":17589:17592   */\n      0x00\n        /* \"#utility.yul\":17610:17615   */\n      dup2\n        /* \"#utility.yul\":17603:17615   */\n      swap1\n      pop\n        /* \"#utility.yul\":17546:17621   */\n      swap2\n      swap1\n      pop\n      jump\t// out\n        /* \"#utility.yul\":17627:17896   */\n    tag_184:\n        /* \"#utility.yul\":17737:17776   */\n      tag_366\n        /* \"#utility.yul\":17768:17775   */\n      dup4\n        /* \"#utility.yul\":17737:17776   */\n      tag_182\n      jump\t// in\n    tag_366:\n        /* \"#utility.yul\":17798:17889   */\n      tag_367\n        /* \"#utility.yul\":17847:17888   */\n      tag_368\n        /* \"#utility.yul\":17871:17887   */\n      dup3\n        /* \"#utility.yul\":17847:17888   */\n      tag_183\n      jump\t// in\n    tag_368:\n        /* \"#utility.yul\":17839:17845   */\n      dup5\n        /* \"#utility.yul\":17832:17836   */\n      dup5\n        /* \"#utility.yul\":17826:17837   */\n      sload\n        /* \"#utility.yul\":17798:17889   */\n      tag_180\n      jump\t// in\n    tag_367:\n        /* \"#utility.yul\":17792:17796   */\n      dup3\n        /* \"#utility.yul\":17785:17890   */\n      sstore\n        /* \"#utility.yul\":17703:17896   */\n      pop\n        /* \"#utility.yul\":17627:17896   */\n      pop\n      pop\n      pop\n      jump\t// out\n        /* \"#utility.yul\":17902:17975   */\n    tag_185:\n        /* \"#utility.yul\":17947:17950   */\n      0x00\n        /* \"#utility.yul\":17902:17975   */\n      swap1\n      jump\t// out\n        /* \"#utility.yul\":17981:18170   */\n    tag_186:\n        /* \"#utility.yul\":18058:18090   */\n      tag_371\n      tag_185\n      jump\t// in\n    tag_371:\n        /* \"#utility.yul\":18099:18164   */\n      tag_372\n        /* \"#utility.yul\":18157:18163   */\n      dup2\n        /* \"#utility.yul\":18149:18155   */\n      dup5\n        /* \"#utility.yul\":18143:18147   */\n      dup5\n        /* \"#utility.yul\":18099:18164   */\n      tag_184\n      jump\t// in\n    tag_372:\n        /* \"#utility.yul\":18034:18170   */\n      pop\n        /* \"#utility.yul\":17981:18170   */\n      pop\n      pop\n      jump\t// out\n        /* \"#utility.yul\":18176:18362   */\n    tag_187:\n        /* \"#utility.yul\":18236:18356   */\n    tag_374:\n        /* \"#utility.yul\":18253:18256   */\n      dup2\n        /* \"#utility.yul\":18246:18251   */\n      dup2\n        /* \"#utility.yul\":18243:18257   */\n      lt\n        /* \"#utility.yul\":18236:18356   */\n      iszero\n      tag_376\n      jumpi\n        /* \"#utility.yul\":18307:18346   */\n      tag_377\n        /* \"#utility.yul\":18344:18345   */\n      0x00\n        /* \"#utility.yul\":18337:18342   */\n      dup3\n        /* \"#utility.yul\":18307:18346   */\n      tag_186\n      jump\t// in\n    tag_377:\n        /* \"#utility.yul\":18280:18281   */\n      0x01\n        /* \"#utility.yul\":18273:18278   */\n      dup2\n        /* \"#utility.yul\":18269:18282   */\n      add\n        /* \"#utility.yul\":18260:18282   */\n      swap1\n      pop\n        /* \"#utility.yul\":18236:18356   */\n      jump(tag_374)\n    tag_376:\n        /* \"#utility.yul\":18176:18362   */\n      pop\n      pop\n      jump\t// out\n        /* \"#utility.yul\":18368:18911   */\n    tag_188:\n        /* \"#utility.yul\":18469:18471   */\n      0x1f\n        /* \"#utility.yul\":18464:18467   */\n      dup3\n        /* \"#utility.yul\":18461:18472   */\n      gt\n        /* \"#utility.yul\":18458:18904   */\n      iszero\n      tag_379\n      jumpi\n        /* \"#utility.yul\":18503:18541   */\n      tag_380\n        /* \"#utility.yul\":18535:18540   */\n      dup2\n        /* \"#utility.yul\":18503:18541   */\n      tag_177\n      jump\t// in\n    tag_380:\n        /* \"#utility.yul\":18587:18616   */\n      tag_381\n        /* \"#utility.yul\":18605:18615   */\n      dup5\n        /* \"#utility.yul\":18587:18616   */\n      tag_178\n      jump\t// in\n    tag_381:\n        /* \"#utility.yul\":18577:18585   */\n      dup2\n        /* \"#utility.yul\":18573:18617   */\n      add\n        /* \"#utility.yul\":18770:18772   */\n      0x20\n        /* \"#utility.yul\":18758:18768   */\n      dup6\n        /* \"#utility.yul\":18755:18773   */\n      lt\n        /* \"#utility.yul\":18752:18801   */\n      iszero\n      tag_382\n      jumpi\n        /* \"#utility.yul\":18791:18799   */\n      dup2\n        /* \"#utility.yul\":18776:18799   */\n      swap1\n      pop\n        /* \"#utility.yul\":18752:18801   */\n    tag_382:\n        /* \"#utility.yul\":18814:18894   */\n      tag_383\n        /* \"#utility.yul\":18870:18892   */\n      tag_384\n        /* \"#utility.yul\":18888:18891   */\n      dup6\n        /* \"#utility.yul\":18870:18892   */\n      tag_178\n      jump\t// in\n    tag_384:\n        /* \"#utility.yul\":18860:18868   */\n      dup4\n        /* \"#utility.yul\":18856:18893   */\n      add\n        /* \"#utility.yul\":18843:18854   */\n      dup3\n        /* \"#utility.yul\":18814:18894   */\n      tag_187\n      jump\t// in\n    tag_383:\n        /* \"#utility.yul\":18473:18904   */\n      pop\n      pop\n        /* \"#utility.yul\":18458:18904   */\n    tag_379:\n        /* \"#utility.yul\":18368:18911   */\n      pop\n      pop\n      pop\n      jump\t// out\n        /* \"#utility.yul\":18917:19034   */\n    tag_189:\n        /* \"#utility.yul\":18971:18979   */\n      0x00\n        /* \"#utility.yul\":19021:19026   */\n      dup3\n        /* \"#utility.yul\":19015:19019   */\n      dup3\n        /* \"#utility.yul\":19011:19027   */\n      shr\n        /* \"#utility.yul\":18990:19027   */\n      swap1\n      pop\n        /* \"#utility.yul\":18917:19034   */\n      swap3\n      swap2\n      pop\n      pop\n      jump\t// out\n        /* \"#utility.yul\":19040:19209   */\n    tag_190:\n        /* \"#utility.yul\":19084:19090   */\n      0x00\n        /* \"#utility.yul\":19117:19168   */\n      tag_387\n        /* \"#utility.yul\":19165:19166   */\n      0x00\n        /* \"#utility.yul\":19161:19167   */\n      not\n        /* \"#utility.yul\":19153:19158   */\n      dup5\n        /* \"#utility.yul\":19150:19151   */\n      0x08\n        /* \"#utility.yul\":19146:19159   */\n      mul\n        /* \"#utility.yul\":19117:19168   */\n      tag_189\n      jump\t// in\n    tag_387:\n        /* \"#utility.yul\":19113:19169   */\n      not\n        /* \"#utility.yul\":19198:19202   */\n      dup1\n        /* \"#utility.yul\":19192:19196   */\n      dup4\n        /* \"#utility.yul\":19188:19203   */\n      and\n        /* \"#utility.yul\":19178:19203   */\n      swap2\n      pop\n        /* \"#utility.yul\":19091:19209   */\n      pop\n        /* \"#utility.yul\":19040:19209   */\n      swap3\n      swap2\n      pop\n      pop\n      jump\t// out\n        /* \"#utility.yul\":19214:19509   */\n    tag_191:\n        /* \"#utility.yul\":19290:19294   */\n      0x00\n        /* \"#utility.yul\":19436:19465   */\n      tag_389\n        /* \"#utility.yul\":19461:19464   */\n      dup4\n        /* \"#utility.yul\":19455:19459   */\n      dup4\n        /* \"#utility.yul\":19436:19465   */\n      tag_190\n      jump\t// in\n    tag_389:\n        /* \"#utility.yul\":19428:19465   */\n      swap2\n      pop\n        /* \"#utility.yul\":19498:19501   */\n      dup3\n        /* \"#utility.yul\":19495:19496   */\n      0x02\n        /* \"#utility.yul\":19491:19502   */\n      mul\n        /* \"#utility.yul\":19485:19489   */\n      dup3\n        /* \"#utility.yul\":19482:19503   */\n      or\n        /* \"#utility.yul\":19474:19503   */\n      swap1\n      pop\n        /* \"#utility.yul\":19214:19509   */\n      swap3\n      swap2\n      pop\n      pop\n      jump\t// out\n        /* \"#utility.yul\":19514:20909   */\n    tag_45:\n        /* \"#utility.yul\":19631:19668   */\n      tag_391\n        /* \"#utility.yul\":19664:19667   */\n      dup3\n        /* \"#utility.yul\":19631:19668   */\n      tag_149\n      jump\t// in\n    tag_391:\n        /* \"#utility.yul\":19733:19751   */\n      0xffffffffffffffff\n        /* \"#utility.yul\":19725:19731   */\n      dup2\n        /* \"#utility.yul\":19722:19752   */\n      gt\n        /* \"#utility.yul\":19719:19775   */\n      iszero\n      tag_392\n      jumpi\n        /* \"#utility.yul\":19755:19773   */\n      tag_393\n      tag_70\n      jump\t// in\n    tag_393:\n        /* \"#utility.yul\":19719:19775   */\n    tag_392:\n        /* \"#utility.yul\":19799:19837   */\n      tag_394\n        /* \"#utility.yul\":19831:19835   */\n      dup3\n        /* \"#utility.yul\":19825:19836   */\n      sload\n        /* \"#utility.yul\":19799:19837   */\n      tag_39\n      jump\t// in\n    tag_394:\n        /* \"#utility.yul\":19884:19951   */\n      tag_395\n        /* \"#utility.yul\":19944:19950   */\n      dup3\n        /* \"#utility.yul\":19936:19942   */\n      dup3\n        /* \"#utility.yul\":19930:19934   */\n      dup6\n        /* \"#utility.yul\":19884:19951   */\n      tag_188\n      jump\t// in\n    tag_395:\n        /* \"#utility.yul\":19978:19979   */\n      0x00\n        /* \"#utility.yul\":20002:20006   */\n      0x20\n        /* \"#utility.yul\":19989:20006   */\n      swap1\n      pop\n        /* \"#utility.yul\":20034:20036   */\n      0x1f\n        /* \"#utility.yul\":20026:20032   */\n      dup4\n        /* \"#utility.yul\":20023:20037   */\n      gt\n        /* \"#utility.yul\":20051:20052   */\n      0x01\n        /* \"#utility.yul\":20046:20664   */\n      dup2\n      eq\n      tag_397\n      jumpi\n        /* \"#utility.yul\":20708:20709   */\n      0x00\n        /* \"#utility.yul\":20725:20731   */\n      dup5\n        /* \"#utility.yul\":20722:20799   */\n      iszero\n      tag_398\n      jumpi\n        /* \"#utility.yul\":20774:20783   */\n      dup3\n        /* \"#utility.yul\":20769:20772   */\n      dup8\n        /* \"#utility.yul\":20765:20784   */\n      add\n        /* \"#utility.yul\":20759:20785   */\n      mload\n        /* \"#utility.yul\":20750:20785   */\n      swap1\n      pop\n        /* \"#utility.yul\":20722:20799   */\n    tag_398:\n        /* \"#utility.yul\":20825:20892   */\n      tag_399\n        /* \"#utility.yul\":20885:20891   */\n      dup6\n        /* \"#utility.yul\":20878:20883   */\n      dup3\n        /* \"#utility.yul\":20825:20892   */\n      tag_191\n      jump\t// in\n    tag_399:\n        /* \"#utility.yul\":20819:20823   */\n      dup7\n        /* \"#utility.yul\":20812:20893   */\n      sstore\n        /* \"#utility.yul\":20681:20903   */\n      pop\n        /* \"#utility.yul\":20016:20903   */\n      jump(tag_396)\n        /* \"#utility.yul\":20046:20664   */\n    tag_397:\n        /* \"#utility.yul\":20098:20102   */\n      0x1f\n        /* \"#utility.yul\":20094:20103   */\n      not\n        /* \"#utility.yul\":20086:20092   */\n      dup5\n        /* \"#utility.yul\":20082:20104   */\n      and\n        /* \"#utility.yul\":20132:20169   */\n      tag_400\n        /* \"#utility.yul\":20164:20168   */\n      dup7\n        /* \"#utility.yul\":20132:20169   */\n      tag_177\n      jump\t// in\n    tag_400:\n        /* \"#utility.yul\":20191:20192   */\n      0x00\n        /* \"#utility.yul\":20205:20413   */\n    tag_401:\n        /* \"#utility.yul\":20219:20226   */\n      dup3\n        /* \"#utility.yul\":20216:20217   */\n      dup2\n        /* \"#utility.yul\":20213:20227   */\n      lt\n        /* \"#utility.yul\":20205:20413   */\n      iszero\n      tag_403\n      jumpi\n        /* \"#utility.yul\":20298:20307   */\n      dup5\n        /* \"#utility.yul\":20293:20296   */\n      dup10\n        /* \"#utility.yul\":20289:20308   */\n      add\n        /* \"#utility.yul\":20283:20309   */\n      mload\n        /* \"#utility.yul\":20275:20281   */\n      dup3\n        /* \"#utility.yul\":20268:20310   */\n      sstore\n        /* \"#utility.yul\":20349:20350   */\n      0x01\n        /* \"#utility.yul\":20341:20347   */\n      dup3\n        /* \"#utility.yul\":20337:20351   */\n      add\n        /* \"#utility.yul\":20327:20351   */\n      swap2\n      pop\n        /* \"#utility.yul\":20396:20398   */\n      0x20\n        /* \"#utility.yul\":20385:20394   */\n      dup6\n        /* \"#utility.yul\":20381:20399   */\n      add\n        /* \"#utility.yul\":20368:20399   */\n      swap5\n      pop\n        /* \"#utility.yul\":20242:20246   */\n      0x20\n        /* \"#utility.yul\":20239:20240   */\n      dup2\n        /* \"#utility.yul\":20235:20247   */\n      add\n        /* \"#utility.yul\":20230:20247   */\n      swap1\n      pop\n        /* \"#utility.yul\":20205:20413   */\n      jump(tag_401)\n    tag_403:\n        /* \"#utility.yul\":20441:20447   */\n      dup7\n        /* \"#utility.yul\":20432:20439   */\n      dup4\n        /* \"#utility.yul\":20429:20448   */\n      lt\n        /* \"#utility.yul\":20426:20605   */\n      iszero\n      tag_404\n      jumpi\n        /* \"#utility.yul\":20499:20508   */\n      dup5\n        /* \"#utility.yul\":20494:20497   */\n      dup10\n        /* \"#utility.yul\":20490:20509   */\n      add\n        /* \"#utility.yul\":20484:20510   */\n      mload\n        /* \"#utility.yul\":20542:20590   */\n      tag_405\n        /* \"#utility.yul\":20584:20588   */\n      0x1f\n        /* \"#utility.yul\":20576:20582   */\n      dup10\n        /* \"#utility.yul\":20572:20589   */\n      and\n        /* \"#utility.yul\":20561:20570   */\n      dup3\n        /* \"#utility.yul\":20542:20590   */\n      tag_190\n      jump\t// in\n    tag_405:\n        /* \"#utility.yul\":20534:20540   */\n      dup4\n        /* \"#utility.yul\":20527:20591   */\n      sstore\n        /* \"#utility.yul\":20449:20605   */\n      pop\n        /* \"#utility.yul\":20426:20605   */\n    tag_404:\n        /* \"#utility.yul\":20651:20652   */\n      0x01\n        /* \"#utility.yul\":20647:20648   */\n      0x02\n        /* \"#utility.yul\":20639:20645   */\n      dup9\n        /* \"#utility.yul\":20635:20649   */\n      mul\n        /* \"#utility.yul\":20631:20653   */\n      add\n        /* \"#utility.yul\":20625:20629   */\n      dup9\n        /* \"#utility.yul\":20618:20654   */\n      sstore\n        /* \"#utility.yul\":20053:20664   */\n      pop\n      pop\n      pop\n        /* \"#utility.yul\":20016:20903   */\n    tag_396:\n      pop\n        /* \"#utility.yul\":19606:20909   */\n      pop\n      pop\n      pop\n        /* \"#utility.yul\":19514:20909   */\n      pop\n      pop\n      jump\t// out\n        /* \"#utility.yul\":20915:21095   */\n    tag_52:\n        /* \"#utility.yul\":20963:21040   */\n      0x4e487b7100000000000000000000000000000000000000000000000000000000\n        /* \"#utility.yul\":20960:20961   */\n      0x00\n        /* \"#utility.yul\":20953:21041   */\n      mstore\n        /* \"#utility.yul\":21060:21064   */\n      0x32\n        /* \"#utility.yul\":21057:21058   */\n      0x04\n        /* \"#utility.yul\":21050:21065   */\n      mstore\n        /* \"#utility.yul\":21084:21088   */\n      0x24\n        /* \"#utility.yul\":21081:21082   */\n      0x00\n        /* \"#utility.yul\":21074:21089   */\n      revert\n        /* \"#utility.yul\":21101:21274   */\n    tag_192:\n        /* \"#utility.yul\":21241:21266   */\n      0x456c656374696f6e20646f6573206e6f74206578697374000000000000000000\n        /* \"#utility.yul\":21237:21238   */\n      0x00\n        /* \"#utility.yul\":21229:21235   */\n      dup3\n        /* \"#utility.yul\":21225:21239   */\n      add\n        /* \"#utility.yul\":21218:21267   */\n      mstore\n        /* \"#utility.yul\":21101:21274   */\n      pop\n      jump\t// out\n        /* \"#utility.yul\":21280:21646   */\n    tag_193:\n        /* \"#utility.yul\":21422:21425   */\n      0x00\n        /* \"#utility.yul\":21443:21510   */\n      tag_409\n        /* \"#utility.yul\":21507:21509   */\n      0x17\n        /* \"#utility.yul\":21502:21505   */\n      dup4\n        /* \"#utility.yul\":21443:21510   */\n      tag_150\n      jump\t// in\n    tag_409:\n        /* \"#utility.yul\":21436:21510   */\n      swap2\n      pop\n        /* \"#utility.yul\":21519:21612   */\n      tag_410\n        /* \"#utility.yul\":21608:21611   */\n      dup3\n        /* \"#utility.yul\":21519:21612   */\n      tag_192\n      jump\t// in\n    tag_410:\n        /* \"#utility.yul\":21637:21639   */\n      0x20\n        /* \"#utility.yul\":21632:21635   */\n      dup3\n        /* \"#utility.yul\":21628:21640   */\n      add\n        /* \"#utility.yul\":21621:21640   */\n      swap1\n      pop\n        /* \"#utility.yul\":21280:21646   */\n      swap2\n      swap1\n      pop\n      jump\t// out\n        /* \"#utility.yul\":21652:22071   */\n    tag_66:\n        /* \"#utility.yul\":21818:21822   */\n      0x00\n        /* \"#utility.yul\":21856:21858   */\n      0x20\n        /* \"#utility.yul\":21845:21854   */\n      dup3\n        /* \"#utility.yul\":21841:21859   */\n      add\n        /* \"#utility.yul\":21833:21859   */\n      swap1\n      pop\n        /* \"#utility.yul\":21905:21914   */\n      dup2\n        /* \"#utility.yul\":21899:21903   */\n      dup2\n        /* \"#utility.yul\":21895:21915   */\n      sub\n        /* \"#utility.yul\":21891:21892   */\n      0x00\n        /* \"#utility.yul\":21880:21889   */\n      dup4\n        /* \"#utility.yul\":21876:21893   */\n      add\n        /* \"#utility.yul\":21869:21916   */\n      mstore\n        /* \"#utility.yul\":21933:22064   */\n      tag_412\n        /* \"#utility.yul\":22059:22063   */\n      dup2\n        /* \"#utility.yul\":21933:22064   */\n      tag_193\n      jump\t// in\n    tag_412:\n        /* \"#utility.yul\":21925:22064   */\n      swap1\n      pop\n        /* \"#utility.yul\":21652:22071   */\n      swap2\n      swap1\n      pop\n      jump\t// out\n        /* \"#utility.yul\":22101:22975   */\n    tag_194:\n        /* \"#utility.yul\":22204:22207   */\n      0x00\n        /* \"#utility.yul\":22241:22246   */\n      dup2\n        /* \"#utility.yul\":22235:22247   */\n      sload\n        /* \"#utility.yul\":22270:22306   */\n      tag_414\n        /* \"#utility.yul\":22296:22305   */\n      dup2\n        /* \"#utility.yul\":22270:22306   */\n      tag_39\n      jump\t// in\n    tag_414:\n        /* \"#utility.yul\":22322:22411   */\n      tag_415\n        /* \"#utility.yul\":22404:22410   */\n      dup2\n        /* \"#utility.yul\":22399:22402   */\n      dup7\n        /* \"#utility.yul\":22322:22411   */\n      tag_172\n      jump\t// in\n    tag_415:\n        /* \"#utility.yul\":22315:22411   */\n      swap5\n      pop\n        /* \"#utility.yul\":22442:22443   */\n      0x01\n        /* \"#utility.yul\":22431:22440   */\n      dup3\n        /* \"#utility.yul\":22427:22444   */\n      and\n        /* \"#utility.yul\":22458:22459   */\n      0x00\n        /* \"#utility.yul\":22453:22619   */\n      dup2\n      eq\n      tag_417\n      jumpi\n        /* \"#utility.yul\":22633:22634   */\n      0x01\n        /* \"#utility.yul\":22628:22969   */\n      dup2\n      eq\n      tag_418\n      jumpi\n        /* \"#utility.yul\":22420:22969   */\n      jump(tag_416)\n        /* \"#utility.yul\":22453:22619   */\n    tag_417:\n        /* \"#utility.yul\":22537:22541   */\n      0xff\n        /* \"#utility.yul\":22533:22542   */\n      not\n        /* \"#utility.yul\":22522:22531   */\n      dup4\n        /* \"#utility.yul\":22518:22543   */\n      and\n        /* \"#utility.yul\":22513:22516   */\n      dup7\n        /* \"#utility.yul\":22506:22544   */\n      mstore\n        /* \"#utility.yul\":22599:22605   */\n      dup2\n        /* \"#utility.yul\":22592:22606   */\n      iszero\n        /* \"#utility.yul\":22585:22607   */\n      iszero\n        /* \"#utility.yul\":22577:22583   */\n      dup3\n        /* \"#utility.yul\":22573:22608   */\n      mul\n        /* \"#utility.yul\":22568:22571   */\n      dup7\n        /* \"#utility.yul\":22564:22609   */\n      add\n        /* \"#utility.yul\":22557:22609   */\n      swap4\n      pop\n        /* \"#utility.yul\":22453:22619   */\n      jump(tag_416)\n        /* \"#utility.yul\":22628:22969   */\n    tag_418:\n        /* \"#utility.yul\":22695:22733   */\n      tag_419\n        /* \"#utility.yul\":22727:22732   */\n      dup6\n        /* \"#utility.yul\":22695:22733   */\n      tag_177\n      jump\t// in\n    tag_419:\n        /* \"#utility.yul\":22755:22756   */\n      0x00\n        /* \"#utility.yul\":22769:22923   */\n    tag_420:\n        /* \"#utility.yul\":22783:22789   */\n      dup4\n        /* \"#utility.yul\":22780:22781   */\n      dup2\n        /* \"#utility.yul\":22777:22790   */\n      lt\n        /* \"#utility.yul\":22769:22923   */\n      iszero\n      tag_422\n      jumpi\n        /* \"#utility.yul\":22857:22864   */\n      dup2\n        /* \"#utility.yul\":22851:22865   */\n      sload\n        /* \"#utility.yul\":22847:22848   */\n      dup2\n        /* \"#utility.yul\":22842:22845   */\n      dup10\n        /* \"#utility.yul\":22838:22849   */\n      add\n        /* \"#utility.yul\":22831:22866   */\n      mstore\n        /* \"#utility.yul\":22907:22908   */\n      0x01\n        /* \"#utility.yul\":22898:22905   */\n      dup3\n        /* \"#utility.yul\":22894:22909   */\n      add\n        /* \"#utility.yul\":22883:22909   */\n      swap2\n      pop\n        /* \"#utility.yul\":22805:22809   */\n      0x20\n        /* \"#utility.yul\":22802:22803   */\n      dup2\n        /* \"#utility.yul\":22798:22810   */\n      add\n        /* \"#utility.yul\":22793:22810   */\n      swap1\n      pop\n        /* \"#utility.yul\":22769:22923   */\n      jump(tag_420)\n    tag_422:\n        /* \"#utility.yul\":22952:22958   */\n      dup4\n        /* \"#utility.yul\":22947:22950   */\n      dup9\n        /* \"#utility.yul\":22943:22959   */\n      add\n        /* \"#utility.yul\":22936:22959   */\n      swap6\n      pop\n        /* \"#utility.yul\":22635:22969   */\n      pop\n      pop\n        /* \"#utility.yul\":22420:22969   */\n    tag_416:\n      pop\n        /* \"#utility.yul\":22208:22975   */\n      pop\n      pop\n        /* \"#utility.yul\":22101:22975   */\n      swap3\n      swap2\n      pop\n      pop\n      jump\t// out\n        /* \"#utility.yul\":22981:23250   */\n    tag_79:\n        /* \"#utility.yul\":23110:23113   */\n      0x00\n        /* \"#utility.yul\":23132:23224   */\n      tag_424\n        /* \"#utility.yul\":23220:23223   */\n      dup3\n        /* \"#utility.yul\":23211:23217   */\n      dup5\n        /* \"#utility.yul\":23132:23224   */\n      tag_194\n      jump\t// in\n    tag_424:\n        /* \"#utility.yul\":23125:23224   */\n      swap2\n      pop\n        /* \"#utility.yul\":23241:23244   */\n      dup2\n        /* \"#utility.yul\":23234:23244   */\n      swap1\n      pop\n        /* \"#utility.yul\":22981:23250   */\n      swap3\n      swap2\n      pop\n      pop\n      jump\t// out\n        /* \"#utility.yul\":23256:23436   */\n    tag_195:\n        /* \"#utility.yul\":23304:23381   */\n      0x4e487b7100000000000000000000000000000000000000000000000000000000\n        /* \"#utility.yul\":23301:23302   */\n      0x00\n        /* \"#utility.yul\":23294:23382   */\n      mstore\n        /* \"#utility.yul\":23401:23405   */\n      0x11\n        /* \"#utility.yul\":23398:23399   */\n      0x04\n        /* \"#utility.yul\":23391:23406   */\n      mstore\n        /* \"#utility.yul\":23425:23429   */\n      0x24\n        /* \"#utility.yul\":23422:23423   */\n      0x00\n        /* \"#utility.yul\":23415:23430   */\n      revert\n        /* \"#utility.yul\":23442:23675   */\n    tag_130:\n        /* \"#utility.yul\":23481:23484   */\n      0x00\n        /* \"#utility.yul\":23504:23528   */\n      tag_427\n        /* \"#utility.yul\":23522:23527   */\n      dup3\n        /* \"#utility.yul\":23504:23528   */\n      tag_164\n      jump\t// in\n    tag_427:\n        /* \"#utility.yul\":23495:23528   */\n      swap2\n      pop\n        /* \"#utility.yul\":23550:23616   */\n      0xffffffffffffffffffffffffffffffffffffffffffffffffffffffffffffffff\n        /* \"#utility.yul\":23543:23548   */\n      dup3\n        /* \"#utility.yul\":23540:23617   */\n      sub\n        /* \"#utility.yul\":23537:23640   */\n      tag_428\n      jumpi\n        /* \"#utility.yul\":23620:23638   */\n      tag_429\n      tag_195\n      jump\t// in\n    tag_429:\n        /* \"#utility.yul\":23537:23640   */\n    tag_428:\n        /* \"#utility.yul\":23667:23668   */\n      0x01\n        /* \"#utility.yul\":23660:23665   */\n      dup3\n        /* \"#utility.yul\":23656:23669   */\n      add\n        /* \"#utility.yul\":23649:23669   */\n      swap1\n      pop\n        /* \"#utility.yul\":23442:23675   */\n      swap2\n      swap1\n      pop\n      jump\t// out\n        /* \"#utility.yul\":23681:24195   */\n    tag_132:\n        /* \"#utility.yul\":23842:23846   */\n      0x00\n        /* \"#utility.yul\":23880:23882   */\n      0x40\n        /* \"#utility.yul\":23869:23878   */\n      dup3\n        /* \"#utility.yul\":23865:23883   */\n      add\n        /* \"#utility.yul\":23857:23883   */\n      swap1\n      pop\n        /* \"#utility.yul\":23929:23938   */\n      dup2\n        /* \"#utility.yul\":23923:23927   */\n      dup2\n        /* \"#utility.yul\":23919:23939   */\n      sub\n        /* \"#utility.yul\":23915:23916   */\n      0x00\n        /* \"#utility.yul\":23904:23913   */\n      dup4\n        /* \"#utility.yul\":23900:23917   */\n      add\n        /* \"#utility.yul\":23893:23940   */\n      mstore\n        /* \"#utility.yul\":23957:24035   */\n      tag_431\n        /* \"#utility.yul\":24030:24034   */\n      dup2\n        /* \"#utility.yul\":24021:24027   */\n      dup6\n        /* \"#utility.yul\":23957:24035   */\n      tag_152\n      jump\t// in\n    tag_431:\n        /* \"#utility.yul\":23949:24035   */\n      swap1\n      pop\n        /* \"#utility.yul\":24082:24091   */\n      dup2\n        /* \"#utility.yul\":24076:24080   */\n      dup2\n        /* \"#utility.yul\":24072:24092   */\n      sub\n        /* \"#utility.yul\":24067:24069   */\n      0x20\n        /* \"#utility.yul\":24056:24065   */\n      dup4\n        /* \"#utility.yul\":24052:24070   */\n      add\n        /* \"#utility.yul\":24045:24093   */\n      mstore\n        /* \"#utility.yul\":24110:24188   */\n      tag_432\n        /* \"#utility.yul\":24183:24187   */\n      dup2\n        /* \"#utility.yul\":24174:24180   */\n      dup5\n        /* \"#utility.yul\":24110:24188   */\n      tag_152\n      jump\t// in\n    tag_432:\n        /* \"#utility.yul\":24102:24188   */\n      swap1\n      pop\n        /* \"#utility.yul\":23681:24195   */\n      swap4\n      swap3\n      pop\n      pop\n      pop\n      jump\t// out\n\n    auxdata: 0xa2646970667358221220334efca164f37423f949a906c1ced97dc5b14dbb1774c1b77f804dfc7b88097464736f6c63430008160033\n}\n",
				"bytecode": {
					"linkReferences": {},
					"object": "608060405234801561000f575f80fd5b506115ef8061001d5f395ff3fe608060405234801561000f575f80fd5b5060043610610055575f3560e01c806330117d2414610059578063897de252146100755780639d3adf5b146100a7578063b7ff50fc146100d7578063e8d5940d14610107575b5f80fd5b610073600480360381019061006e9190610bfa565b610123565b005b61008f600480360381019061008a9190610c70565b6102e2565b60405161009e93929190610ef4565b60405180910390f35b6100c160048036038101906100bc9190610c70565b6105f3565b6040516100ce9190610f3e565b60405180910390f35b6100f160048036038101906100ec9190610f5e565b610797565b6040516100fe9190610fe3565b60405180910390f35b610121600480360381019061011c9190610f5e565b61088d565b005b5f825111610166576040517f08c379a000000000000000000000000000000000000000000000000000000000815260040161015d90611046565b60405180910390fd5b5f8083604051610176919061109e565b90815260200160405180910390205f018054610191906110e1565b9050146101d3576040517f08c379a00000000000000000000000000000000000000000000000000000000081526004016101ca9061115b565b60405180910390fd5b815f836040516101e3919061109e565b90815260200160405180910390205f0190816101ff9190611316565b505f5b81518110156102dd575f808460405161021b919061109e565b908152602001604051809103902060020183838151811061023f5761023e6113e5565b5b6020026020010151604051610254919061109e565b9081526020016040518091039020819055505f83604051610275919061109e565b9081526020016040518091039020600101828281518110610299576102986113e5565b5b6020026020010151908060018154018082558091505060019003905f5260205f20015f9091909190915090816102cf9190611316565b508080600101915050610202565b505050565b60608060605f84511161032a576040517f08c379a000000000000000000000000000000000000000000000000000000000815260040161032190611046565b60405180910390fd5b5f808560405161033a919061109e565b90815260200160405180910390205f018054610355906110e1565b905011610397576040517f08c379a000000000000000000000000000000000000000000000000000000000815260040161038e9061145c565b60405180910390fd5b5f80856040516103a7919061109e565b908152602001604051809103902090505f816001018054905090505f8167ffffffffffffffff8111156103dd576103dc6109f4565b5b60405190808252806020026020018201604052801561040b5781602001602082028036833780820191505090505b5090505f5b828110156104825783600201846001018281548110610432576104316113e5565b5b905f5260205f200160405161044791906114fa565b908152602001604051809103902054828281518110610469576104686113e5565b5b6020026020010181815250508080600101915050610410565b50825f018360010182828054610497906110e1565b80601f01602080910402602001604051908101604052809291908181526020018280546104c3906110e1565b801561050e5780601f106104e55761010080835404028352916020019161050e565b820191905f5260205f20905b8154815290600101906020018083116104f157829003601f168201915b5050505050925081805480602002602001604051908101604052809291908181526020015f905b828210156105dd578382905f5260205f20018054610552906110e1565b80601f016020809104026020016040519081016040528092919081815260200182805461057e906110e1565b80156105c95780601f106105a0576101008083540402835291602001916105c9565b820191905f5260205f20905b8154815290600101906020018083116105ac57829003601f168201915b505050505081526020019060010190610535565b5050505091509550955095505050509193909250565b60605f825111610638576040517f08c379a000000000000000000000000000000000000000000000000000000000815260040161062f90611046565b60405180910390fd5b5f8083604051610648919061109e565b90815260200160405180910390205f018054610663906110e1565b9050116106a5576040517f08c379a000000000000000000000000000000000000000000000000000000000815260040161069c9061145c565b60405180910390fd5b5f826040516106b4919061109e565b9081526020016040518091039020600101805480602002602001604051908101604052809291908181526020015f905b8282101561078c578382905f5260205f20018054610701906110e1565b80601f016020809104026020016040519081016040528092919081815260200182805461072d906110e1565b80156107785780601f1061074f57610100808354040283529160200191610778565b820191905f5260205f20905b81548152906001019060200180831161075b57829003601f168201915b5050505050815260200190600101906106e4565b505050509050919050565b5f808351116107db576040517f08c379a00000000000000000000000000000000000000000000000000000000081526004016107d290611046565b60405180910390fd5b5f80846040516107eb919061109e565b90815260200160405180910390205f018054610806906110e1565b905011610848576040517f08c379a000000000000000000000000000000000000000000000000000000000815260040161083f9061145c565b60405180910390fd5b5f83604051610857919061109e565b908152602001604051809103902060020182604051610876919061109e565b908152602001604051809103902054905092915050565b5f8251116108d0576040517f08c379a00000000000000000000000000000000000000000000000000000000081526004016108c790611046565b60405180910390fd5b5f80836040516108e0919061109e565b90815260200160405180910390205f0180546108fb906110e1565b90501161093d576040517f08c379a00000000000000000000000000000000000000000000000000000000081526004016109349061145c565b60405180910390fd5b5f8260405161094c919061109e565b90815260200160405180910390206002018160405161096b919061109e565b90815260200160405180910390205f8154809291906109899061153d565b91905055507f137ad23732468494166ec34d1367743690ffa17f6ceac8429cba8fc35d088b6e82826040516109bf929190611584565b60405180910390a15050565b5f604051905090565b5f80fd5b5f80fd5b5f80fd5b5f80fd5b5f601f19601f8301169050919050565b7f4e487b71000000000000000000000000000000000000000000000000000000005f52604160045260245ffd5b610a2a826109e4565b810181811067ffffffffffffffff82111715610a4957610a486109f4565b5b80604052505050565b5f610a5b6109cb565b9050610a678282610a21565b919050565b5f67ffffffffffffffff821115610a8657610a856109f4565b5b610a8f826109e4565b9050602081019050919050565b828183375f83830152505050565b5f610abc610ab784610a6c565b610a52565b905082815260208101848484011115610ad857610ad76109e0565b5b610ae3848285610a9c565b509392505050565b5f82601f830112610aff57610afe6109dc565b5b8135610b0f848260208601610aaa565b91505092915050565b5f67ffffffffffffffff821115610b3257610b316109f4565b5b602082029050602081019050919050565b5f80fd5b5f610b59610b5484610b18565b610a52565b90508083825260208201905060208402830185811115610b7c57610b7b610b43565b5b835b81811015610bc357803567ffffffffffffffff811115610ba157610ba06109dc565b5b808601610bae8982610aeb565b85526020850194505050602081019050610b7e565b5050509392505050565b5f82601f830112610be157610be06109dc565b5b8135610bf1848260208601610b47565b91505092915050565b5f8060408385031215610c1057610c0f6109d4565b5b5f83013567ffffffffffffffff811115610c2d57610c2c6109d8565b5b610c3985828601610aeb565b925050602083013567ffffffffffffffff811115610c5a57610c596109d8565b5b610c6685828601610bcd565b9150509250929050565b5f60208284031215610c8557610c846109d4565b5b5f82013567ffffffffffffffff811115610ca257610ca16109d8565b5b610cae84828501610aeb565b91505092915050565b5f81519050919050565b5f82825260208201905092915050565b5f5b83811015610cee578082015181840152602081019050610cd3565b5f8484015250505050565b5f610d0382610cb7565b610d0d8185610cc1565b9350610d1d818560208601610cd1565b610d26816109e4565b840191505092915050565b5f81519050919050565b5f82825260208201905092915050565b5f819050602082019050919050565b5f82825260208201905092915050565b5f610d7482610cb7565b610d7e8185610d5a565b9350610d8e818560208601610cd1565b610d97816109e4565b840191505092915050565b5f610dad8383610d6a565b905092915050565b5f602082019050919050565b5f610dcb82610d31565b610dd58185610d3b565b935083602082028501610de785610d4b565b805f5b85811015610e225784840389528151610e038582610da2565b9450610e0e83610db5565b925060208a01995050600181019050610dea565b50829750879550505050505092915050565b5f81519050919050565b5f82825260208201905092915050565b5f819050602082019050919050565b5f819050919050565b610e6f81610e5d565b82525050565b5f610e808383610e66565b60208301905092915050565b5f602082019050919050565b5f610ea282610e34565b610eac8185610e3e565b9350610eb783610e4e565b805f5b83811015610ee7578151610ece8882610e75565b9750610ed983610e8c565b925050600181019050610eba565b5085935050505092915050565b5f6060820190508181035f830152610f0c8186610cf9565b90508181036020830152610f208185610dc1565b90508181036040830152610f348184610e98565b9050949350505050565b5f6020820190508181035f830152610f568184610dc1565b905092915050565b5f8060408385031215610f7457610f736109d4565b5b5f83013567ffffffffffffffff811115610f9157610f906109d8565b5b610f9d85828601610aeb565b925050602083013567ffffffffffffffff811115610fbe57610fbd6109d8565b5b610fca85828601610aeb565b9150509250929050565b610fdd81610e5d565b82525050565b5f602082019050610ff65f830184610fd4565b92915050565b7f456c656374696f6e206e616d652063616e6e6f7420626520656d7074790000005f82015250565b5f611030601d83610cc1565b915061103b82610ffc565b602082019050919050565b5f6020820190508181035f83015261105d81611024565b9050919050565b5f81905092915050565b5f61107882610cb7565b6110828185611064565b9350611092818560208601610cd1565b80840191505092915050565b5f6110a9828461106e565b915081905092915050565b7f4e487b71000000000000000000000000000000000000000000000000000000005f52602260045260245ffd5b5f60028204905060018216806110f857607f821691505b60208210810361110b5761110a6110b4565b5b50919050565b7f456c656374696f6e20616c7265616479206578697374730000000000000000005f82015250565b5f611145601783610cc1565b915061115082611111565b602082019050919050565b5f6020820190508181035f83015261117281611139565b9050919050565b5f819050815f5260205f209050919050565b5f6020601f8301049050919050565b5f82821b905092915050565b5f600883026111d57fffffffffffffffffffffffffffffffffffffffffffffffffffffffffffffffff8261119a565b6111df868361119a565b95508019841693508086168417925050509392505050565b5f819050919050565b5f61121a61121561121084610e5d565b6111f7565b610e5d565b9050919050565b5f819050919050565b61123383611200565b61124761123f82611221565b8484546111a6565b825550505050565b5f90565b61125b61124f565b61126681848461122a565b505050565b5b818110156112895761127e5f82611253565b60018101905061126c565b5050565b601f8211156112ce5761129f81611179565b6112a88461118b565b810160208510156112b7578190505b6112cb6112c38561118b565b83018261126b565b50505b505050565b5f82821c905092915050565b5f6112ee5f19846008026112d3565b1980831691505092915050565b5f61130683836112df565b9150826002028217905092915050565b61131f82610cb7565b67ffffffffffffffff811115611338576113376109f4565b5b61134282546110e1565b61134d82828561128d565b5f60209050601f83116001811461137e575f841561136c578287015190505b61137685826112fb565b8655506113dd565b601f19841661138c86611179565b5f5b828110156113b35784890151825560018201915060208501945060208101905061138e565b868310156113d057848901516113cc601f8916826112df565b8355505b6001600288020188555050505b505050505050565b7f4e487b71000000000000000000000000000000000000000000000000000000005f52603260045260245ffd5b7f456c656374696f6e20646f6573206e6f742065786973740000000000000000005f82015250565b5f611446601783610cc1565b915061145182611412565b602082019050919050565b5f6020820190508181035f8301526114738161143a565b9050919050565b5f8154611486816110e1565b6114908186611064565b9450600182165f81146114aa57600181146114bf576114f1565b60ff19831686528115158202860193506114f1565b6114c885611179565b5f5b838110156114e9578154818901526001820191506020810190506114ca565b838801955050505b50505092915050565b5f611505828461147a565b915081905092915050565b7f4e487b71000000000000000000000000000000000000000000000000000000005f52601160045260245ffd5b5f61154782610e5d565b91507fffffffffffffffffffffffffffffffffffffffffffffffffffffffffffffffff820361157957611578611510565b5b600182019050919050565b5f6040820190508181035f83015261159c8185610cf9565b905081810360208301526115b08184610cf9565b9050939250505056fea2646970667358221220334efca164f37423f949a906c1ced97dc5b14dbb1774c1b77f804dfc7b88097464736f6c63430008160033",
					"opcodes": "PUSH1 0x80 PUSH1 0x40 MSTORE CALLVALUE DUP1 ISZERO PUSH2 0xF JUMPI PUSH0 DUP1 REVERT JUMPDEST POP PUSH2 0x15EF DUP1 PUSH2 0x1D PUSH0 CODECOPY PUSH0 RETURN INVALID PUSH1 0x80 PUSH1 0x40 MSTORE CALLVALUE DUP1 ISZERO PUSH2 0xF JUMPI PUSH0 DUP1 REVERT JUMPDEST POP PUSH1 0x4 CALLDATASIZE LT PUSH2 0x55 JUMPI PUSH0 CALLDATALOAD PUSH1 0xE0 SHR DUP1 PUSH4 0x30117D24 EQ PUSH2 0x59 JUMPI DUP1 PUSH4 0x897DE252 EQ PUSH2 0x75 JUMPI DUP1 PUSH4 0x9D3ADF5B EQ PUSH2 0xA7 JUMPI DUP1 PUSH4 0xB7FF50FC EQ PUSH2 0xD7 JUMPI DUP1 PUSH4 0xE8D5940D EQ PUSH2 0x107 JUMPI JUMPDEST PUSH0 DUP1 REVERT JUMPDEST PUSH2 0x73 PUSH1 0x4 DUP1 CALLDATASIZE SUB DUP2 ADD SWAP1 PUSH2 0x6E SWAP2 SWAP1 PUSH2 0xBFA JUMP JUMPDEST PUSH2 0x123 JUMP JUMPDEST STOP JUMPDEST PUSH2 0x8F PUSH1 0x4 DUP1 CALLDATASIZE SUB DUP2 ADD SWAP1 PUSH2 0x8A SWAP2 SWAP1 PUSH2 0xC70 JUMP JUMPDEST PUSH2 0x2E2 JUMP JUMPDEST PUSH1 0x40 MLOAD PUSH2 0x9E SWAP4 SWAP3 SWAP2 SWAP1 PUSH2 0xEF4 JUMP JUMPDEST PUSH1 0x40 MLOAD DUP1 SWAP2 SUB SWAP1 RETURN JUMPDEST PUSH2 0xC1 PUSH1 0x4 DUP1 CALLDATASIZE SUB DUP2 ADD SWAP1 PUSH2 0xBC SWAP2 SWAP1 PUSH2 0xC70 JUMP JUMPDEST PUSH2 0x5F3 JUMP JUMPDEST PUSH1 0x40 MLOAD PUSH2 0xCE SWAP2 SWAP1 PUSH2 0xF3E JUMP JUMPDEST PUSH1 0x40 MLOAD DUP1 SWAP2 SUB SWAP1 RETURN JUMPDEST PUSH2 0xF1 PUSH1 0x4 DUP1 CALLDATASIZE SUB DUP2 ADD SWAP1 PUSH2 0xEC SWAP2 SWAP1 PUSH2 0xF5E JUMP JUMPDEST PUSH2 0x797 JUMP JUMPDEST PUSH1 0x40 MLOAD PUSH2 0xFE SWAP2 SWAP1 PUSH2 0xFE3 JUMP JUMPDEST PUSH1 0x40 MLOAD DUP1 SWAP2 SUB SWAP1 RETURN JUMPDEST PUSH2 0x121 PUSH1 0x4 DUP1 CALLDATASIZE SUB DUP2 ADD SWAP1 PUSH2 0x11C SWAP2 SWAP1 PUSH2 0xF5E JUMP JUMPDEST PUSH2 0x88D JUMP JUMPDEST STOP JUMPDEST PUSH0 DUP3 MLOAD GT PUSH2 0x166 JUMPI PUSH1 0x40 MLOAD PUSH32 0x8C379A000000000000000000000000000000000000000000000000000000000 DUP2 MSTORE PUSH1 0x4 ADD PUSH2 0x15D SWAP1 PUSH2 0x1046 JUMP JUMPDEST PUSH1 0x40 MLOAD DUP1 SWAP2 SUB SWAP1 REVERT JUMPDEST PUSH0 DUP1 DUP4 PUSH1 0x40 MLOAD PUSH2 0x176 SWAP2 SWAP1 PUSH2 0x109E JUMP JUMPDEST SWAP1 DUP2 MSTORE PUSH1 0x20 ADD PUSH1 0x40 MLOAD DUP1 SWAP2 SUB SWAP1 KECCAK256 PUSH0 ADD DUP1 SLOAD PUSH2 0x191 SWAP1 PUSH2 0x10E1 JUMP JUMPDEST SWAP1 POP EQ PUSH2 0x1D3 JUMPI PUSH1 0x40 MLOAD PUSH32 0x8C379A000000000000000000000000000000000000000000000000000000000 DUP2 MSTORE PUSH1 0x4 ADD PUSH2 0x1CA SWAP1 PUSH2 0x115B JUMP JUMPDEST PUSH1 0x40 MLOAD DUP1 SWAP2 SUB SWAP1 REVERT JUMPDEST DUP2 PUSH0 DUP4 PUSH1 0x40 MLOAD PUSH2 0x1E3 SWAP2 SWAP1 PUSH2 0x109E JUMP JUMPDEST SWAP1 DUP2 MSTORE PUSH1 0x20 ADD PUSH1 0x40 MLOAD DUP1 SWAP2 SUB SWAP1 KECCAK256 PUSH0 ADD SWAP1 DUP2 PUSH2 0x1FF SWAP2 SWAP1 PUSH2 0x1316 JUMP JUMPDEST POP PUSH0 JUMPDEST DUP2 MLOAD DUP2 LT ISZERO PUSH2 0x2DD JUMPI PUSH0 DUP1 DUP5 PUSH1 0x40 MLOAD PUSH2 0x21B SWAP2 SWAP1 PUSH2 0x109E JUMP JUMPDEST SWAP1 DUP2 MSTORE PUSH1 0x20 ADD PUSH1 0x40 MLOAD DUP1 SWAP2 SUB SWAP1 KECCAK256 PUSH1 0x2 ADD DUP4 DUP4 DUP2 MLOAD DUP2 LT PUSH2 0x23F JUMPI PUSH2 0x23E PUSH2 0x13E5 JUMP JUMPDEST JUMPDEST PUSH1 0x20 MUL PUSH1 0x20 ADD ADD MLOAD PUSH1 0x40 MLOAD PUSH2 0x254 SWAP2 SWAP1 PUSH2 0x109E JUMP JUMPDEST SWAP1 DUP2 MSTORE PUSH1 0x20 ADD PUSH1 0x40 MLOAD DUP1 SWAP2 SUB SWAP1 KECCAK256 DUP2 SWAP1 SSTORE POP PUSH0 DUP4 PUSH1 0x40 MLOAD PUSH2 0x275 SWAP2 SWAP1 PUSH2 0x109E JUMP JUMPDEST SWAP1 DUP2 MSTORE PUSH1 0x20 ADD PUSH1 0x40 MLOAD DUP1 SWAP2 SUB SWAP1 KECCAK256 PUSH1 0x1 ADD DUP3 DUP3 DUP2 MLOAD DUP2 LT PUSH2 0x299 JUMPI PUSH2 0x298 PUSH2 0x13E5 JUMP JUMPDEST JUMPDEST PUSH1 0x20 MUL PUSH1 0x20 ADD ADD MLOAD SWAP1 DUP1 PUSH1 0x1 DUP2 SLOAD ADD DUP1 DUP3 SSTORE DUP1 SWAP2 POP POP PUSH1 0x1 SWAP1 SUB SWAP1 PUSH0 MSTORE PUSH1 0x20 PUSH0 KECCAK256 ADD PUSH0 SWAP1 SWAP2 SWAP1 SWAP2 SWAP1 SWAP2 POP SWAP1 DUP2 PUSH2 0x2CF SWAP2 SWAP1 PUSH2 0x1316 JUMP JUMPDEST POP DUP1 DUP1 PUSH1 0x1 ADD SWAP2 POP POP PUSH2 0x202 JUMP JUMPDEST POP POP POP JUMP JUMPDEST PUSH1 0x60 DUP1 PUSH1 0x60 PUSH0 DUP5 MLOAD GT PUSH2 0x32A JUMPI PUSH1 0x40 MLOAD PUSH32 0x8C379A000000000000000000000000000000000000000000000000000000000 DUP2 MSTORE PUSH1 0x4 ADD PUSH2 0x321 SWAP1 PUSH2 0x1046 JUMP JUMPDEST PUSH1 0x40 MLOAD DUP1 SWAP2 SUB SWAP1 REVERT JUMPDEST PUSH0 DUP1 DUP6 PUSH1 0x40 MLOAD PUSH2 0x33A SWAP2 SWAP1 PUSH2 0x109E JUMP JUMPDEST SWAP1 DUP2 MSTORE PUSH1 0x20 ADD PUSH1 0x40 MLOAD DUP1 SWAP2 SUB SWAP1 KECCAK256 PUSH0 ADD DUP1 SLOAD PUSH2 0x355 SWAP1 PUSH2 0x10E1 JUMP JUMPDEST SWAP1 POP GT PUSH2 0x397 JUMPI PUSH1 0x40 MLOAD PUSH32 0x8C379A000000000000000000000000000000000000000000000000000000000 DUP2 MSTORE PUSH1 0x4 ADD PUSH2 0x38E SWAP1 PUSH2 0x145C JUMP JUMPDEST PUSH1 0x40 MLOAD DUP1 SWAP2 SUB SWAP1 REVERT JUMPDEST PUSH0 DUP1 DUP6 PUSH1 0x40 MLOAD PUSH2 0x3A7 SWAP2 SWAP1 PUSH2 0x109E JUMP JUMPDEST SWAP1 DUP2 MSTORE PUSH1 0x20 ADD PUSH1 0x40 MLOAD DUP1 SWAP2 SUB SWAP1 KECCAK256 SWAP1 POP PUSH0 DUP2 PUSH1 0x1 ADD DUP1 SLOAD SWAP1 POP SWAP1 POP PUSH0 DUP2 PUSH8 0xFFFFFFFFFFFFFFFF DUP2 GT ISZERO PUSH2 0x3DD JUMPI PUSH2 0x3DC PUSH2 0x9F4 JUMP JUMPDEST JUMPDEST PUSH1 0x40 MLOAD SWAP1 DUP1 DUP3 MSTORE DUP1 PUSH1 0x20 MUL PUSH1 0x20 ADD DUP3 ADD PUSH1 0x40 MSTORE DUP1 ISZERO PUSH2 0x40B JUMPI DUP2 PUSH1 0x20 ADD PUSH1 0x20 DUP3 MUL DUP1 CALLDATASIZE DUP4 CALLDATACOPY DUP1 DUP3 ADD SWAP2 POP POP SWAP1 POP JUMPDEST POP SWAP1 POP PUSH0 JUMPDEST DUP3 DUP2 LT ISZERO PUSH2 0x482 JUMPI DUP4 PUSH1 0x2 ADD DUP5 PUSH1 0x1 ADD DUP3 DUP2 SLOAD DUP2 LT PUSH2 0x432 JUMPI PUSH2 0x431 PUSH2 0x13E5 JUMP JUMPDEST JUMPDEST SWAP1 PUSH0 MSTORE PUSH1 0x20 PUSH0 KECCAK256 ADD PUSH1 0x40 MLOAD PUSH2 0x447 SWAP2 SWAP1 PUSH2 0x14FA JUMP JUMPDEST SWAP1 DUP2 MSTORE PUSH1 0x20 ADD PUSH1 0x40 MLOAD DUP1 SWAP2 SUB SWAP1 KECCAK256 SLOAD DUP3 DUP3 DUP2 MLOAD DUP2 LT PUSH2 0x469 JUMPI PUSH2 0x468 PUSH2 0x13E5 JUMP JUMPDEST JUMPDEST PUSH1 0x20 MUL PUSH1 0x20 ADD ADD DUP2 DUP2 MSTORE POP POP DUP1 DUP1 PUSH1 0x1 ADD SWAP2 POP POP PUSH2 0x410 JUMP JUMPDEST POP DUP3 PUSH0 ADD DUP4 PUSH1 0x1 ADD DUP3 DUP3 DUP1 SLOAD PUSH2 0x497 SWAP1 PUSH2 0x10E1 JUMP JUMPDEST DUP1 PUSH1 0x1F ADD PUSH1 0x20 DUP1 SWAP2 DIV MUL PUSH1 0x20 ADD PUSH1 0x40 MLOAD SWAP1 DUP2 ADD PUSH1 0x40 MSTORE DUP1 SWAP3 SWAP2 SWAP1 DUP2 DUP2 MSTORE PUSH1 0x20 ADD DUP3 DUP1 SLOAD PUSH2 0x4C3 SWAP1 PUSH2 0x10E1 JUMP JUMPDEST DUP1 ISZERO PUSH2 0x50E JUMPI DUP1 PUSH1 0x1F LT PUSH2 0x4E5 JUMPI PUSH2 0x100 DUP1 DUP4 SLOAD DIV MUL DUP4 MSTORE SWAP2 PUSH1 0x20 ADD SWAP2 PUSH2 0x50E JUMP JUMPDEST DUP3 ADD SWAP2 SWAP1 PUSH0 MSTORE PUSH1 0x20 PUSH0 KECCAK256 SWAP1 JUMPDEST DUP2 SLOAD DUP2 MSTORE SWAP1 PUSH1 0x1 ADD SWAP1 PUSH1 0x20 ADD DUP1 DUP4 GT PUSH2 0x4F1 JUMPI DUP3 SWAP1 SUB PUSH1 0x1F AND DUP3 ADD SWAP2 JUMPDEST POP POP POP POP POP SWAP3 POP DUP2 DUP1 SLOAD DUP1 PUSH1 0x20 MUL PUSH1 0x20 ADD PUSH1 0x40 MLOAD SWAP1 DUP2 ADD PUSH1 0x40 MSTORE DUP1 SWAP3 SWAP2 SWAP1 DUP2 DUP2 MSTORE PUSH1 0x20 ADD PUSH0 SWAP1 JUMPDEST DUP3 DUP3 LT ISZERO PUSH2 0x5DD JUMPI DUP4 DUP3 SWAP1 PUSH0 MSTORE PUSH1 0x20 PUSH0 KECCAK256 ADD DUP1 SLOAD PUSH2 0x552 SWAP1 PUSH2 0x10E1 JUMP JUMPDEST DUP1 PUSH1 0x1F ADD PUSH1 0x20 DUP1 SWAP2 DIV MUL PUSH1 0x20 ADD PUSH1 0x40 MLOAD SWAP1 DUP2 ADD PUSH1 0x40 MSTORE DUP1 SWAP3 SWAP2 SWAP1 DUP2 DUP2 MSTORE PUSH1 0x20 ADD DUP3 DUP1 SLOAD PUSH2 0x57E SWAP1 PUSH2 0x10E1 JUMP JUMPDEST DUP1 ISZERO PUSH2 0x5C9 JUMPI DUP1 PUSH1 0x1F LT PUSH2 0x5A0 JUMPI PUSH2 0x100 DUP1 DUP4 SLOAD DIV MUL DUP4 MSTORE SWAP2 PUSH1 0x20 ADD SWAP2 PUSH2 0x5C9 JUMP JUMPDEST DUP3 ADD SWAP2 SWAP1 PUSH0 MSTORE PUSH1 0x20 PUSH0 KECCAK256 SWAP1 JUMPDEST DUP2 SLOAD DUP2 MSTORE SWAP1 PUSH1 0x1 ADD SWAP1 PUSH1 0x20 ADD DUP1 DUP4 GT PUSH2 0x5AC JUMPI DUP3 SWAP1 SUB PUSH1 0x1F AND DUP3 ADD SWAP2 JUMPDEST POP POP POP POP POP DUP2 MSTORE PUSH1 0x20 ADD SWAP1 PUSH1 0x1 ADD SWAP1 PUSH2 0x535 JUMP JUMPDEST POP POP POP POP SWAP2 POP SWAP6 POP SWAP6 POP SWAP6 POP POP POP POP SWAP2 SWAP4 SWAP1 SWAP3 POP JUMP JUMPDEST PUSH1 0x60 PUSH0 DUP3 MLOAD GT PUSH2 0x638 JUMPI PUSH1 0x40 MLOAD PUSH32 0x8C379A000000000000000000000000000000000000000000000000000000000 DUP2 MSTORE PUSH1 0x4 ADD PUSH2 0x62F SWAP1 PUSH2 0x1046 JUMP JUMPDEST PUSH1 0x40 MLOAD DUP1 SWAP2 SUB SWAP1 REVERT JUMPDEST PUSH0 DUP1 DUP4 PUSH1 0x40 MLOAD PUSH2 0x648 SWAP2 SWAP1 PUSH2 0x109E JUMP JUMPDEST SWAP1 DUP2 MSTORE PUSH1 0x20 ADD PUSH1 0x40 MLOAD DUP1 SWAP2 SUB SWAP1 KECCAK256 PUSH0 ADD DUP1 SLOAD PUSH2 0x663 SWAP1 PUSH2 0x10E1 JUMP JUMPDEST SWAP1 POP GT PUSH2 0x6A5 JUMPI PUSH1 0x40 MLOAD PUSH32 0x8C379A000000000000000000000000000000000000000000000000000000000 DUP2 MSTORE PUSH1 0x4 ADD PUSH2 0x69C SWAP1 PUSH2 0x145C JUMP JUMPDEST PUSH1 0x40 MLOAD DUP1 SWAP2 SUB SWAP1 REVERT JUMPDEST PUSH0 DUP3 PUSH1 0x40 MLOAD PUSH2 0x6B4 SWAP2 SWAP1 PUSH2 0x109E JUMP JUMPDEST SWAP1 DUP2 MSTORE PUSH1 0x20 ADD PUSH1 0x40 MLOAD DUP1 SWAP2 SUB SWAP1 KECCAK256 PUSH1 0x1 ADD DUP1 SLOAD DUP1 PUSH1 0x20 MUL PUSH1 0x20 ADD PUSH1 0x40 MLOAD SWAP1 DUP2 ADD PUSH1 0x40 MSTORE DUP1 SWAP3 SWAP2 SWAP1 DUP2 DUP2 MSTORE PUSH1 0x20 ADD PUSH0 SWAP1 JUMPDEST DUP3 DUP3 LT ISZERO PUSH2 0x78C JUMPI DUP4 DUP3 SWAP1 PUSH0 MSTORE PUSH1 0x20 PUSH0 KECCAK256 ADD DUP1 SLOAD PUSH2 0x701 SWAP1 PUSH2 0x10E1 JUMP JUMPDEST DUP1 PUSH1 0x1F ADD PUSH1 0x20 DUP1 SWAP2 DIV MUL PUSH1 0x20 ADD PUSH1 0x40 MLOAD SWAP1 DUP2 ADD PUSH1 0x40 MSTORE DUP1 SWAP3 SWAP2 SWAP1 DUP2 DUP2 MSTORE PUSH1 0x20 ADD DUP3 DUP1 SLOAD PUSH2 0x72D SWAP1 PUSH2 0x10E1 JUMP JUMPDEST DUP1 ISZERO PUSH2 0x778 JUMPI DUP1 PUSH1 0x1F LT PUSH2 0x74F JUMPI PUSH2 0x100 DUP1 DUP4 SLOAD DIV MUL DUP4 MSTORE SWAP2 PUSH1 0x20 ADD SWAP2 PUSH2 0x778 JUMP JUMPDEST DUP3 ADD SWAP2 SWAP1 PUSH0 MSTORE PUSH1 0x20 PUSH0 KECCAK256 SWAP1 JUMPDEST DUP2 SLOAD DUP2 MSTORE SWAP1 PUSH1 0x1 ADD SWAP1 PUSH1 0x20 ADD DUP1 DUP4 GT PUSH2 0x75B JUMPI DUP3 SWAP1 SUB PUSH1 0x1F AND DUP3 ADD SWAP2 JUMPDEST POP POP POP POP POP DUP2 MSTORE PUSH1 0x20 ADD SWAP1 PUSH1 0x1 ADD SWAP1 PUSH2 0x6E4 JUMP JUMPDEST POP POP POP POP SWAP1 POP SWAP2 SWAP1 POP JUMP JUMPDEST PUSH0 DUP1 DUP4 MLOAD GT PUSH2 0x7DB JUMPI PUSH1 0x40 MLOAD PUSH32 0x8C379A000000000000000000000000000000000000000000000000000000000 DUP2 MSTORE PUSH1 0x4 ADD PUSH2 0x7D2 SWAP1 PUSH2 0x1046 JUMP JUMPDEST PUSH1 0x40 MLOAD DUP1 SWAP2 SUB SWAP1 REVERT JUMPDEST PUSH0 DUP1 DUP5 PUSH1 0x40 MLOAD PUSH2 0x7EB SWAP2 SWAP1 PUSH2 0x109E JUMP JUMPDEST SWAP1 DUP2 MSTORE PUSH1 0x20 ADD PUSH1 0x40 MLOAD DUP1 SWAP2 SUB SWAP1 KECCAK256 PUSH0 ADD DUP1 SLOAD PUSH2 0x806 SWAP1 PUSH2 0x10E1 JUMP JUMPDEST SWAP1 POP GT PUSH2 0x848 JUMPI PUSH1 0x40 MLOAD PUSH32 0x8C379A000000000000000000000000000000000000000000000000000000000 DUP2 MSTORE PUSH1 0x4 ADD PUSH2 0x83F SWAP1 PUSH2 0x145C JUMP JUMPDEST PUSH1 0x40 MLOAD DUP1 SWAP2 SUB SWAP1 REVERT JUMPDEST PUSH0 DUP4 PUSH1 0x40 MLOAD PUSH2 0x857 SWAP2 SWAP1 PUSH2 0x109E JUMP JUMPDEST SWAP1 DUP2 MSTORE PUSH1 0x20 ADD PUSH1 0x40 MLOAD DUP1 SWAP2 SUB SWAP1 KECCAK256 PUSH1 0x2 ADD DUP3 PUSH1 0x40 MLOAD PUSH2 0x876 SWAP2 SWAP1 PUSH2 0x109E JUMP JUMPDEST SWAP1 DUP2 MSTORE PUSH1 0x20 ADD PUSH1 0x40 MLOAD DUP1 SWAP2 SUB SWAP1 KECCAK256 SLOAD SWAP1 POP SWAP3 SWAP2 POP POP JUMP JUMPDEST PUSH0 DUP3 MLOAD GT PUSH2 0x8D0 JUMPI PUSH1 0x40 MLOAD PUSH32 0x8C379A000000000000000000000000000000000000000000000000000000000 DUP2 MSTORE PUSH1 0x4 ADD PUSH2 0x8C7 SWAP1 PUSH2 0x1046 JUMP JUMPDEST PUSH1 0x40 MLOAD DUP1 SWAP2 SUB SWAP1 REVERT JUMPDEST PUSH0 DUP1 DUP4 PUSH1 0x40 MLOAD PUSH2 0x8E0 SWAP2 SWAP1 PUSH2 0x109E JUMP JUMPDEST SWAP1 DUP2 MSTORE PUSH1 0x20 ADD PUSH1 0x40 MLOAD DUP1 SWAP2 SUB SWAP1 KECCAK256 PUSH0 ADD DUP1 SLOAD PUSH2 0x8FB SWAP1 PUSH2 0x10E1 JUMP JUMPDEST SWAP1 POP GT PUSH2 0x93D JUMPI PUSH1 0x40 MLOAD PUSH32 0x8C379A000000000000000000000000000000000000000000000000000000000 DUP2 MSTORE PUSH1 0x4 ADD PUSH2 0x934 SWAP1 PUSH2 0x145C JUMP JUMPDEST PUSH1 0x40 MLOAD DUP1 SWAP2 SUB SWAP1 REVERT JUMPDEST PUSH0 DUP3 PUSH1 0x40 MLOAD PUSH2 0x94C SWAP2 SWAP1 PUSH2 0x109E JUMP JUMPDEST SWAP1 DUP2 MSTORE PUSH1 0x20 ADD PUSH1 0x40 MLOAD DUP1 SWAP2 SUB SWAP1 KECCAK256 PUSH1 0x2 ADD DUP2 PUSH1 0x40 MLOAD PUSH2 0x96B SWAP2 SWAP1 PUSH2 0x109E JUMP JUMPDEST SWAP1 DUP2 MSTORE PUSH1 0x20 ADD PUSH1 0x40 MLOAD DUP1 SWAP2 SUB SWAP1 KECCAK256 PUSH0 DUP2 SLOAD DUP1 SWAP3 SWAP2 SWAP1 PUSH2 0x989 SWAP1 PUSH2 0x153D JUMP JUMPDEST SWAP2 SWAP1 POP SSTORE POP PUSH32 0x137AD23732468494166EC34D1367743690FFA17F6CEAC8429CBA8FC35D088B6E DUP3 DUP3 PUSH1 0x40 MLOAD PUSH2 0x9BF SWAP3 SWAP2 SWAP1 PUSH2 0x1584 JUMP JUMPDEST PUSH1 0x40 MLOAD DUP1 SWAP2 SUB SWAP1 LOG1 POP POP JUMP JUMPDEST PUSH0 PUSH1 0x40 MLOAD SWAP1 POP SWAP1 JUMP JUMPDEST PUSH0 DUP1 REVERT JUMPDEST PUSH0 DUP1 REVERT JUMPDEST PUSH0 DUP1 REVERT JUMPDEST PUSH0 DUP1 REVERT JUMPDEST PUSH0 PUSH1 0x1F NOT PUSH1 0x1F DUP4 ADD AND SWAP1 POP SWAP2 SWAP1 POP JUMP JUMPDEST PUSH32 0x4E487B7100000000000000000000000000000000000000000000000000000000 PUSH0 MSTORE PUSH1 0x41 PUSH1 0x4 MSTORE PUSH1 0x24 PUSH0 REVERT JUMPDEST PUSH2 0xA2A DUP3 PUSH2 0x9E4 JUMP JUMPDEST DUP2 ADD DUP2 DUP2 LT PUSH8 0xFFFFFFFFFFFFFFFF DUP3 GT OR ISZERO PUSH2 0xA49 JUMPI PUSH2 0xA48 PUSH2 0x9F4 JUMP JUMPDEST JUMPDEST DUP1 PUSH1 0x40 MSTORE POP POP POP JUMP JUMPDEST PUSH0 PUSH2 0xA5B PUSH2 0x9CB JUMP JUMPDEST SWAP1 POP PUSH2 0xA67 DUP3 DUP3 PUSH2 0xA21 JUMP JUMPDEST SWAP2 SWAP1 POP JUMP JUMPDEST PUSH0 PUSH8 0xFFFFFFFFFFFFFFFF DUP3 GT ISZERO PUSH2 0xA86 JUMPI PUSH2 0xA85 PUSH2 0x9F4 JUMP JUMPDEST JUMPDEST PUSH2 0xA8F DUP3 PUSH2 0x9E4 JUMP JUMPDEST SWAP1 POP PUSH1 0x20 DUP2 ADD SWAP1 POP SWAP2 SWAP1 POP JUMP JUMPDEST DUP3 DUP2 DUP4 CALLDATACOPY PUSH0 DUP4 DUP4 ADD MSTORE POP POP POP JUMP JUMPDEST PUSH0 PUSH2 0xABC PUSH2 0xAB7 DUP5 PUSH2 0xA6C JUMP JUMPDEST PUSH2 0xA52 JUMP JUMPDEST SWAP1 POP DUP3 DUP2 MSTORE PUSH1 0x20 DUP2 ADD DUP5 DUP5 DUP5 ADD GT ISZERO PUSH2 0xAD8 JUMPI PUSH2 0xAD7 PUSH2 0x9E0 JUMP JUMPDEST JUMPDEST PUSH2 0xAE3 DUP5 DUP3 DUP6 PUSH2 0xA9C JUMP JUMPDEST POP SWAP4 SWAP3 POP POP POP JUMP JUMPDEST PUSH0 DUP3 PUSH1 0x1F DUP4 ADD SLT PUSH2 0xAFF JUMPI PUSH2 0xAFE PUSH2 0x9DC JUMP JUMPDEST JUMPDEST DUP2 CALLDATALOAD PUSH2 0xB0F DUP5 DUP3 PUSH1 0x20 DUP7 ADD PUSH2 0xAAA JUMP JUMPDEST SWAP2 POP POP SWAP3 SWAP2 POP POP JUMP JUMPDEST PUSH0 PUSH8 0xFFFFFFFFFFFFFFFF DUP3 GT ISZERO PUSH2 0xB32 JUMPI PUSH2 0xB31 PUSH2 0x9F4 JUMP JUMPDEST JUMPDEST PUSH1 0x20 DUP3 MUL SWAP1 POP PUSH1 0x20 DUP2 ADD SWAP1 POP SWAP2 SWAP1 POP JUMP JUMPDEST PUSH0 DUP1 REVERT JUMPDEST PUSH0 PUSH2 0xB59 PUSH2 0xB54 DUP5 PUSH2 0xB18 JUMP JUMPDEST PUSH2 0xA52 JUMP JUMPDEST SWAP1 POP DUP1 DUP4 DUP3 MSTORE PUSH1 0x20 DUP3 ADD SWAP1 POP PUSH1 0x20 DUP5 MUL DUP4 ADD DUP6 DUP2 GT ISZERO PUSH2 0xB7C JUMPI PUSH2 0xB7B PUSH2 0xB43 JUMP JUMPDEST JUMPDEST DUP4 JUMPDEST DUP2 DUP2 LT ISZERO PUSH2 0xBC3 JUMPI DUP1 CALLDATALOAD PUSH8 0xFFFFFFFFFFFFFFFF DUP2 GT ISZERO PUSH2 0xBA1 JUMPI PUSH2 0xBA0 PUSH2 0x9DC JUMP JUMPDEST JUMPDEST DUP1 DUP7 ADD PUSH2 0xBAE DUP10 DUP3 PUSH2 0xAEB JUMP JUMPDEST DUP6 MSTORE PUSH1 0x20 DUP6 ADD SWAP5 POP POP POP PUSH1 0x20 DUP2 ADD SWAP1 POP PUSH2 0xB7E JUMP JUMPDEST POP POP POP SWAP4 SWAP3 POP POP POP JUMP JUMPDEST PUSH0 DUP3 PUSH1 0x1F DUP4 ADD SLT PUSH2 0xBE1 JUMPI PUSH2 0xBE0 PUSH2 0x9DC JUMP JUMPDEST JUMPDEST DUP2 CALLDATALOAD PUSH2 0xBF1 DUP5 DUP3 PUSH1 0x20 DUP7 ADD PUSH2 0xB47 JUMP JUMPDEST SWAP2 POP POP SWAP3 SWAP2 POP POP JUMP JUMPDEST PUSH0 DUP1 PUSH1 0x40 DUP4 DUP6 SUB SLT ISZERO PUSH2 0xC10 JUMPI PUSH2 0xC0F PUSH2 0x9D4 JUMP JUMPDEST JUMPDEST PUSH0 DUP4 ADD CALLDATALOAD PUSH8 0xFFFFFFFFFFFFFFFF DUP2 GT ISZERO PUSH2 0xC2D JUMPI PUSH2 0xC2C PUSH2 0x9D8 JUMP JUMPDEST JUMPDEST PUSH2 0xC39 DUP6 DUP3 DUP7 ADD PUSH2 0xAEB JUMP JUMPDEST SWAP3 POP POP PUSH1 0x20 DUP4 ADD CALLDATALOAD PUSH8 0xFFFFFFFFFFFFFFFF DUP2 GT ISZERO PUSH2 0xC5A JUMPI PUSH2 0xC59 PUSH2 0x9D8 JUMP JUMPDEST JUMPDEST PUSH2 0xC66 DUP6 DUP3 DUP7 ADD PUSH2 0xBCD JUMP JUMPDEST SWAP2 POP POP SWAP3 POP SWAP3 SWAP1 POP JUMP JUMPDEST PUSH0 PUSH1 0x20 DUP3 DUP5 SUB SLT ISZERO PUSH2 0xC85 JUMPI PUSH2 0xC84 PUSH2 0x9D4 JUMP JUMPDEST JUMPDEST PUSH0 DUP3 ADD CALLDATALOAD PUSH8 0xFFFFFFFFFFFFFFFF DUP2 GT ISZERO PUSH2 0xCA2 JUMPI PUSH2 0xCA1 PUSH2 0x9D8 JUMP JUMPDEST JUMPDEST PUSH2 0xCAE DUP5 DUP3 DUP6 ADD PUSH2 0xAEB JUMP JUMPDEST SWAP2 POP POP SWAP3 SWAP2 POP POP JUMP JUMPDEST PUSH0 DUP2 MLOAD SWAP1 POP SWAP2 SWAP1 POP JUMP JUMPDEST PUSH0 DUP3 DUP3 MSTORE PUSH1 0x20 DUP3 ADD SWAP1 POP SWAP3 SWAP2 POP POP JUMP JUMPDEST PUSH0 JUMPDEST DUP4 DUP2 LT ISZERO PUSH2 0xCEE JUMPI DUP1 DUP3 ADD MLOAD DUP2 DUP5 ADD MSTORE PUSH1 0x20 DUP2 ADD SWAP1 POP PUSH2 0xCD3 JUMP JUMPDEST PUSH0 DUP5 DUP5 ADD MSTORE POP POP POP POP JUMP JUMPDEST PUSH0 PUSH2 0xD03 DUP3 PUSH2 0xCB7 JUMP JUMPDEST PUSH2 0xD0D DUP2 DUP6 PUSH2 0xCC1 JUMP JUMPDEST SWAP4 POP PUSH2 0xD1D DUP2 DUP6 PUSH1 0x20 DUP7 ADD PUSH2 0xCD1 JUMP JUMPDEST PUSH2 0xD26 DUP2 PUSH2 0x9E4 JUMP JUMPDEST DUP5 ADD SWAP2 POP POP SWAP3 SWAP2 POP POP JUMP JUMPDEST PUSH0 DUP2 MLOAD SWAP1 POP SWAP2 SWAP1 POP JUMP JUMPDEST PUSH0 DUP3 DUP3 MSTORE PUSH1 0x20 DUP3 ADD SWAP1 POP SWAP3 SWAP2 POP POP JUMP JUMPDEST PUSH0 DUP2 SWAP1 POP PUSH1 0x20 DUP3 ADD SWAP1 POP SWAP2 SWAP1 POP JUMP JUMPDEST PUSH0 DUP3 DUP3 MSTORE PUSH1 0x20 DUP3 ADD SWAP1 POP SWAP3 SWAP2 POP POP JUMP JUMPDEST PUSH0 PUSH2 0xD74 DUP3 PUSH2 0xCB7 JUMP JUMPDEST PUSH2 0xD7E DUP2 DUP6 PUSH2 0xD5A JUMP JUMPDEST SWAP4 POP PUSH2 0xD8E DUP2 DUP6 PUSH1 0x20 DUP7 ADD PUSH2 0xCD1 JUMP JUMPDEST PUSH2 0xD97 DUP2 PUSH2 0x9E4 JUMP JUMPDEST DUP5 ADD SWAP2 POP POP SWAP3 SWAP2 POP POP JUMP JUMPDEST PUSH0 PUSH2 0xDAD DUP4 DUP4 PUSH2 0xD6A JUMP JUMPDEST SWAP1 POP SWAP3 SWAP2 POP POP JUMP JUMPDEST PUSH0 PUSH1 0x20 DUP3 ADD SWAP1 POP SWAP2 SWAP1 POP JUMP JUMPDEST PUSH0 PUSH2 0xDCB DUP3 PUSH2 0xD31 JUMP JUMPDEST PUSH2 0xDD5 DUP2 DUP6 PUSH2 0xD3B JUMP JUMPDEST SWAP4 POP DUP4 PUSH1 0x20 DUP3 MUL DUP6 ADD PUSH2 0xDE7 DUP6 PUSH2 0xD4B JUMP JUMPDEST DUP1 PUSH0 JUMPDEST DUP6 DUP2 LT ISZERO PUSH2 0xE22 JUMPI DUP5 DUP5 SUB DUP10 MSTORE DUP2 MLOAD PUSH2 0xE03 DUP6 DUP3 PUSH2 0xDA2 JUMP JUMPDEST SWAP5 POP PUSH2 0xE0E DUP4 PUSH2 0xDB5 JUMP JUMPDEST SWAP3 POP PUSH1 0x20 DUP11 ADD SWAP10 POP POP PUSH1 0x1 DUP2 ADD SWAP1 POP PUSH2 0xDEA JUMP JUMPDEST POP DUP3 SWAP8 POP DUP8 SWAP6 POP POP POP POP POP POP SWAP3 SWAP2 POP POP JUMP JUMPDEST PUSH0 DUP2 MLOAD SWAP1 POP SWAP2 SWAP1 POP JUMP JUMPDEST PUSH0 DUP3 DUP3 MSTORE PUSH1 0x20 DUP3 ADD SWAP1 POP SWAP3 SWAP2 POP POP JUMP JUMPDEST PUSH0 DUP2 SWAP1 POP PUSH1 0x20 DUP3 ADD SWAP1 POP SWAP2 SWAP1 POP JUMP JUMPDEST PUSH0 DUP2 SWAP1 POP SWAP2 SWAP1 POP JUMP JUMPDEST PUSH2 0xE6F DUP2 PUSH2 0xE5D JUMP JUMPDEST DUP3 MSTORE POP POP JUMP JUMPDEST PUSH0 PUSH2 0xE80 DUP4 DUP4 PUSH2 0xE66 JUMP JUMPDEST PUSH1 0x20 DUP4 ADD SWAP1 POP SWAP3 SWAP2 POP POP JUMP JUMPDEST PUSH0 PUSH1 0x20 DUP3 ADD SWAP1 POP SWAP2 SWAP1 POP JUMP JUMPDEST PUSH0 PUSH2 0xEA2 DUP3 PUSH2 0xE34 JUMP JUMPDEST PUSH2 0xEAC DUP2 DUP6 PUSH2 0xE3E JUMP JUMPDEST SWAP4 POP PUSH2 0xEB7 DUP4 PUSH2 0xE4E JUMP JUMPDEST DUP1 PUSH0 JUMPDEST DUP4 DUP2 LT ISZERO PUSH2 0xEE7 JUMPI DUP2 MLOAD PUSH2 0xECE DUP9 DUP3 PUSH2 0xE75 JUMP JUMPDEST SWAP8 POP PUSH2 0xED9 DUP4 PUSH2 0xE8C JUMP JUMPDEST SWAP3 POP POP PUSH1 0x1 DUP2 ADD SWAP1 POP PUSH2 0xEBA JUMP JUMPDEST POP DUP6 SWAP4 POP POP POP POP SWAP3 SWAP2 POP POP JUMP JUMPDEST PUSH0 PUSH1 0x60 DUP3 ADD SWAP1 POP DUP2 DUP2 SUB PUSH0 DUP4 ADD MSTORE PUSH2 0xF0C DUP2 DUP7 PUSH2 0xCF9 JUMP JUMPDEST SWAP1 POP DUP2 DUP2 SUB PUSH1 0x20 DUP4 ADD MSTORE PUSH2 0xF20 DUP2 DUP6 PUSH2 0xDC1 JUMP JUMPDEST SWAP1 POP DUP2 DUP2 SUB PUSH1 0x40 DUP4 ADD MSTORE PUSH2 0xF34 DUP2 DUP5 PUSH2 0xE98 JUMP JUMPDEST SWAP1 POP SWAP5 SWAP4 POP POP POP POP JUMP JUMPDEST PUSH0 PUSH1 0x20 DUP3 ADD SWAP1 POP DUP2 DUP2 SUB PUSH0 DUP4 ADD MSTORE PUSH2 0xF56 DUP2 DUP5 PUSH2 0xDC1 JUMP JUMPDEST SWAP1 POP SWAP3 SWAP2 POP POP JUMP JUMPDEST PUSH0 DUP1 PUSH1 0x40 DUP4 DUP6 SUB SLT ISZERO PUSH2 0xF74 JUMPI PUSH2 0xF73 PUSH2 0x9D4 JUMP JUMPDEST JUMPDEST PUSH0 DUP4 ADD CALLDATALOAD PUSH8 0xFFFFFFFFFFFFFFFF DUP2 GT ISZERO PUSH2 0xF91 JUMPI PUSH2 0xF90 PUSH2 0x9D8 JUMP JUMPDEST JUMPDEST PUSH2 0xF9D DUP6 DUP3 DUP7 ADD PUSH2 0xAEB JUMP JUMPDEST SWAP3 POP POP PUSH1 0x20 DUP4 ADD CALLDATALOAD PUSH8 0xFFFFFFFFFFFFFFFF DUP2 GT ISZERO PUSH2 0xFBE JUMPI PUSH2 0xFBD PUSH2 0x9D8 JUMP JUMPDEST JUMPDEST PUSH2 0xFCA DUP6 DUP3 DUP7 ADD PUSH2 0xAEB JUMP JUMPDEST SWAP2 POP POP SWAP3 POP SWAP3 SWAP1 POP JUMP JUMPDEST PUSH2 0xFDD DUP2 PUSH2 0xE5D JUMP JUMPDEST DUP3 MSTORE POP POP JUMP JUMPDEST PUSH0 PUSH1 0x20 DUP3 ADD SWAP1 POP PUSH2 0xFF6 PUSH0 DUP4 ADD DUP5 PUSH2 0xFD4 JUMP JUMPDEST SWAP3 SWAP2 POP POP JUMP JUMPDEST PUSH32 0x456C656374696F6E206E616D652063616E6E6F7420626520656D707479000000 PUSH0 DUP3 ADD MSTORE POP JUMP JUMPDEST PUSH0 PUSH2 0x1030 PUSH1 0x1D DUP4 PUSH2 0xCC1 JUMP JUMPDEST SWAP2 POP PUSH2 0x103B DUP3 PUSH2 0xFFC JUMP JUMPDEST PUSH1 0x20 DUP3 ADD SWAP1 POP SWAP2 SWAP1 POP JUMP JUMPDEST PUSH0 PUSH1 0x20 DUP3 ADD SWAP1 POP DUP2 DUP2 SUB PUSH0 DUP4 ADD MSTORE PUSH2 0x105D DUP2 PUSH2 0x1024 JUMP JUMPDEST SWAP1 POP SWAP2 SWAP1 POP JUMP JUMPDEST PUSH0 DUP2 SWAP1 POP SWAP3 SWAP2 POP POP JUMP JUMPDEST PUSH0 PUSH2 0x1078 DUP3 PUSH2 0xCB7 JUMP JUMPDEST PUSH2 0x1082 DUP2 DUP6 PUSH2 0x1064 JUMP JUMPDEST SWAP4 POP PUSH2 0x1092 DUP2 DUP6 PUSH1 0x20 DUP7 ADD PUSH2 0xCD1 JUMP JUMPDEST DUP1 DUP5 ADD SWAP2 POP POP SWAP3 SWAP2 POP POP JUMP JUMPDEST PUSH0 PUSH2 0x10A9 DUP3 DUP5 PUSH2 0x106E JUMP JUMPDEST SWAP2 POP DUP2 SWAP1 POP SWAP3 SWAP2 POP POP JUMP JUMPDEST PUSH32 0x4E487B7100000000000000000000000000000000000000000000000000000000 PUSH0 MSTORE PUSH1 0x22 PUSH1 0x4 MSTORE PUSH1 0x24 PUSH0 REVERT JUMPDEST PUSH0 PUSH1 0x2 DUP3 DIV SWAP1 POP PUSH1 0x1 DUP3 AND DUP1 PUSH2 0x10F8 JUMPI PUSH1 0x7F DUP3 AND SWAP2 POP JUMPDEST PUSH1 0x20 DUP3 LT DUP2 SUB PUSH2 0x110B JUMPI PUSH2 0x110A PUSH2 0x10B4 JUMP JUMPDEST JUMPDEST POP SWAP2 SWAP1 POP JUMP JUMPDEST PUSH32 0x456C656374696F6E20616C726561647920657869737473000000000000000000 PUSH0 DUP3 ADD MSTORE POP JUMP JUMPDEST PUSH0 PUSH2 0x1145 PUSH1 0x17 DUP4 PUSH2 0xCC1 JUMP JUMPDEST SWAP2 POP PUSH2 0x1150 DUP3 PUSH2 0x1111 JUMP JUMPDEST PUSH1 0x20 DUP3 ADD SWAP1 POP SWAP2 SWAP1 POP JUMP JUMPDEST PUSH0 PUSH1 0x20 DUP3 ADD SWAP1 POP DUP2 DUP2 SUB PUSH0 DUP4 ADD MSTORE PUSH2 0x1172 DUP2 PUSH2 0x1139 JUMP JUMPDEST SWAP1 POP SWAP2 SWAP1 POP JUMP JUMPDEST PUSH0 DUP2 SWAP1 POP DUP2 PUSH0 MSTORE PUSH1 0x20 PUSH0 KECCAK256 SWAP1 POP SWAP2 SWAP1 POP JUMP JUMPDEST PUSH0 PUSH1 0x20 PUSH1 0x1F DUP4 ADD DIV SWAP1 POP SWAP2 SWAP1 POP JUMP JUMPDEST PUSH0 DUP3 DUP3 SHL SWAP1 POP SWAP3 SWAP2 POP POP JUMP JUMPDEST PUSH0 PUSH1 0x8 DUP4 MUL PUSH2 0x11D5 PUSH32 0xFFFFFFFFFFFFFFFFFFFFFFFFFFFFFFFFFFFFFFFFFFFFFFFFFFFFFFFFFFFFFFFF DUP3 PUSH2 0x119A JUMP JUMPDEST PUSH2 0x11DF DUP7 DUP4 PUSH2 0x119A JUMP JUMPDEST SWAP6 POP DUP1 NOT DUP5 AND SWAP4 POP DUP1 DUP7 AND DUP5 OR SWAP3 POP POP POP SWAP4 SWAP3 POP POP POP JUMP JUMPDEST PUSH0 DUP2 SWAP1 POP SWAP2 SWAP1 POP JUMP JUMPDEST PUSH0 PUSH2 0x121A PUSH2 0x1215 PUSH2 0x1210 DUP5 PUSH2 0xE5D JUMP JUMPDEST PUSH2 0x11F7 JUMP JUMPDEST PUSH2 0xE5D JUMP JUMPDEST SWAP1 POP SWAP2 SWAP1 POP JUMP JUMPDEST PUSH0 DUP2 SWAP1 POP SWAP2 SWAP1 POP JUMP JUMPDEST PUSH2 0x1233 DUP4 PUSH2 0x1200 JUMP JUMPDEST PUSH2 0x1247 PUSH2 0x123F DUP3 PUSH2 0x1221 JUMP JUMPDEST DUP5 DUP5 SLOAD PUSH2 0x11A6 JUMP JUMPDEST DUP3 SSTORE POP POP POP POP JUMP JUMPDEST PUSH0 SWAP1 JUMP JUMPDEST PUSH2 0x125B PUSH2 0x124F JUMP JUMPDEST PUSH2 0x1266 DUP2 DUP5 DUP5 PUSH2 0x122A JUMP JUMPDEST POP POP POP JUMP JUMPDEST JUMPDEST DUP2 DUP2 LT ISZERO PUSH2 0x1289 JUMPI PUSH2 0x127E PUSH0 DUP3 PUSH2 0x1253 JUMP JUMPDEST PUSH1 0x1 DUP2 ADD SWAP1 POP PUSH2 0x126C JUMP JUMPDEST POP POP JUMP JUMPDEST PUSH1 0x1F DUP3 GT ISZERO PUSH2 0x12CE JUMPI PUSH2 0x129F DUP2 PUSH2 0x1179 JUMP JUMPDEST PUSH2 0x12A8 DUP5 PUSH2 0x118B JUMP JUMPDEST DUP2 ADD PUSH1 0x20 DUP6 LT ISZERO PUSH2 0x12B7 JUMPI DUP2 SWAP1 POP JUMPDEST PUSH2 0x12CB PUSH2 0x12C3 DUP6 PUSH2 0x118B JUMP JUMPDEST DUP4 ADD DUP3 PUSH2 0x126B JUMP JUMPDEST POP POP JUMPDEST POP POP POP JUMP JUMPDEST PUSH0 DUP3 DUP3 SHR SWAP1 POP SWAP3 SWAP2 POP POP JUMP JUMPDEST PUSH0 PUSH2 0x12EE PUSH0 NOT DUP5 PUSH1 0x8 MUL PUSH2 0x12D3 JUMP JUMPDEST NOT DUP1 DUP4 AND SWAP2 POP POP SWAP3 SWAP2 POP POP JUMP JUMPDEST PUSH0 PUSH2 0x1306 DUP4 DUP4 PUSH2 0x12DF JUMP JUMPDEST SWAP2 POP DUP3 PUSH1 0x2 MUL DUP3 OR SWAP1 POP SWAP3 SWAP2 POP POP JUMP JUMPDEST PUSH2 0x131F DUP3 PUSH2 0xCB7 JUMP JUMPDEST PUSH8 0xFFFFFFFFFFFFFFFF DUP2 GT ISZERO PUSH2 0x1338 JUMPI PUSH2 0x1337 PUSH2 0x9F4 JUMP JUMPDEST JUMPDEST PUSH2 0x1342 DUP3 SLOAD PUSH2 0x10E1 JUMP JUMPDEST PUSH2 0x134D DUP3 DUP3 DUP6 PUSH2 0x128D JUMP JUMPDEST PUSH0 PUSH1 0x20 SWAP1 POP PUSH1 0x1F DUP4 GT PUSH1 0x1 DUP2 EQ PUSH2 0x137E JUMPI PUSH0 DUP5 ISZERO PUSH2 0x136C JUMPI DUP3 DUP8 ADD MLOAD SWAP1 POP JUMPDEST PUSH2 0x1376 DUP6 DUP3 PUSH2 0x12FB JUMP JUMPDEST DUP7 SSTORE POP PUSH2 0x13DD JUMP JUMPDEST PUSH1 0x1F NOT DUP5 AND PUSH2 0x138C DUP7 PUSH2 0x1179 JUMP JUMPDEST PUSH0 JUMPDEST DUP3 DUP2 LT ISZERO PUSH2 0x13B3 JUMPI DUP5 DUP10 ADD MLOAD DUP3 SSTORE PUSH1 0x1 DUP3 ADD SWAP2 POP PUSH1 0x20 DUP6 ADD SWAP5 POP PUSH1 0x20 DUP2 ADD SWAP1 POP PUSH2 0x138E JUMP JUMPDEST DUP7 DUP4 LT ISZERO PUSH2 0x13D0 JUMPI DUP5 DUP10 ADD MLOAD PUSH2 0x13CC PUSH1 0x1F DUP10 AND DUP3 PUSH2 0x12DF JUMP JUMPDEST DUP4 SSTORE POP JUMPDEST PUSH1 0x1 PUSH1 0x2 DUP9 MUL ADD DUP9 SSTORE POP POP POP JUMPDEST POP POP POP POP POP POP JUMP JUMPDEST PUSH32 0x4E487B7100000000000000000000000000000000000000000000000000000000 PUSH0 MSTORE PUSH1 0x32 PUSH1 0x4 MSTORE PUSH1 0x24 PUSH0 REVERT JUMPDEST PUSH32 0x456C656374696F6E20646F6573206E6F74206578697374000000000000000000 PUSH0 DUP3 ADD MSTORE POP JUMP JUMPDEST PUSH0 PUSH2 0x1446 PUSH1 0x17 DUP4 PUSH2 0xCC1 JUMP JUMPDEST SWAP2 POP PUSH2 0x1451 DUP3 PUSH2 0x1412 JUMP JUMPDEST PUSH1 0x20 DUP3 ADD SWAP1 POP SWAP2 SWAP1 POP JUMP JUMPDEST PUSH0 PUSH1 0x20 DUP3 ADD SWAP1 POP DUP2 DUP2 SUB PUSH0 DUP4 ADD MSTORE PUSH2 0x1473 DUP2 PUSH2 0x143A JUMP JUMPDEST SWAP1 POP SWAP2 SWAP1 POP JUMP JUMPDEST PUSH0 DUP2 SLOAD PUSH2 0x1486 DUP2 PUSH2 0x10E1 JUMP JUMPDEST PUSH2 0x1490 DUP2 DUP7 PUSH2 0x1064 JUMP JUMPDEST SWAP5 POP PUSH1 0x1 DUP3 AND PUSH0 DUP2 EQ PUSH2 0x14AA JUMPI PUSH1 0x1 DUP2 EQ PUSH2 0x14BF JUMPI PUSH2 0x14F1 JUMP JUMPDEST PUSH1 0xFF NOT DUP4 AND DUP7 MSTORE DUP2 ISZERO ISZERO DUP3 MUL DUP7 ADD SWAP4 POP PUSH2 0x14F1 JUMP JUMPDEST PUSH2 0x14C8 DUP6 PUSH2 0x1179 JUMP JUMPDEST PUSH0 JUMPDEST DUP4 DUP2 LT ISZERO PUSH2 0x14E9 JUMPI DUP2 SLOAD DUP2 DUP10 ADD MSTORE PUSH1 0x1 DUP3 ADD SWAP2 POP PUSH1 0x20 DUP2 ADD SWAP1 POP PUSH2 0x14CA JUMP JUMPDEST DUP4 DUP9 ADD SWAP6 POP POP POP JUMPDEST POP POP POP SWAP3 SWAP2 POP POP JUMP JUMPDEST PUSH0 PUSH2 0x1505 DUP3 DUP5 PUSH2 0x147A JUMP JUMPDEST SWAP2 POP DUP2 SWAP1 POP SWAP3 SWAP2 POP POP JUMP JUMPDEST PUSH32 0x4E487B7100000000000000000000000000000000000000000000000000000000 PUSH0 MSTORE PUSH1 0x11 PUSH1 0x4 MSTORE PUSH1 0x24 PUSH0 REVERT JUMPDEST PUSH0 PUSH2 0x1547 DUP3 PUSH2 0xE5D JUMP JUMPDEST SWAP2 POP PUSH32 0xFFFFFFFFFFFFFFFFFFFFFFFFFFFFFFFFFFFFFFFFFFFFFFFFFFFFFFFFFFFFFFFF DUP3 SUB PUSH2 0x1579 JUMPI PUSH2 0x1578 PUSH2 0x1510 JUMP JUMPDEST JUMPDEST PUSH1 0x1 DUP3 ADD SWAP1 POP SWAP2 SWAP1 POP JUMP JUMPDEST PUSH0 PUSH1 0x40 DUP3 ADD SWAP1 POP DUP2 DUP2 SUB PUSH0 DUP4 ADD MSTORE PUSH2 0x159C DUP2 DUP6 PUSH2 0xCF9 JUMP JUMPDEST SWAP1 POP DUP2 DUP2 SUB PUSH1 0x20 DUP4 ADD MSTORE PUSH2 0x15B0 DUP2 DUP5 PUSH2 0xCF9 JUMP JUMPDEST SWAP1 POP SWAP4 SWAP3 POP POP POP JUMP INVALID LOG2 PUSH5 0x6970667358 0x22 SLT KECCAK256 CALLER 0x4E 0xFC LOG1 PUSH5 0xF37423F949 0xA9 MOD 0xC1 0xCE 0xD9 PUSH30 0xC5B14DBB1774C1B77F804DFC7B88097464736F6C63430008160033000000 "
				},
				"gasEstimates": {
					"creation": {
						"codeDepositCost": "1123000",
						"executionCost": "1165",
						"totalCost": "1124165"
					},
					"external": {
						"addElectionWithCandidates(string,string[])": "infinite",
						"getCandidateNames(string)": "infinite",
						"getCandidateVotes(string,string)": "infinite",
						"getElectionResult(string)": "infinite",
						"vote(string,string)": "infinite"
					}
				},
				"methodIdentifiers": {
					"addElectionWithCandidates(string,string[])": "30117d24",
					"getCandidateNames(string)": "9d3adf5b",
					"getCandidateVotes(string,string)": "b7ff50fc",
					"getElectionResult(string)": "897de252",
					"vote(string,string)": "e8d5940d"
				}
			},
			"storageLayout": {
				"storage": [
					{
						"astId": 16,
						"contract": "contracts/Lock.sol:Lock",
						"label": "elections",
						"offset": 0,
						"slot": "0",
						"type": "t_mapping(t_string_memory_ptr,t_struct(ElectionDetails)11_storage)"
					}
				],
				"types": {
					"t_array(t_string_storage)dyn_storage": {
						"base": "t_string_storage",
						"encoding": "dynamic_array",
						"label": "string[]",
						"numberOfBytes": "32"
					},
					"t_mapping(t_string_memory_ptr,t_struct(ElectionDetails)11_storage)": {
						"encoding": "mapping",
						"key": "t_string_memory_ptr",
						"label": "mapping(string => struct Lock.ElectionDetails)",
						"numberOfBytes": "32",
						"value": "t_struct(ElectionDetails)11_storage"
					},
					"t_mapping(t_string_memory_ptr,t_uint256)": {
						"encoding": "mapping",
						"key": "t_string_memory_ptr",
						"label": "mapping(string => uint256)",
						"numberOfBytes": "32",
						"value": "t_uint256"
					},
					"t_string_memory_ptr": {
						"encoding": "bytes",
						"label": "string",
						"numberOfBytes": "32"
					},
					"t_string_storage": {
						"encoding": "bytes",
						"label": "string",
						"numberOfBytes": "32"
					},
					"t_struct(ElectionDetails)11_storage": {
						"encoding": "inplace",
						"label": "struct Lock.ElectionDetails",
						"members": [
							{
								"astId": 3,
								"contract": "contracts/Lock.sol:Lock",
								"label": "electionName",
								"offset": 0,
								"slot": "0",
								"type": "t_string_storage"
							},
							{
								"astId": 6,
								"contract": "contracts/Lock.sol:Lock",
								"label": "candidateNames",
								"offset": 0,
								"slot": "1",
								"type": "t_array(t_string_storage)dyn_storage"
							},
							{
								"astId": 10,
								"contract": "contracts/Lock.sol:Lock",
								"label": "candidateVotes",
								"offset": 0,
								"slot": "2",
								"type": "t_mapping(t_string_memory_ptr,t_uint256)"
							}
						],
						"numberOfBytes": "96"
					},
					"t_uint256": {
						"encoding": "inplace",
						"label": "uint256",
						"numberOfBytes": "32"
					}
				}
			},
			"userdoc": {
				"kind": "user",
				"methods": {},
				"version": 1
			}
		}
	}
}